:020000040800F2
:10000000381400204502000839420008012F00087A
:100010006D400008F3070008614C00080000000074
:10002000000000000000000000000000694500081A
:100030004B0C000800000000C34200086B4500089C
:100040005F0200085F0200085F0200085F0200080C
:100050005F0200085F0200084D0C0008690C0008F0
:100060005F0200085F0200085F0200085F020008EC
:100070005F0200085F0200085F0200085F020008DC
:100080005F020008C50B00085F02000800000000C6
:100090000000000000000000000000005F020008F7
:1000A0005F0200085F0200085F0200085F020008AC
:1000B0005F020008314600083D4600085F02000864
:1000C0005F0200085F0200085F0200085F0200088C
:1000D0005F020008514C00085F02000800000000A9
:1000E000530C00085F0200085F02000800000000D7
:1000F0000000000000000000000000005F02000897
:10010000000000005F020008494600085F02000886
:1001100000000000000000000000000000000000DF
:100120005F0200085F0200085F0200085F0200082B
:100130005F02000800000000000000000000000056
:100140000000000000000000000000005F02000846
:100150005F020008D10B0008DD0B0008594C0008B5
:100160005F0200085F0200080000000000000000BD
:10017000000000000000000000000000000000007F
:10018000000000005F020008000000000000000006
:100190005F02000800F002F800F045F80AA090E8BD
:1001A000000C82448344AAF10107DA4501D100F032
:1001B0003AF8AFF2090EBAE80F0013F0010F18BFBA
:1001C000FB1A43F001031847106B0000306B00006E
:1001D000103A24BF78C878C1FAD8520724BF30C873
:1001E00030C144BF04680C60704700000023002445
:1001F00000250026103A28BF78C1FBD8520728BF37
:1002000030C148BF0B6070471FB506F0E6FC00F038
:100210008DFA04000020002105F0F6FE401C60600D
:100220001FBD10B510BD00F05CFA1146FFF7ECFFE2
:1002300004F0BCFD00F08CFA03B4FFF7F2FF03BC3E
:1002400000F0D0FA0948804709480047FEE7FEE77A
:10025000FEE7FEE7FEE7FEE7FEE7FEE7FEE7FEE776
:1002600004480549054A064B70470000214600082E
:1002700095010008380E00203814002038100020A6
:100280003810002053EA020C00F069802DE9F04B91
:100290004FF00006002B1FBFB3FA83F503FA05F4F5
:1002A00024FA05F65E4012BF1643B2FA82F502FA4E
:1002B00005F4C5F120051EBF22FA05FC44EA0C0432
:1002C000203556EA044C4FEA144418BF641C4FF022
:1002D00000084FF00009904271EB030C39D300295C
:1002E00019BFB1FA81F701FA07F6B0FA80F700FA00
:1002F00007F6C7F120071EBF20FA07FC46EA0C06E6
:100300002037B6FBF4FCA7EB0507103F07F01F0BE7
:10031000CBF120062CFA06F60CFA0BFB44BFB346D1
:100320000026202FA4BF5E464FF0000B5BEA060CB0
:1003300008BF4FF0010B19EB0B0948EB0608ABFBAC
:10034000027C06FB02CC0BFB03CCC01B71EB0C0147
:10035000C1E70B46024641464846BDE8F08B13B55F
:100360004FF000004FF00001AFF30080BDE81C40EB
:10037000704770B5064600F0DFF804680546304661
:100380000A22002100F0E7F82C6070BD10B5044689
:1003900003E004F0C3FC401C09D014F8010B05492C
:1003A0000028F6D1BDE810400A2004F0B7BC4FF099
:1003B000FF3010BD48040020401ECAB210F8011FD3
:1003C0008A4202D00029F9D10020704740EA010397
:1003D000024630B59B0710D14FF0013400E008C24F
:1003E00008C91D1B9D4315EAC41FF8D013F0FF0177
:1003F00002F8011B0DD01B0AF8E711F8013B002B96
:1004000002F8013B05D011F8013B002B02F8013B3B
:10041000F3D130BD032A40F2308010F0030C00F01D
:10042000158011F8013BBCF1020F624498BF11F82E
:1004300001CB00F8013B38BF11F8013BA2F10402E7
:1004400098BF00F801CB38BF00F8013B11F003035F
:1004500000F0B980083AC0F0088051F8043B083A2F
:1004600051F804CBA0E80810F5E7121D5CBF51F865
:10047000043B40F8043BAFF30080D20724BF11F8DF
:10048000013B11F801CB48BF11F8012B24BF00F844
:10049000013B00F801CB48BF00F8012B70474FF03B
:1004A00000020429C0F0128010F0030C00F01B8041
:1004B000CCF1040CBCF1020F18BF00F8012BA8BF4F
:1004C00020F8022BA1EB0C0100F00DB85FEAC17C13
:1004D00024BF00F8012B00F8012B48BF00F8012BC6
:1004E00070474FF0000200B51346944696462039F7
:1004F00022BFA0E80C50A0E80C50B1F12001BFF4DD
:10050000F7AF090728BFA0E80C5048BF0CC05DF842
:1005100004EB890028BF40F8042B08BF704748BF90
:1005200020F8022B11F0804F18BF00F8012B704704
:100530007047704770470000004870472000002057
:1005400010B5FFF7F9FF006810BD10B50446FFF7BE
:10055000F3FF046010BD2DE9F04791460F46804639
:100560000446002614F8015B2DB100F063F8006822
:10057000405DC007F6D12B2D02D02D2D18D0641E62
:100580004A463946204600F05DF827B13968A14255
:1005900001D1C7F800804FF0020471050BD540422D
:1005A000002803DDFFF7C8FF0460A007BDE8F0875F
:1005B00046F48066E4E70028F8DAFFF7BDFF046040
:1005C0006FF00040F2E710B5203AC0F00B80B1E8C0
:1005D0001850A0E81850B1E81850A0E81850203A78
:1005E000BFF4F5AF5FEA027C24BFB1E81850A0E881
:1005F000185044BF18C918C0BDE810405FEA827C9B
:1006000024BF51F8043B40F8043B08BF7047D207B1
:1006100028BF31F8023B48BF11F8012B28BF20F852
:10062000023B48BF00F8012B7047000000487047AC
:100630002000002010B500F079F8001D10BD00BFAB
:10064000C95900002DE9F05F824615468B46002708
:100650000AF10104B9460078302801D09DB113E0B9
:1006600014F8010B0127782803D0582801D045B190
:100670000AE00DB1102D07D1002714F8010B102549
:1006800002E0082500E00A250026B0460EE005FB42
:10069000080005FB06F101271FFA80F801EB104660
:1006A000B6F5803F00D3B94614F8010B294600F097
:1006B00041F80028EBDABBF1000F05D00FB1641E42
:1006C00000E05446CBF80040B9F1000F06D0FFF728
:1006D00033FF02210160C81EBDE8F09F48EA0640D2
:1006E000FAE77546FFF7A2FFAE4605006946534696
:1006F00020F00700854618B020B5FFF7B1FDBDE832
:1007000020404FF000064FF000074FF000084FF078
:10071000000BAC46ACE8C009ACE8C009ACE8C009C5
:10072000ACE8C00921F007018D46704700487047CA
:10073000400000203A2800D2303820F02002412A20
:1007400001D3A2F13700884201D34FF0FF30704748
:1007500010B50446AFF300802046BDE81040FFF717
:100760006BBD00000000000030B44FF0013C50F8B9
:10077000042B51F8043BCCFA52F4D51A20D1FCB921
:1007800050F8042B51F8043BCCFA52F4D51A17D187
:10079000B4B950F8042B51F8043BCCFA52F4D51AF2
:1007A0000ED16CB950F8042B51F8043BCCFA52F43A
:1007B000D51A05D1002CDAD030BC4FF000007047BC
:1007C00029BAB1FA81F111F01801D1F12000844069
:1007D000F2D1CA40CB4012F0FF0213F0FF0330BC4D
:1007E000D01A704701491820ABBEFEE72600020070
:1007F0007047FEE710B50446E078022818BF10BD28
:1008000094ED010A0120607004F1A400F8EEC00A22
:100810009FED0D0A03F012FDB2EE021A04F1EC0096
:1008200004F1140131EE402A30EE010A84ED452A2C
:1008300084ED510A03F0EAFC04F58E7004F13801EE
:10084000BDE8104003F0E2BC0000000010B5044613
:10085000E078012818BF10BDE06804F11401C4F865
:100860001401C4F8440104F1EC0003F0CFFC04F5DA
:100870008E7004F13801BDE8104003F0C7BC0000E1
:100880002DE9F84F2DED048BDFF80081B3EE0E8AD1
:10089000B2EE049ADFED3E0A3E4F0446B0EE480A3F
:1008A000B0EE491A4046B847DFF8EC90F0EE080A7F
:1008B000B0EE480AB0EE491A4846B8479FED378A6D
:1008C000DFF8DCB0B0EE490A5846F0EE480AB0EE68
:1008D000481AB847334EB0EE490AF0EE480AB0EE77
:1008E000481A3046B847324D9FED2F0A9FED2F1A18
:1008F000F0EE480A2846B847DFF8BCA09FED2D0A65
:10090000B1EE041AF0EE480A5046B847AA4904F17D
:10091000EC003022FFF77EFDA84904F58E703022EE
:10092000FFF778FDA64904F5A6702022FFF772FDB7
:1009300004F1A40029462422FFF76CFD04F15C00B9
:1009400059462422FFF766FD04F180003146242237
:10095000FFF760FD04F1140041462422FFF75AFD21
:1009600004F1380049462422FFF754FD04F1C80081
:1009700051462422FFF74EFD0020E070BDEC048BB1
:1009800001B0BDE8F04F03F073BB00BFB009002019
:1009900066664640B5420008D40900200000000009
:1009A0004C040020700400208FC2753CCDCCCC3E9E
:1009B00000080020CDCC4C3EF809002000000000CB
:1009C00070B52DED048B0446E078042856D194EDE3
:1009D000049A19EE100A06F065F89FED2B0B53EC04
:1009E000102B05F06BFE9FED2A0B53EC102B05F03E
:1009F00013FC0122A27005F0A3FD05F0D0FD264EE8
:100A000041EC100B356804F0DBFFB0EE408A28465D
:100A1000F0EE608A05F0C3FD02460B4651EC180B60
:100A200006F087F818BBB5EEC09A04F11401F1EE98
:100A300010FAB5EEC09AC2BF1A48C4F84401C4F80F
:100A40001401F1EE10FABEBF1748C4F84401C4F80F
:100A5000140104F1EC0003F0D9FB04F58E7004F1ED
:100A6000380103F0D3FB30680130306006E000202D
:100A700030600AA0FFF78AFC02206080BDEC048B86
:100A800070BD00BF00BF00BF00000000006AF8405A
:100A900000008004294C6A404004002053544F5009
:100AA00021000000C3F5C840C3F5C8C010B5044616
:100AB000FFF7CCFE2046FFF79DFE204600F010F821
:100AC0002046FFF77DFFE07800B110BD0020E06018
:100AD0000120E0702046BDE81040FFF7B7BE0000DF
:100AE000B0B50446E07803281CBF4FF0FF30B0BD1E
:100AF0000120244D20702978012905D1224894ED48
:100B00005A2A90ED001A08E028701F49D4F86801AD
:100B100001EE100A0860B0EE412A94ED020A72EE6E
:100B2000410A04F1C80003F089FBBDEEC00A234965
:100B300010EE100AB8EEC00A404201EE100A1E483C
:100B4000B8EEC11A81ED0A0A04F1140180ED0A1A07
:100B500004F1EC0003F05AFB04F58E7004F1380147
:100B600003F054FB08494A68501C632A48604FF060
:100B70000000B8BFB0BD28704860E070022020704F
:100B80000120B0BD44040020C001002010B504467F
:100B90000949302204F1EC00FFF73CFC074904F559
:100BA0008E703022FFF736FC054904F5A67020222E
:100BB000BDE81040FFF72EBCC000002080020020DE
:100BC00024080020014800F0ABB800BFB0020020AC
:100BD000014800F0A5B800BFE0030020014800F084
:100BE0009FB800BF5001002001686FF00F0240F273
:100BF000FF3352FA81F2994318235F2AB2FBF3F2D2
:100C000004A39A5C88BF41F004018165C26508466F
:100C1000704700BF000610160006101680B5D0F809
:100C200000C0DCF800E02EF4802ECCF800E0CCF818
:100C3000043080684028084608BF1046CCF80800F9
:100C400008BF0A46CCF80C2080BD7047012000F098
:100C500019BA80B54FF4005000F014FA4FF4004078
:100C6000BDE8804000F00EBA022000F00BBAEFF3AE
:100C7000108072B6FEE770B50446A66D00F0E2FA89
:100C8000054694F83500022829D12068016821F032
:100C900016010160416921F080014161216C09B9AF
:100CA000A16C19B1016821F008010160016821F00F
:100CB0000101016005E000F0C5FA401B052812D8CB
:100CC0002068006810F0010FF5D1E06D3F2101FAB6
:100CD00000F0B060012084F83500002008E080209A
:100CE0006065012004E020206065032084F8350061
:100CF0000021C0B284F8341070BD90F8351002297C
:100D000009D1052180F835100068016821F0010142
:100D1000016000207047802141650120704700007C
:100D2000F8B504460020082100905C480568D4E925
:100D300016603768814039420DD02268136813F07D
:100D4000040F08D0136823F004031360B160616DD1
:100D500041F00101616501218140394209D02268D9
:100D6000526912F0800F04D0B160616D41F0020150
:100D7000616504218140394209D02268126812F06D
:100D8000020F04D0B160616D41F004016165102172
:100D90008140394219D02068026812F0080F14D03F
:100DA000B1600268016812F4802F06D1C9055EBFE8
:100DB000016821F00801016001E0080301D4216C01
:100DC00000E0A16C09B120468847E16D202000FABF
:100DD00001F23A423CD02068036813F0100F37D07C
:100DE000B26094F835300268052B19D122F0160252
:100DF0000260426922F080024261226C0AB9A26C50
:100E00001AB1026822F0080202603F208840B060F8
:100E1000002084F83400012084F83500216D39E089
:100E2000016852030CD4C9050ED4016821F01001E9
:100E30000160002084F83400012084F8350003E0CC
:100E4000080301D4616C00E0E16B09B120468847DA
:100E5000606D10B3606D10F0010F1AD005214FF4D2
:100E6000165084F83510B5FBF0F021680A6822F0BE
:100E700001020A60009A01328242009203D80A6895
:100E800012F0010FF6D1002084F83400012084F81C
:100E90003500E16C09B120468847F8BD18000020F4
:100EA0002DE9F041044600F0CDF90546002C4FD065
:100EB000002084F83400022084F83500206801689E
:100EC00021F00101016005E000F0BCF9401B05289C
:100ED00040D82068016811F0010FF5D101683A4A45
:100EE000D4E9013504F10C0801EA020C98E8C201CA
:100EF000D4E9072E43EA0C032B431943636A3143B9
:100F00003943042B41EA080141EA020141EA0E0299
:100F100024D1D4E90BE142EA0E02BEF1000F41EA0E
:100F20000201016050F8141FA56A21F0070141EA8F
:100F3000050141F0040C18D0B8F5005F26D0B8F1D7
:100F4000000F36D1022D37D0012D2CD0A5B30CE0E7
:100F5000012218E003232021032220E0026050F840
:100F6000141F21F0070141EA030CC0F800C020461D
:100F7000FFF73AFEE16D3F22012302FA01F1002260
:100F8000816000210BE0D0B2BDE8F081032DECD8E8
:100F9000012340210122DFE805F0020F020661650E
:100FA00084F83530EFE7AEF1C071B1FA81F149094B
:100FB00004E0032D04D3D8D1CEF300610029D4D0AE
:100FC000012340210122EAE73F8010F0B0B504463A
:100FD00094F83400012828D00120A56D84F834004D
:100FE00094F8350001281DD1022084F83500002036
:100FF00060652046FFF712FEE06D3F2101FA00F028
:10100000A8602068016841F016010160216C19B1E7
:10101000016841F008010160016841F001010160CF
:10102000002003E0002084F834000220C0B2B0BDEC
:10103000B0B5044600F006F90546A248611C0078E8
:1010400018BF044400F0FEF8401BA042FAD3B0BD24
:10105000B0F5005F18BF704780B506A0FFF796F99E
:1010600007484FF03F4101610421C170BDE8804055
:10107000704700BF52554E4E494E472100000000B8
:101080004408002003490A68024214BF0860704700
:10109000FFF7DEBF143C01402DE9FC4F5F4A0727F4
:1010A0004FF001094FF0030A4FF0000B4FF0000E14
:1010B000002690425A4A08BF042702444FEAB2234E
:1010C000042B38BF4FEAB2270097102E08BFBDE8A7
:1010D000FC8F0C6809FA06F31C4200F099804D68F9
:1010E00005F00304671E012F15D8D0F808C00AFACE
:1010F0000EF72CEA070CCF6807FA0EF747EA0C0741
:101100008760C5F3001707FA06FC47689F4347EA64
:101110000C07476001E0032C1DD0C2680AFA0EF7E5
:10112000022C22EA07028F6807FA0EF742EA07024A
:10113000C26010D13E4C0BF01C020F27974004EA0E
:10114000560505442C6A24EA07070C6904FA02F2E2
:101150003A432A624D68046805F003020AFA0EF762
:1011600015F4403F02FA0EF224EA070742EA0702AA
:1011700002604DD000222B4C0BF00C0501922B4A43
:10118000A4462C4C17463A68A0460F24AC4042F4C3
:1011900080423A603A6802F48042019226F00302EB
:1011A000019F624452F80870A743009C04FA05F5B9
:1011B0002F4342F80870DCF800204D6842EA03072C
:1011C00015F4803F08BF22EA030715F4003FCCF86E
:1011D0000070DCF8042042EA030708BF22EA030794
:1011E00015F4801FCCF80470DCF8082042EA0307ED
:1011F00008BF22EA03070C4A15F4001FCCF8087058
:101200001446226842EA030708BF22EA0307276060
:101210000BF1040B0EF1020E013656E700100240EE
:101220000000FEBF003C01400C3C0140443802403D
:10123000FCFFFF7F08FCFFFF002A08BF0904816153
:10124000704700001F488068704700BF1D48017844
:10125000826811448160704780B50B48016841F491
:1012600000710160016841F480610160016841F42E
:1012700080710160032000F07DF80F2000F006F877
:1012800000F022F8002080BD003C024070B50D4EF9
:1012900004464FF47A713078B1FBF0F09349096855
:1012A000B1FBF0F000F060FD01250F2C08D838B933
:1012B0004FF0FF3021460022002500F02FF8746027
:1012C000284670BD0000002082B000200B4901902C
:1012D0004A6842F480424A604A6802F480420192BD
:1012E000019A0090086840F080500860086800F09B
:1012F00080500090009802B0704700BF4038024014
:10130000002808DB00F01F010122400902FA01F168
:10131000014A42F82010704700E100E0B0B500F04B
:101320000F031A4D124CB0F1FF3FA3F104032B44FD
:1013300003F10C03C8BF03192868C0F30220051D80
:10134000C41E80F00700072D4FF0010538BF0024B0
:10135000042828BF042005FA00F00138084005FAE7
:1013600004F10F31A0401140084300011870B0BDD6
:1013700000E400E005494FF6FF030A681A4060F3F5
:101380000A22034810430860704700BF0CED00E0DC
:101390000000FA052DE9F04104468846002C00F0D3
:1013A0008780454BD3F8000400F00700404507D282
:1013B00083F80084D3F8000400F00700404577D19B
:1013C000206810F0020F11D0410742BF996841F424
:1013D000E0519960010742BF996841F4604199600A
:1013E0009968A26821F0F00111439960C0072DD0DF
:1013F0006068811E022904D2196811F0007F0BD1A8
:1014000056E0012804D1196811F4003F04D14FE0DF
:10141000196811F0020F4BD099681D4621F00301A5
:1014200008439860FFF70EFF064641F288372B46C7
:101430009868616800F00C00B0EB810F06D0FFF7F0
:1014400001FF801BB842F2D9032032E0D3F8000438
:1014500000F00700404507D983F80084D3F8000462
:1014600000F00700404523D1206810F0040F05D09C
:101470009968E26821F4E05111439960000706D5AC
:101480009868216920F4604040EAC10098601C46D9
:1014900000F032F8A168094AC1F30311515CC84059
:1014A0001249086006480068FFF7F0FE002000E0DF
:1014B0000120C0B2BDE8F08100380240B06C0008E5
:1014C0000400002009480A490A4A00680968C1F373
:1014D0008221515CC840704704480549054A0068AC
:1014E0000968C1F34231515CC840704718000020C0
:1014F00008380240C06C000810B5EE4C606800F07F
:101500000C00082804D0042814BF1048104810BD4F
:10151000226820680E49002310F4800F02F03F0279
:1015200004BF42F20041C0F2F4012068C0F3881009
:10153000A1FB0001FEF7A6FE21680222C1F30141D2
:1015400002EB4101B0FBF1F010BD00BF0024F4003C
:1015500040787D012DE9F8430446002C00F05D81C0
:101560002078D34ED34FC007B14651D0786800F0F1
:101570000C00042807D1306810F4003F48D06068A0
:10158000002845D149E1786800F00C00082803D113
:10159000386810F4800FEED16668B6F5803F09D048
:1015A000C846B6F5A02FD8F8000015D140F4802029
:1015B000C8F800004E46306840F480303060FFF7D5
:1015C00041FE0546306810F4003F21D1FFF73AFE96
:1015D000401B6428F6D9BEE020F48030C8F8000033
:1015E000D8F8000020F48020C8F80000FFF72AFE99
:1015F000002E05464646E5D14E46306810F4003FC1
:1016000006D0FFF71FFE411B03206429F4D905E132
:10161000207880072FD5786810F00C0F08D07868F4
:1016200000F00C0008280BD1386810F4800F07D1A7
:10163000306810F0020F17D0E068012814D0ECE0F9
:10164000E068002800F089809B4801210160FFF7D5
:10165000F9FD0546306810F0020F05D1FFF7F2FDE5
:10166000401B0228F6D976E03068216920F0F800A6
:1016700040EAC10030602078000722D561698E48B9
:1016800079B10121C0F8801EFFF7DCFD0546386FF7
:1016900010F0020F15D1FFF7D5FD401B0228F6D937
:1016A00059E00021C0F8801EFFF7CCFD0546386FD9
:1016B00010F0020F05D0FFF7C5FD401B0228F6D938
:1016C00049E0207840077BD5F86B4FF0000810F018
:1016D000805F0CD1CDF800804FF00108F86B40F02E
:1016E0008050F863F86B00F0805000900098734EC3
:1016F0004846805910F4807F12D14946885940F4F9
:1017000080708851FFF79EFD05464846805910F4C9
:10171000807F05D1FFF796FD401B0228F5D91AE01E
:10172000A668012E05D0F86E052E29D140F00400E0
:10173000F866F86E40F00100F866FFF783FD054695
:1017400041F28836F86E10F0020F32D1FFF77AFDC1
:10175000401BB042F6D9032060E0574800210160E9
:10176000FFF770FD05464846006810F0020F3FF491
:1017700082AFFFF767FD411B03200229F3D94DE03B
:1017800020F00100F866F86E20F00400F866FFF71C
:1017900059FD0546002ED3D141F28836F86E10F07F
:1017A000020F06D0FFF74EFD411B0320B142F5D9D1
:1017B00034E0B8F1000F1EBFF86B20F08050F863E2
:1017C000A669002E71D0786800F00C00082829D195
:1017D000012E22D03868E16900F480028A421CD1CF
:1017E000216A00F03F028A4217D147F6C071626A4F
:1017F0000140B1EB821F10D1A16A4FF6FF72C903FD
:10180000914300F44032A1F580318A4205D1E16A6A
:1018100000F07060B0EB016F47D00120C0B201B0A2
:10182000BDE8F0832449002088460866FFF70AFDDA
:101830000546022E0BD14846006810F0007F12D0FA
:10184000FFF700FD411B03200229F4D9E6E74846D3
:10185000006810F0007F28D0FFF7F4FC411B032044
:101860000229F4D9DAE704F11C064FCE0843D90364
:1018700040EA82104FF6FF72914340EA0660A1F5FC
:101880008031084338600120C8F86000FFF7DAFCB7
:1018900004464846006810F0007F06D1FFF7D2FCEE
:1018A000011B03200229F4D9B8E70020B6E700BFE6
:1018B0000038024004380240000047420038FEFF72
:1018C00070B504464CB1D4F824C0BCF1000F06D06A
:1018D0000021216104F1140107E0012550E0616855
:1018E000B1F5827F03D004F11C0100220A600025BB
:1018F0004FF0000EA56294F8511041B9204684F8CB
:10190000505000F03FF8D4E909C101F4005E022212
:1019100084F851202268136823F040031360D4E94F
:101920000130D4E9031603F4827300F4044001F497
:1019300000611843084306F002010843616901F0A1
:1019400001010843A16901F400731843E36903F03E
:1019500038031843236A03F08003184340EA0E005B
:101960001060042000EA11400CF0100108435060A0
:10197000D06920F40060D0610120656584F85100D1
:10198000284670BD10B586B0044601A81421FEF7A4
:10199000A8FD20682749884223D02749884246D19C
:1019A0000020264900904A6942F480524A614A69FF
:1019B00002F480520092009A00900A6842F00102FC
:1019C0000A60096801F00101009100990221029169
:1019D000E021019103900320049005200590184810
:1019E00022E00020154900900A6942F480420A6111
:1019F0000A6902F480420092009A00900A6842F05C
:101A000002020A60096801F00201009100990221B6
:101A100002914FF44441019103900320049005206A
:101A20000590074800F5806001A9FFF735FB06B077
:101A300010BD00BF00380040003001403038024087
:101A4000000002402DE9F84304461D4617460E46A5
:101A50006068B0F5827F03D1A068002800F085801F
:101A600094F85000012801D102207AE04FF00109DA
:101A700084F85090FFF7E6FB804694F85100012867
:101A800069D10120002E67D0002F65D0042084F892
:101A9000510000206065E787A663A7872063A086C2
:101AA000C4E91000E086A1682068B1F5004F07D1B5
:101AB000016821F040010160016821F4804101606A
:101AC00001686E1C11F0400F02BF016841F0400137
:101AD0000160E068A8B92EE02068816811F0010F6C
:101AE00007D1FFF7AFFB66B1A0EB0800A84208D30F
:101AF00048E0C068A16B21F8020BA163E08F0138B8
:101B0000E087E08F0028E7D118E02068816811F0B5
:101B1000010F07D1FFF796FB6EB1A0EB0800A842BA
:101B200009D32FE0007BA16B0870A06B0130A0638C
:101B3000E08F0138E087E08F0028E6D12046294673
:101B4000424602F061FC08B120206065606D00280B
:101B500018BF012000E00220002184F8501084F812
:101B60005190C0B201B0BDE8F08304203146324646
:101B70003B4684F851002046009500F005F801B07E
:101B8000BDE8F0830320E7E72DE9F84304461E464D
:101B900015460F4694F85000012801D10220C9E0F3
:101BA000012084F85000FFF74DFB94F85110814656
:101BB00001296ED10120002F00F0B680002D00F029
:101BC000B380002E00F0B08094F85100DDF8208042
:101BD00004281CBF052084F8510000206065E687BA
:101BE000A563A6872763A686C4E91000E686206859
:101BF000016811F0400F02BF016841F0400101602F
:101C00006268711EE368B1FA81F1B2FA82F24909A1
:101C1000B3F5006F4FEA521241EA020147D131B1E8
:101C200037F8021BC1602763E08E0138E086012689
:101C300008F10105E08E10B9E08F00287ED0206801
:101C4000816811F0020F0CD0E18E012E09D141B153
:101C5000216B002631F8022BC2602163E18E01392D
:101C6000E186816811F0010F0AD0E18F41B1C068AF
:101C7000A16B012621F8020BA163E08F0138E087F8
:101C8000FFF7E0FA002DD5D0A0EB09004045D1D3F5
:101C900049E06068B0F5827F07D10220042943D172
:101CA000A16800293FF486AF3EE002203CE039B154
:101CB00039780173206B01302063E08E0138E086B3
:101CC000012608F10105E08E08B9E08FB0B3206865
:101CD000816811F0020F0ED0E18E012E0BD151B1AF
:101CE000216B002609780173216B20680131216383
:101CF000E18E0139E186816811F0010F0BD0E18F8F
:101D000049B1C068A16B01260870A06B0130A063C7
:101D1000E08F0138E087FFF795FA002DD3D0A0EBD4
:101D200009004045CFD30320002184F85010012141
:101D300084F85110C0B201B0BDE8F083204641469E
:101D40004A4602F08BFB18B1202060650120EBE7CA
:101D5000A16800200029E7D100902168CA6800929C
:101D6000896800910099DFE7411E0020B0EB116FF8
:101D70001CBF01207047044AF023516003490B70D7
:101D8000072190601160704710E000E023ED00E053
:101D90007047704790F83C300222012B2FD010B5CD
:101DA00080F83D20012280F83C200268D2F804E04F
:101DB000D2F808C00C68B2F1804F2EF0700343EAED
:101DC00004035360BDE810400ED0F04B9A420BD094
:101DD000ED4B9A4208D04E4B9A4205D04D4B9A4259
:101DE00002D04D4B9A4204D149682CF0800319432C
:101DF00091600022012180F83C2080F83D10D0B293
:101E0000704700BF10B5044634B394F83D0028B9BC
:101E1000002084F83C00204600F020F80220211D1C
:101E200084F83D00206802F015FC012084F846008B
:101E300084F83E0084F83F0084F8400084F84100B4
:101E400084F8420084F8430084F8440084F8450094
:101E500084F83D00002010BD012010BDE0B50068F1
:101E60002B49884210D0B0F1804F18BF8CBD0020A4
:101E700001901048016841F001010160006800F024
:101E80000100019001988CBD0020002200900948BB
:101E9000016841F0080101600121006800F00800BC
:101EA000009000983220FFF739FA3220BDE88C40CC
:101EB000FFF726BA4038024090F83D1001291CBFB8
:101EC00001207047022180F83D100068C168B0F120
:101ED000804F41F00101C1600ED0AC4988420BD067
:101EE000A949884208D00A49884205D00949884250
:101EF00002D00949884204D1816801F0070106290E
:101F000003D0016841F0010101600020704700BF6B
:101F1000000C0040004001400000014010B50446A4
:101F2000022094F83C20012A70D084F83D00012062
:101F30004FF6777384F83C00206882689A43826089
:101F40000A6812B3102A20D0202A1ED0302A1CD0B2
:101F5000402A21D0502A2BD0602A35D0B2F5005F1C
:101F60003ED0B2F5805F4AD0702A51D1D1E9012329
:101F7000C9681A4342EA0121826822F47F42114370
:101F80008160816841F0770138E0816821F0770154
:101F9000114341F0070131E04B68CA68194602F06D
:101FA0005BFC2068816821F0770141F0470125E062
:101FB0004B68CA68194602F04FFC2068816821F01E
:101FC000770141F0570119E04B68CA68194602F0E1
:101FD00054FC2068816821F0770141F067010DE031
:101FE000D1E90123C9681A4342EA0121826822F437
:101FF0007F4211438160816841F48041816000200B
:10200000002184F83C10012184F83D10C0B210BDBD
:102010000120F5E72DE9F84F04460D46002C4DD080
:1020200094F83D0028B9002084F83C00204600F0D8
:1020300049F8022044F2070284F83D0020688168D4
:1020400091438160211D02F005FB20688168D0F872
:1020500018A0D0F820C0D5E9003ED5E902B7D5E9EF
:102060000489D5E9062619432B6A4BEA02224FF66A
:10207000FC4581604FF6FF71AA432AEA010139430A
:10208000114341EA062141EA081141EA0331816125
:102090002CF0AA0141EA0E0141EA09110162012076
:1020A00084F8460084F83E0084F83F0084F842003B
:1020B00084F8430084F83D00002000E0012001B0D6
:1020C000BDE8F08F10B586B0044601A81421FEF7D4
:1020D00008FA20682C4988422AD02C49884250D1DD
:1020E0000020F34900900A6942F002020A610A697D
:1020F00002F002020092009A00900A6842F0020286
:102100000A603022096801F0020100910099022161
:1021100002910192CDE903001D48059101A9FEF746
:10212000BBFF1D2000210022FFF7F8F81D2026E04C
:102130000020DF4900900A6942F004020A610A693E
:1021400002F004020092009A00900A6842F0020233
:102150000A60C022096801F0020100910099022181
:1021600002910192CDE903000948059101A9FEF70A
:1021700093FF1E2000210022FFF7D0F81E20FFF75A
:10218000BFF806B010BD00BF0008004000040040CA
:102190000004024010B504460120042994F83E30A2
:1021A00094F83F2094F842E094F843C00BD0A9B9CA
:1021B000012B08BFBEF1010F39D1022084F83E0087
:1021C00084F8420028E0012A08BFBCF1010F2ED19B
:1021D000022084F83F0084F843001AE0012B08BF76
:1021E000012A24D1BEF1010F21D1BCF1010F18BF8A
:1021F00010BD0220002984F83E0084F83F0084F8D6
:10220000420084F8430007D020680021012202F038
:1022100061FA2068042101E020680021012202F017
:1022200059FA2068016841F001010160002010BDE9
:10223000B0B504460120042994F83E2094F83F509C
:1022400094F8423094F843C00AD0D1B9012A08BFAB
:10225000012B4BD1022084F83E0084F8420036E086
:10226000012D08BFBCF1010F40D102200421012241
:10227000042584F83F0084F84300206802F02AFA1D
:102280002BE0012A08BF012D30D1012B2ED1BCF14A
:10229000010F18BFB0BD0220002984F83E0084F869
:1022A0003F0084F8420084F8430010D020680021E9
:1022B000012202F00FFA206804210122042502F015
:1022C00009FA2068C16841F00201C16005E0206898
:1022D0000021012202F0FEF902252068C16829438D
:1022E000C160016841F0010101600020B0BD70478C
:1022F00010B504462068016911F0020F19D0C168B9
:1023000011F0020F15D06FF0020101610121217758
:10231000806910F0030F03D02046FFF7E8FF05E0C7
:10232000204600F0C9F8204600F042F9002020774E
:102330002068016911F0040F19D0C16811F0040F71
:1023400015D06FF00401016102212177806910F43A
:10235000407F03D02046FFF7CAFF05E0204600F08B
:10236000ABF8204600F024F90020207720680169AE
:1023700011F0080F19D0C16811F0080F15D06FF0D7
:102380000801016104212177C06910F0030F03D017
:102390002046FFF7ACFF05E0204600F08DF8204610
:1023A00000F006F9002020772068016911F0100F75
:1023B00019D0C16811F0100F15D06FF01001016134
:1023C00008212177C06910F4407F03D02046FFF731
:1023D0008EFF05E0204600F06FF8204600F0E8F898
:1023E000002020772068016911F0010F0AD0C16830
:1023F00011F0010F06D06FF001010161204600F0DD
:1024000033F92068016911F0800F0AD0C16811F01A
:10241000800F06D06FF0800101612046FFF7B8FC05
:102420002068016911F0400F0AD0C16811F0400F17
:1024300006D06FF040010161204600F043FA2068A9
:10244000016911F0200F08BF10BDC16811F0200F05
:1024500000D110BD6FF0200101612046BDE81040A1
:10246000FFF797BC10B586B0044601A81421FEF70B
:1024700038F82068B0F1804F17D100200C49009047
:102480000A6842F001020A60096801F00101009146
:1024900000990221029103210191CDE9030001205D
:1024A00001A905900348FEF7F7FD06B010BD00BF77
:1024B000303802400000024070470000B0B50446CA
:1024C0000D4694F83C00012801D1022041E04FEA7A
:1024D000B2010120032984F83C0037D8DFE801F07D
:1024E000020A12222068294602F004F9206850F8F6
:1024F000181F0EE02068294602F028F9206850F8DD
:10250000181F16E02068294602F050F9206850F89C
:102510001C1F41F008010160016821F00401016005
:1025200029690FE02068294602F070F9206850F808
:102530001C1F41F400610160016821F480610160A9
:10254000296909020268114301600020002184F812
:102550003C10C0B2B0BD10B5044634B394F83D0091
:1025600028B9002084F83C00204600F020F8022022
:10257000211D84F83D00206802F06CF8012084F8E9
:10258000460084F83E0084F83F0084F8400084F858
:10259000410084F8420084F8430084F8440084F841
:1025A000450084F83D00002010BD012010BD70479B
:1025B0007047000010B5044641B1082909D004292C
:1025C00014BF04F1410004F13F0004E004F13E00B7
:1025D00001E004F14000007801281CBF012010BD7B
:1025E000022041B1082909D0042914BF84F8410010
:1025F00084F83F0004E084F83E0001E084F84000E5
:102600002068012202F066F82068114988420FD044
:10261000B0F1804F10D00F4988420DD00E4988424A
:102620000AD00E49884207D00D49884204D008E0FC
:102630004A6C42F400424A64816801F007010629AD
:1026400003D0016841F001010160002010BD00BF0E
:10265000000001400004004000080040004001402C
:10266000000C0040000000008F49884240F0F780D5
:102670002DE9F84F2DED163B09908C488C4C0068E5
:10268000406A216DC1EB014101448A48A1640068A0
:10269000D0F824A0606C0891081A039003F07FFF23
:1026A0009FED7B0B53EC102B0292069303F0B4FDCD
:1026B000CDE9041003F0CAFC00EE100A30EE000A67
:1026C00010EE100A04F0EEF99FED730B55EC10BB01
:1026D0005A462B4603F0F2FF9FED710B59EC108B1D
:1026E00042464B4603F0EAFF734A56681269C2EB52
:1026F000024202EB0A07079703F0A8FCBE1B8246C2
:10270000304603F04CFF029A069B03F085FDCDE9AD
:10271000011003F09BFC00EE100A30EE000A10EEF0
:10272000100A04F0BFF95A462B46CDF818B0AB4654
:1027300003F0C4FF42464B4603F0C0FF03F086FCA3
:1027400009EE100A03989FED5DDA08EE10AAB1EECB
:1027500049AAE0645848B0EE4DBAC4F85CA0C0E99C
:10276000027680ED07AA002012E004EB8001013818
:102770008A698B6B00EE103A01EE102AB8EEC00A9F
:10278000B8EEC11ACA61CB633BEE00BA3DEE01DA86
:10279000C11DEAD1DDE9041002460B4603F088FCB6
:1027A000069F5B46B4EE00CA3DEE08DA3A4603F0F7
:1027B00085FF0646206E0D462DEE0CDA04F072F908
:1027C00002460B463046294684ED17DA03F070FCCA
:1027D00081468846DDE9011002460B4603F068FC9D
:1027E0003A465B4603F06AFFDFF8CCA005460F4689
:1027F000DAF82000BDEECAAA04F054F93BEE490A0B
:102800002A463B461AEE106ABDEEC88A20EE0C9AA4
:1028100004F05EF8054618EE100A26620F468AEDAF
:10282000079A41462060089860640798CAF8040037
:10283000484603F00BFC20662846394603F006FCA8
:102840001F4DCAF820002846FEF7A0F92846FEF7DB
:102850002DF90998BDEC163B01B0BDE8F04F134AC5
:10286000904206D0134A904218BF70471249103167
:1028700001E00F49503110680123426AC06AB2EB8F
:10288000500F88BF4FF0FF33086818440860704746
:102890000000000000A094406E861BF0F921094062
:1028A00000000000000059401C0600208C0500209C
:1028B00080000020D40500208002002000000000DD
:1028C000440800207047704770470000BCB50446BC
:1028D000206802680146D0F80CE051F8143F12F06D
:1028E0000F0F64D00EF4907503F0010C5CEA050341
:1028F00066D0D0071FBF1EF48070206C40F001002E
:102900002064500706D5BCF1000F1EBF206C40F0BC
:1029100002002064900706D5BCF1000F1EBF206C9A
:1029200040F004002064100708D50EF0200050EAA3
:102930000C001EBF206C40F008002064206C0028B2
:1029400000F0038102EA0E00800605D5204602F061
:10295000A1F8206800F114010868216C00F0400023
:1029600001F00801084300F0CE80204602F05DF837
:102970002068416911F0400F01D174E0206850E8EF
:10298000050F216820F0400041E80502002AF5D13A
:10299000A06B002867D072490165FEF7AEF90028E8
:1029A00000F0D380A06B016DBDE8BC40084702EA8F
:1029B0000E01890604D52046BDE8BC4002F06AB885
:1029C00002EA0E01CA06226B3AD5012A38D100214B
:1029D000019101680191416801910199416911F0EA
:1029E000400F45D1E18DA28DE38D002B00F0AD802D
:1029F000511A89B209B9A8E0206850E8030F22688B
:102A000020F4907042E80303002BF5D1206850E8D1
:102A1000050F226820F0010042E80503002BF5D1E4
:102A2000202084F83E0000202063206850E8030F37
:102A3000226820F0100042E80303002BF5D15DE08E
:102A40000A0666D594F83D1021297ED1A168B1F51A
:102A5000805F02D12169002969D0216A4A1C226263
:102A6000097841606AE02046BDE8BC40FFF72CBF12
:102A7000A26B11684B6899B2002966D0B4F82CC0DB
:102A8000614562D2E385D169B1F5807F01D131E042
:102A9000206850E8030F216820F4807041E80302A9
:102AA000002AF5D1206850E8050F216820F00100C8
:102AB00041E80502002AF5D1206850E8050F216899
:102AC00020F0400041E80502002AF5D1202084F8DA
:102AD0003E0000202063206850E8030F216820F0AA
:102AE000100041E80302002AF5D1A06BFEF7C3F8FD
:102AF000B4F82CC0E08DACEB000081B22046BDE8FC
:102B0000BC40FFF7E0BE2046FFF7DEFE0020206459
:102B1000BCBD490619D5C16821F04001C160202023
:102B200084F83D002046BDE8BC4000F0E7B9216ACA
:102B300031F8022B6FF35F2242602162E18C4FF685
:102B4000FF7201391142E18400D0BCBDC16821F09F
:102B50008001C160C16841F04001C160BCBD00BFDF
:102B60008949000810B5044644B394F83D0028B9DB
:102B7000002084F83C00204600F022F8242084F84D
:102B80003D002068C16821F40051C160204601F079
:102B9000DFFF2068016921F490410161416921F062
:102BA0002A014161C16841F40051C1600020202127
:102BB000206484F83D1084F83E1010BD012010BD43
:102BC00070B586B0044601A81421FDF78AFC206880
:102BD0006A4988424CD06A49884200F08880694935
:102BE000884240F0C980002667480096416941F05C
:102BF00010014161416901F01001009100990096B6
:102C0000016841F00101016001A9006800F00100C4
:102C100000900098022002904FF4C06001900320C1
:102C200003960490072005905848FEF735FA594955
:102C30005A4D4FF0006040224FF480631831C5E9CF
:102C4000001005F114001421C5E902262B61FDF7DF
:102C500048FC2846FEF724F908B1FEF708F82520BD
:102C6000002100226563AC63FEF758FB252081E05C
:102C7000002645480096016941F40031016101696F
:102C800001F40031009100990096016841F00101C2
:102C9000016001A9006800F0010000900098022086
:102CA00002900C20019003200396049007200590C9
:102CB0003648FEF7F1F93749374D4FF000604022B2
:102CC0004FF48063A1F58061C5E9001005F114009F
:102CD0001421C5E902262B61FDF703FC2846FEF707
:102CE000DFF808B1FDF7C3FF6563AC6344E000267D
:102CF00025480096416941F020014161416901F098
:102D00002001009100990096016841F001010160E5
:102D100001A9006800F001000090009802200290D4
:102D20004FF4C050019003200396049008200590B2
:102D30001648FEF7B1F9164D16494FF020604022B3
:102D40004FF48063C5E9001005F114001421C5E9B2
:102D500002262B61FDF7C5FB2846FEF7A1F808B156
:102D6000FDF785FF4720002100226563AC63FEF775
:102D7000D5FA4720FEF7C4FA06B070BD0044004003
:102D800000140140001001403038024000000240B1
:102D9000E0030020A0640240B002002050010020A7
:102DA00010B590F83E30202B06D1012429B122B174
:102DB00090F83C30012B02D10224E0B210BD002477
:102DC0000123046380F83C3001F028FFF5E70000A0
:102DD000F8B52749884241D1244ED6F80404E8BB0F
:102DE00096F80101FF2806D03178402905D101224B
:102DF000C6F8082405E0701C2CE0D6F80824012A47
:102E00002CD1421C741C86F80121215496F8010132
:102E1000211811F8011C0A2920D1304410F8010CA6
:102E20000D281BD1002006F203256FF00107C6F81C
:102E3000080407E005F580702946FDF7C7FAA5F5F7
:102E400080750137002FF5D106F203102146FDF7FA
:102E5000BDFA204640F20111FDF721FB0448034969
:102E60000122BDE8F840FFF79BBF00BF1C0A00200D
:102E7000EC060020B0B50446134694F83D00202827
:102E800005D131B12BB194F83C00012803D10220C7
:102E90002BE0012029E000250120E384DFF850C069
:102EA000144A2564216284F83C002120A38484F81C
:102EB0003D00606BC0E90F2C0F4AC0E91325226862
:102EC0000432FEF783F820686FF04001016084F857
:102ED0003C5000E0206850E8050F216840F0800079
:102EE00041E80502002AF5D10020C0B2B0BD00BF04
:102EF000254A0008E74900089549000870477047CF
:102F0000FEE700002DE9F8432DED127BFEF79AF95C
:102F1000DFF8C4554FF47A7100FB01F668690028A8
:102F200000F0A180301A9FED530A01EE100AB8EEAE
:102F3000411A6E6181EE00EAB5EE40EAF1EE10FA58
:102F400000F0928001F0BEF9DFF89075D7E91B40E0
:102F50007978D7ED1DAA0029C7E91840C7ED1AAA4C
:102F600000F08C800020B870A86908B93046AE61C6
:102F7000B7F90E10B7F90A20B7F90C3095ED190A18
:102F800097ED096A95ED1A1A97ED0A7A95ED1B2AC5
:102F9000D7ED0B0A95ED1C3A95ED1D4A95ED1E5A9D
:102FA00001EE903A02EE902A03EE901A36EE000AF5
:102FB00037EE011A30EE822A2F4AF8EEE11AF8EEC7
:102FC000E22AF8EEE33A85ED190A85ED1A1A85ED45
:102FD0001B2A33EE223A34EE214A35EE235A1044AE
:102FE00085ED1C3A85ED1D4A85ED1E5A8642A9885D
:102FF00001F10101A98037D989B2002000EE101A31
:10300000B8EE400A08E0291891ED1C1A391804306E
:1030100081EE001A81ED151A0C28F4D10020002150
:10302000A88003E06A180431106750660C29F9D1B2
:10303000DFF8AC144FF07E5200200A60C5E90200B0
:103040002861C5E90E00C5E91000A864C5E90600BD
:10305000C5E90800C5E90A00C5E90C004FF4807015
:10306000A7F8010000E06E61BDEC127B01B0BDE885
:10307000F08300BF0024744940420F00DFF86094E1
:10308000297897ED120A97ED131A97ED14FAD7EDF8
:103090001EFAD7ED1F9AD7ED20BA0EEE900A0CEE6D
:1030A000904A99ED01BAD9ED02DA002940F0C080CA
:1030B00080F000408DED010A8DED001A03F0F2FC66
:1030C00080461AEE900A0E4680F0004003F0EAFCBB
:1030D00041EC180B46EC108BB0EE481AF0EE681A73
:1030E00002F0A6F951EC100B02F0B0FF06462046A4
:1030F00003F0D8FCB0EE481A41EC100BF0EE681A61
:1031000002F096F951EC100B02F0A0FF08EE106AE5
:10311000DFF8D0830446B0EE480AC047F24EB0EE66
:10312000409AB0EE480AB047F0EE4B8A0BEE104AD8
:10313000B0EE40AAB0EE4B0AC047B0EE40CAB0EEC7
:103140004B0AB04709EE00CAB0EE4A0AF0EE4C0A4C
:1031500002F066FAB6EE00DAB0EE409A28EE0D8A7A
:10316000B0EE480AC047B0EE40AAB0EE480AB047F9
:103170002BEE0DBAB0EE408AB0EE4B0AC047B0EE6F
:1031800040CAB0EE4B0A29EE0D9AB047B0EE40BAF5
:10319000B0EE490AC047B0EE40DAB0EE490AB04797
:1031A00028EE0C1A28EE0B2A2AEE0C3A2AEE0B4ACD
:1031B0000120B0EE68BA21EE0D5A22EE006A21EE2F
:1031C000001A23EE007A287004EE405A03EE0D6ACE
:1031D00004EE0D1A02EE4D7A85ED025A25EE050A2F
:1031E00026EE062A26EE053A26EE014A85ED031A5A
:1031F00085ED047A61EE011A61EE072A9DED001A51
:1032000065EE070A67EE073A89ED006A85ED0B2A3D
:1032100085ED0C3A85ED0D4A85ED0E0A9DED010A0E
:10322000C5ED0F0AC5ED101AC5ED112AC5ED123A0C
:10323000F5EE40AA3BEECF9A39EEC1AA3FEEC08A26
:10324000F1EE10FA09D1F5EE40CAF1EE10FA04D110
:10325000F5EE40EAF1EE10FA73D02EEEAE0A0CEE67
:10326000AC0A0AEEAA0A01F071FD9FEDA01AB4EEB5
:10327000C10AF1EE10FA64DA95ED0C1A95ED114AD7
:1032800095ED0D2A95ED0F5A20EE2C3A31EE044AB9
:1032900035EE422A20EE2E5A23EE041A05EE421A8B
:1032A000B5EE401AF1EE10FA4BD095ED0B6ABEEE7A
:1032B000007AD5ED120A36EE076A2AEE807A36EEEB
:1032C000206A25EE060A07EE440AB5EE400AF1EE42
:1032D00010FA36D027EE022A03EE462AB5EE402A2F
:1032E000F1EE10FA2DD0F5EEC0DAF1EE10FA1EDD97
:1032F00095ED133A95ED144A95ED155A2DEE816A28
:103300002DEE827A6DEE800A0EEE203A0EEE065A0F
:103310000EEE074A85ED133A85ED144A39EE059A0B
:103320003AEE04AA38EE038A85ED155A03E0002030
:10333000C5E9130068650BEE019A0BEE02AA0BEECD
:10334000008A99ED001A95ED033A95ED022A95ED64
:10335000044AF6EE000A28EE010A2AEE035A2AEE83
:10336000016A29EE017A09EE030A18EE425A09EEC3
:10337000426A0AEE027A0AEE440A09EE445A08EE5C
:10338000046A08EE437A60EE201A25EE205A26EEF3
:10339000206A27EE207A0EEE212A0EEE051A0EEE96
:1033A000063A0EEE074A85ED075AC5ED081A85ED77
:1033B000096A85ED0A7A22EE020A85ED022A85ED78
:1033C000033A89ED001A85ED044A01EE010A03EE85
:1033D000030A04EE040A01F0B9FC95ED021A99ED16
:1033E000004A95ED032A95ED043A20EE01AA20EE5D
:1033F00004BA20EE03CA20EE02DA2AEE0AEA2BEE25
:103400000BFA2DEE0C0A2BEE0A1A6DEE0D8A85EDE5
:1034100002AA85ED03DA85ED04CA2BEE0D2A2AEE09
:103420000C3A6CEE0C9A89ED00BA3FEE4E4A85EDEF
:103430000BFA85ED0C1A31EE005A85ED0D2A85ED5B
:103440000EEA85ED0F3AC5ED108A85ED110AC5ED3E
:10345000129A33EE429A34EE681A35EE050A71EE8E
:10346000290A02F0DDF8B0EE408A39EE090A01F0CF
:10347000DDFD3FEE0E1AB0EE409A2BEE0C0A0AEE7E
:103480000D0A31EE681A30EE000A71EE690A02F098
:10349000C7F89FED171A9FED172A9FED173AB1EE67
:1034A000495A29EE024A20EE022A28EE011AB1EE0C
:1034B000400A81EE031A84EE034A82EE032A87ED66
:1034C0002E1A87ED2F4A87ED302A87ED318A87ED56
:1034D000325A87ED330AC7E5600300203007002029
:1034E0000C00002071580008D5590008D9510B3E36
:1034F00000003443000034C3DB0F4940B0B51C4C1E
:103500000020002102E06218043190650C29FAD1F4
:10351000324D16E000F0D6FE00200AE029182218ED
:10352000043092ED160A91ED091A31EE000A82ED8F
:10353000160A0C28F2D16088013060800220FDF765
:1035400077FD618888084A28E4D900EE101A002027
:10355000B8EE400A0C2804BF0120B0BD211891ED3F
:10356000161A2918043081EE001A81ED121AF1E7BB
:103570006003002080B52DED048B9FED198AB2EE1B
:10358000049A16480121F0EE490AB0EE480A81700B
:10359000018000F053F9B0EE480AF0EE490A00F05D
:1035A00091F9B0EE480AF0EE490A00F0D1F9B0EE18
:1035B000480AF0EE490A00F011FAB0EE480AF0EEBF
:1035C000490A00F051FAB0EE480AF0EE490ABDECA3
:1035D000048BBDE8804000F08DBA00BF30070020AA
:1035E00000007A44D94890ED001AB5EEC01AF1EE09
:1035F00010FAD8BF704790ED044A90ED066AF0EEDD
:10360000400A90ED055A90ED077A90ED011A90ED81
:10361000022A90ED033A46EE440A47EE450A10EEC0
:10362000901A01F0FF41B1F1FF4F08BFF0EE400AE0
:1036300021EE200AC0ED060A80ED076A06EE020AB6
:1036400007EE030A704700BFE34890ED081AB5EE95
:10365000C01AF1EE10FAD8BF704790ED0C4A90ED09
:103660000E6AF0EE400A90ED0D5A90ED0F7A90ED53
:10367000091A90ED0A2A90ED0B3A46EE440A47EEFD
:10368000450A10EE901A01F0FF41B1F1FF4F08BF5B
:10369000F0EE400A21EE200AC0ED0E0A80ED0F6A1E
:1036A00006EE020A07EE030A704700BFED4890EDF0
:1036B000101AB5EEC01AF1EE10FAD8BF704790EDAF
:1036C000144A90ED166AF0EE400A90ED155A90ED0E
:1036D000177A90ED111A90ED122A90ED133A46EEFA
:1036E000440A47EE450A10EE901A01F0FF41B1F18D
:1036F000FF4F08BFF0EE400A21EE200AC0ED160A87
:1037000080ED176A06EE020A07EE030A704700BF53
:10371000D44890ED181AB5EEC01AF1EE10FAD8BFE1
:103720007047F34990ED1C4A90ED1E6AF0EE400A96
:1037300090ED1D5A90ED191A90ED1A2A90ED1B3A52
:1037400091ED007A46EE440A47EE450A10EE902AC3
:1037500002F0FF42B2F1FF4F08BFF0EE400A81EDE8
:10376000006A21EE200AC0ED1E0A06EE020A07EEEC
:10377000030A7047DE4890ED011AB5EEC01AF1EE6B
:1037800010FAD8BF704790ED054A90ED076AF0EE49
:10379000400A90ED065A90ED087A90ED021A90EDED
:1037A000032A90ED043A46EE440A47EE450A10EE2D
:1037B000901A01F0FF41B1F1FF4F08BFF0EE400A4F
:1037C00021EE200AC0ED070A80ED086A06EE020A23
:1037D00007EE030A704700BFE84890ED091AB5EEFE
:1037E000C01AF1EE10FAD8BF704790ED0D4A90ED77
:1037F0000F6AF0EE400A90ED0E5A90ED107A90EDBF
:103800000A1A90ED0B2A90ED0C3A46EE440A47EE68
:10381000450A10EE901A01F0FF41B1F1FF4F08BFC9
:10382000F0EE400A21EE200AC0ED0F0A80ED106A8A
:1038300006EE020A07EE030A704700BF80B52DEDC1
:10384000028BB0EE608A9FED1D1A80EE080A81EEB1
:10385000000A02F087F98348B5EEC08AF1EE10FA4B
:1038600080ED008A27DD9FED161AB7EE002ABFEE25
:10387000004A20EE011A20EE000A31EE023A30EE44
:10388000044A32EE411A30EE033A34EE044A80EE36
:10389000032A30EE010A84EE034A32EE021A80EE69
:1038A000030A80ED012A80ED021A80ED032A80EDE3
:1038B000044A80ED050ABDEC028B80BDDB0F494058
:1038C000F304B53F80B52DED028BB0EE608A9FED1D
:1038D0001D1A80EE080A81EE000A02F043F96148E1
:1038E000B5EEC08AF1EE10FA80ED088A27DD9FED73
:1038F000161AB7EE002ABFEE004A20EE011A20EE9B
:10390000000A31EE023A30EE044A32EE411A30EE4D
:10391000033A34EE044A80EE032A30EE010A84EEC4
:10392000034A32EE021A80EE030A80ED092A80ED86
:103930000A1A80ED0B2A80ED0C4A80ED0D0ABDECD1
:10394000028B80BDDB0F4940F304B53FD00100205E
:1039500080B52DED028BB0EE608A9FED1D1A80EED2
:10396000080A81EE000A02F0FDF83E48B5EEC08A72
:10397000F1EE10FA80ED108A27DD9FED161AB7EEF2
:10398000002ABFEE004A20EE011A20EE000A31EEB6
:10399000023A30EE044A32EE411A30EE033A34EE87
:1039A000044A80EE032A30EE010A84EE034A32EE26
:1039B000021A80EE030A80ED112A80ED121A80EDC2
:1039C000132A80ED144A80ED150ABDEC028B80BDF0
:1039D000DB0F4940F304B53FD001002080B52DED49
:1039E000028BB0EE608A9FED1D1A80EE080A81EE10
:1039F000000A02F0B7F81B48B5EEC08AF1EE10FAE3
:103A000080ED188A27DD9FED161AB7EE002ABFEE6B
:103A1000004A20EE011A20EE000A31EE023A30EEA2
:103A2000044A32EE411A30EE033A34EE044A80EE94
:103A3000032A30EE010A84EE034A32EE021A80EEC7
:103A4000030A80ED192A80ED1A1A80ED1B2A80EDF9
:103A50001C4A80ED1D0ABDEC028B80BDDB0F494086
:103A6000F304B53FD001002080B52DED028BB0EE00
:103A7000608A9FED1D1A80EE080A81EE000A02F0AE
:103A800071F83E48B5EEC08AF1EE10FA80ED018A79
:103A900027DD9FED161AB7EE002ABFEE004A20EE92
:103AA000011A20EE000A31EE023A30EE044A32EEFC
:103AB000411A30EE033A34EE044A80EE032A30EE27
:103AC000010A84EE034A32EE021A80EE030A80ED08
:103AD000022A80ED031A80ED042A80ED054A80ED6C
:103AE000060ABDEC028B80BDDB0F4940F304B53FF5
:103AF0001003002080B52DED028BB0EE608A9FEDA3
:103B00001D1A80EE080A81EE000A02F02BF81B480D
:103B1000B5EEC08AF1EE10FA80ED098A27DD9FED3F
:103B2000161AB7EE002ABFEE004A20EE011A20EE68
:103B3000000A31EE023A30EE044A32EE411A30EE1B
:103B4000033A34EE044A80EE032A30EE010A84EE92
:103B5000034A32EE021A80EE030A80ED0A2A80ED53
:103B60000B1A80ED0C2A80ED0D4A80ED0E0ABDEC9B
:103B7000028B80BDDB0F4940F304B53F10030020EA
:103B800090ED050A90ED061A9FED132A30EE413AAA
:103B9000B4EEC23AF1EE10FA02DD4FF0FF3107E069
:103BA00031EE401AB4EEC21AF1EE10FA04DD012132
:103BB00002681144016000E001684FF4B47251439F
:103BC00001EE101AB8EEC11A80ED060A30EE011AA5
:103BD00080ED071A704700BF000034430649D1F852
:103BE000BC20C260D1F8B820026191ED300AB1EE7C
:103BF000400A80ED050A704730070020BCB5002060
:103C00005649594C01900A6842F400120A600A6849
:103C100002F400120192019A00900868002240F418
:103C2000800008600868002100F48000009000987F
:103C30001120A0474D4D1120A8474520002100220A
:103C4000A0474520A847462000210022A047462043
:103C50002946BDE8BC4008472DE9F04F87B0002455
:103C60003E4800224FF4C04706940194016841F099
:103C700004010160016801F00401019101990194BE
:103C8000016841F080010160016801F0800101914B
:103C900001990194016841F001010160016801F09E
:103CA0000101019101990194016841F00201016053
:103CB0004FF4C041006800F00200019001982848CC
:103CC00000F5006683463046FDF7B6FA0BF58065D1
:103CD00041F20431002241F204392846FDF7ACFAE2
:103CE0004FF00108DFF87CA03046CDE9027802AF42
:103CF000CDE904443946D04742F203004FF404169C
:103D0000394602902846CDE90368D047284639460F
:103D1000CDE90298CDE90444D0474FF40140039621
:103D2000394602905846CDF81080D0470E4C0620F8
:103D300000210022A0470D4D0620A84707200021A2
:103D40000022A0470720A847282001210022A047E1
:103D50002820A84707B0BDE8F08F00BF30380240E8
:103D600000000240991000081D130008011300080C
:103D700080B50E480E4A4FF4827100234FF4007C48
:103D8000C0E900210A21C0E90233C0E90433C0E9D7
:103D900006C3C0E90833C0E90A31FDF791FD0028E8
:103DA00014BFBDE8804080BDFCF761BF94040020D3
:103DB0000030014080B50E480E4A4FF48271002356
:103DC0004FF4007CC0E900210A21C0E90233C0E9B8
:103DD0000433C0E906C3C0E90833C0E90A31FDF77E
:103DE0006FFD002814BFBDE8804080BDFCF73FBFD9
:103DF000EC0400200038004010B58EB0002401A86B
:103E00001C21CDE90C44CDE90A44CDE90844FCF776
:103E100068FBBD484FF0804140F2E732C0E9001432
:103E2000C0E9024204618461FDF7ECFF08B1FCF7D0
:103E30001EFF4FF480500AA90A90B348FEF76EF8AF
:103E400008B1FCF714FFB048FEF785FB08B1FCF79A
:103E50000EFFAD48002408A9CDE90844FDF79AFFFC
:103E600008B1FCF704FF6020029401A90022019030
:103E7000A54803940594FEF721FB08B1FCF7F7FE73
:103E8000A14801A90422FEF719FB08B1FCF7EFFED7
:103E90009D48FEF7E7FA0EB010BD00BF10B58CB01C
:103EA0009748144A00244FF6FF718461C0E900244A
:103EB000C0E9024103210461CDE900440494039167
:103EC0000121CDE90514CDE90744CDE9091403A981
:103ED0000B94FEF79FF808B1FCF7C9FE88486946C5
:103EE000CDE90044FDF756FF08B1FCF7C0FE0CB069
:103EF00010BD00BF0004004010B58CB08148144ACA
:103F000000244FF6FF718461C0E90024C0E902413A
:103F100003210461CDE90044049403910121CDE91A
:103F20000514CDE90744CDE9091403A90B94FEF764
:103F300071F808B1FCF79BFE72486946CDE9004470
:103F4000FDF728FF08B1FCF792FE0CB010BD00BFD2
:103F500000080040FEB56948164B002140F2E73CDE
:103F600040F24732CDE90411CDE902118161C0E987
:103F70000032C0E9021C0161CDE90011FDF742FFEA
:103F800008B1FCF774FE4FF4805002A902905B4820
:103F9000FDF7C4FF08B1FCF76AFE00206946CDE9D1
:103FA00000005648FDF7F6FE08B1FCF760FE06B0CB
:103FB00080BD00BF000C004080B50C480C4A4FF497
:103FC000E13100234FF00C0CC0E90021C0E90233BD
:103FD000C0E9043CC0E90633FEF7C4FD002814BF65
:103FE000BDE8804080BDFCF742BE00BF64060020F3
:103FF0000010014080B50C480C4A4FF4E131002319
:104000004FF00C0CC0E90021C0E90233C0E9043CC8
:10401000C0E90633FEF7A6FD002814BFBDE88040C6
:1040200080BDFCF724BE00BFA8060020004400406D
:1040300080B50C480C4A4FF4E13100234FF00C0CD2
:10404000C0E90021C0E90233C0E9043CC0E90633FD
:10405000FEF788FD002814BFBDE8804080BDFCF756
:1040600006BE00BFEC06002000140140FEE7000081
:1040700070B56548042101220126FDF7DDF81F48CF
:10408000FDF71AFF1E4C1F4D2068C16841F0010169
:10409000C1602868C16841F00101C16020463C212F
:1040A000FEF778F828463C21FEF774F820463C21BC
:1040B000FEF7BEF828463C21FEF7BAF8124C002164
:1040C00000252046FEF776FA20460421FEF772FA14
:1040D0000E480F49C565C1E90065C1E902550D618A
:1040E000C1E9075581F82C50C0E91055C0E91255B7
:1040F0000565056680F86C5070BD00BF1C06002089
:104100008C050020D40500204405002080000020FC
:104110008002002070B500680C4648B1012818BF25
:1041200070BD374EB4F57A7F14DD4FF47A742AE00F
:10413000334EB4F57A7F1FDD4FF47A74324D4FF46D
:10414000807101222846FDF777F828464FF4007168
:1041500000223AE014F57A7F13DA2A4C2A484FF409
:104160000051012200F580652846FDF765F82846D4
:104170004FF48041002213E014F57A7F14DA214CC9
:1041800018E0012C35DB20484FF40051002200F5E7
:1041900080652846FDF750F828464FF480410122FB
:1041A000FDF74AF8043612E0B4F1FF3F02DD002CBF
:1041B000C4D122E0144D4FF4807100222846FDF74F
:1041C0003BF828464FF400710122FDF735F800EE68
:1041D000104AB8EEC00A10EE100A02F063FC41EC7F
:1041E000100B01F0EDFB51EC100B02F0A9F930605F
:1041F00070BDB4F1FF3FB1DD04360024E7E700BF36
:104200003400004018FCFFFF0004024010B50446D3
:1042100094F82C0000B110BDD4ED070A94ED0A0A01
:10422000084600F00BF8BDEEC00A204610EE101A4A
:10423000BDE81040FFF76EBFFEE7000090ED052AD5
:1042400030EE601A31EE020A9FED182A80ED050A61
:1042500080ED061AB4EEC20AF1EE10FA06DDB0EEF9
:10426000420A1249B0EE402A41610AE09FED102A4D
:1042700080ED050AB4EEC20AF1EE10FAA8BFB0EE66
:10428000402A90ED010A90ED075A90ED003A90ED2A
:10429000024A80ED052A80ED071A22EE000A31EE6F
:1042A000455A01EE030A04EE050A70478096184B42
:1042B000809618CB80B5A0EC030A1821FCF711F901
:1042C00080BD704710B500F0FDFD4848484CB0F97E
:1042D0000C10B0F90A20B0F9083094ED151A94EDDD
:1042E000162A94ED173A00EE103A04EE102A05EE65
:1042F000101AB8EEC00AB8EEC44AB8EEC55A016842
:1043000030EE410A34EE421A35EE432A9FED3C3A34
:104310009FED3C4ABDEEC00ABDEEC11ABDEEC22AF9
:10432000808861600021208110EE100A9FED310A23
:10433000608111EE100A9FED301AA08112EE100A72
:104340009FED2E2AE08104F10A001CE030F9062CD2
:1043500005EE102A62180431B8EEC55A25EE005A4F
:1043600025EE015A82ED065AB0F90030023005EE12
:10437000103AB8EEC55A25EE025A25EE035A85EEDC
:10438000045A82ED095A0C29E0D194ED060A94ED05
:104390000F1A30EE410AFFF725F984ED1B0A94ED60
:1043A000070A94ED101A30EE410AFFF74DF984ED3B
:1043B0001C0A94ED080A94ED111A30EE410AFFF739
:1043C00075F984ED1D0A94ED090AFFF7A1F984ED52
:1043D0001E0A94ED0A0AFFF7CDF984ED1F0A94ED49
:1043E0000B0AFFF7F9F984ED200A10BD5E020020E8
:1043F00030070020000080390AE81C4100007A3DA7
:10440000DB0F49400000344310B5044694460A4689
:104410006068B0F5827F0ED1A068B0F5004F02D081
:10442000B0F5806F0AD12168B0F5806F0B6823F07A
:1044300040030B6002D12046012101E0204680218B
:10444000634600F039F828B1606D40F020006065E7
:10445000032000E00020C0B210BD00001CB50446DF
:10446000404813460A4613490068B0FBF1F04FF488
:104470007A7110FB01F001906068B0F5827F0AD17B
:104480002046802100F018F878B1606D40F02000DF
:10449000606503200AE0019838B101980138019065
:1044A0002068806810F0800FF5D10020C0B202B003
:1044B00010BD00BF00366E012DE9FC411E461746B7
:1044C0000D460446FCF7BEFE301AC619FCF7BAFECC
:1044D0008046244801370068C0F3CB307043019018
:1044E0000DE067B1FCF7AEFEA0EB0800B04210D2C1
:1044F0000198019901390028019108BF06462068FA
:1045000080682840A842ECD00020C0B202B0BDE8CC
:10451000F0812068416821F0E00141606168B1F5F7
:10452000827F0AD1A168B1F5004F02D0B1F5806F4A
:1045300003D1016821F040010160A16AB1F5005F7B
:1045400007D1016821F400510160016841F4005174
:104550000160002084F85000012084F851000320FD
:10456000D3E700BF18000020704780B5012000F09D
:10457000E9F9BDE88040FCF769BE0000B0B592B033
:10458000002401A81421CDE90A44CDE90844FBF731
:10459000A8FF214800940225016841F08051016084
:1045A000006800F080500090009800941B4801685B
:1045B00065F38F310160006800F44040009000987E
:1045C0004FF480300790012006904FF480000C9546
:1045D0000D9019200E90A820CDE90F050420119010
:1045E00006A8FCF7B7FF18B1EFF3108072B6FEE72C
:1045F0000F200295022101904FF480500394CDE9E1
:10460000040401A8FCF7C6FE18B1EFF3108072B6DF
:10461000FEE712B0B0BD00BF40380240007000405D
:104620000248016841F470010160704788ED00E0C4
:104630000148FDF75DBE00BF8C0500200148FDF775
:1046400057BE00BFD40500200148FDF751BE00BF92
:104650001C06002010B503687E4AB0F1804F13D0CD
:10466000164CA04210D0164CA0420DD0154CA042C2
:104670000AD0154CA0420BD0144CA04208D0144CC8
:10468000A04205D0904207D14C6823F07003234329
:10469000CC6823F4407323434C6923F08003904299
:1046A00043EA040303608B68C3620B68836204BF40
:1046B000096911630121416110BD00BF0004004080
:1046C00000080040000C004000480140004001404C
:1046D0000044014001F01F01012303FA01FC036AB9
:1046E00002FA01F123EA0C030362026A1143016238
:1046F0007047000070B5026A22F001020262036A8C
:10470000D0F804E08269D1F800C08C6822F073020E
:1047100023F002034CEA020C4E4A234390420CD190
:10472000CE68D1E905452EF44072224342EA050ED7
:1047300023F00C0226F004031343C0F804E0C0F891
:1047400018C049684163036270BD00BF70B5026A5A
:1047500022F010020262026AD0F804E08369D1F804
:1047600000C08C6823F4E64322F0200243EA0C2CBC
:10477000384B42EA041298420FD1CE68D1E9054580
:104780002EF4406322F0C00243EA840343EA850E1C
:104790006FF04F0303EA06131A43C0F804E0C0F8B1
:1047A00018C049688163026270BD00BF70B5026ABB
:1047B00022F480720262026AD0F804E0C369D1F880
:1047C00000C08C6823F0730322F400724CEA030CDF
:1047D000204B42EA042298420FD1CE68D1E9054528
:1047E0002EF4405322F4406243EA041340F2FF44A3
:1047F00043EA051E3302A3431A43C0F804E0C0F89D
:104800001CC04968C163026270BD00BFB0B5026AD6
:1048100022F480520262D0F820C0D0F804E0C569CA
:104820008A680C682CF4005343EA023C094B25F4D7
:10483000E64242EA0422984204D14B692EF48045B4
:1048400045EA831EC0F804E0C26149680164C0F80B
:1048500020C0B0BD00000140D0F820C0036A23F0A2
:1048600001030362836923F0F00343EA02128261C9
:104870002CF00A02114301627047036A23F010030F
:104880000362836923F4704343EA0232036A82615C
:1048900023F0A00242EA011101627047FEE7000026
:1048A00070B52B4D002605F1080020E0207C022881
:1048B0001CD0012811D060B9E1686868411A00294C
:1048C00014DBD4E9052110440029E06001D08847B9
:1048D0000CE02046FFF7E2FF08E0E1686868411A53
:1048E000002903DB267461690844E060201D046828
:1048F000002CDBD170BD00BF48B1DFF854C0DCF83C
:10490000083033B1DCF80C305860036005E0012357
:1049100015E000230360CCF8080080B5CCF80C004B
:104920009CF800E00EF101038CF8003000230374C2
:1049300080F808E0C0E90512C160BDE88040184673
:10494000704700BF02494A6810444860704700BF82
:10495000B0010020B0B5EE4D612105F203342046D0
:10496000FBF72AFD20B10130FBF703FDC5F80C046D
:1049700020466221FBF720FD20B10130FBF7F9FC56
:10498000C5F81004B0BD00BF806B0021C185C18493
:10499000FDF79ABF10B5846B206850F8141F94F887
:1049A0003D20212A09D111F0800106D00020E084A9
:1049B000204600F061F820681430006894F83E103A
:1049C000222907D110F0400004D00020E0852046C5
:1049D00000F02BF8206C40F0100020642046BDE869
:1049E0001040FDF771BF0168806B096811F4807F8A
:1049F00018BFFEF783BA0021C184016851E8051F82
:104A0000026821F0800142E80513002BF5D101680E
:104A100051E8031F026841F0400142E80313002BF4
:104A2000F5D17047806BFEF76ABA016851E8031F41
:104A3000026821F4907142E80313002BF5D101685C
:104A400051E8051F026821F0010142E80513002B1F
:104A5000F5D1016B012909D1016851E8031F0268F2
:104A600021F0100142E80313002BF5D1202180F83A
:104A70003E10002101637047016851E8031F02687E
:104A800021F0C00142E80313002BF5D1202180F86A
:104A90003D10704790F83E10222918BF7047826879
:104AA000B2F5805F03D1016979B1816A05E0816A5D
:104AB0000AB902690AB17F2200E0FF2203685B683D
:104AC0001A400A700122816A06E00268816A52680F
:104AD0006FF35F220A80022211444FF6FF72816257
:104AE000C18D01391142C18500D070470168CA6883
:104AF00022F02002CA60CA6822F48072CA604A6941
:104B000022F001024A61202280F83E20026B012A35
:104B100018BFFEF75DB90022026351E8031F026867
:104B200021F0100142E803130168002BF5D10A6857
:104B300012F0100F08D081B0002200920A68009293
:104B400049680091009901B0818DFDF7BCBE00005D
:104B5000B0B5044649F20C6520680169E26821F4A9
:104B6000405111430161D4F808C0D4E90423D4F8BA
:104B70001CE0C16842EA0C02A9431A4342EA0E0251
:104B80001143C1604169A26921F44071114341613F
:104B9000214940F48060884202D1FCF79DFC01E08D
:104BA000FCF790FCE26919216368A0FB0101B2F5F2
:104BB000004F16D15A00DB0FFBF764FB64216FF046
:104BC0006303B0FBF1F202FB0300322303EBC000EE
:104BD000B0FBF1F14FF4F87000EA410001F0070179
:104BE00013E09A009B0FFBF74DFB64216FF063030A
:104BF000B0FBF1F202FB0300322303EB0010B0FB29
:104C0000F1F101F0F00001F00F0100EB0210084398
:104C100021688860B0BD00BF001401400023C28538
:104C2000036482858162222180F83C3080F83E1046
:104C30000068C16841F48071C160416941F00101BF
:104C40004161C16841F02001C1600020704700004F
:104C50008C48FDF73BBE00BF7B48FDF737BE00BF69
:104C6000FEE700000000000070B5784C2046FFF71A
:104C700071FED4F80C04824EF070C0B204280AD140
:104C8000D4F81014642291FBF2F100EE101AB8EE81
:104C9000C00A86ED040A032805D002282FD1D4F8D3
:104CA0001004706070BD04F5826090ED000AB8EEEB
:104CB000C00A10EE100A86ED020A01F0F3FE41EC84
:104CC000100B00F07DFE9FED0E1B54EC105B284690
:104CD000214653EC112B01F010FF10B10D48C6F81E
:104CE000C8009FED090B2846214653EC102B01F01C
:104CF00004FF002808BF70BD0748C6F8C80070BD93
:104D00000000000000805640000000000080664067
:104D10001C0A0020CDCC4C3E54E3253E03490A68D2
:104D200012F0400FFBD0C2B24A6070470010014041
:104D300010B5FEF7E7F8044C2046FEF74FFF20467B
:104D4000BDE81040FEF71CBF2408002084B0B6EE7A
:104D5000001A4FF07F5020EE011A009012488DED9E
:104D6000021A8DED010A8DED030A0399A0EB610093
:104D70000390019001989DED000A9DED021A0199A2
:104D8000019A02EE101A03EE100A21EE021A02EE48
:104D9000102A01EE420A20EE030A8DED010A019865
:104DA00000EE100A04B07047865A375FB0B5FCF7C2
:104DB00053FAFFF7E3FBFEF74FFFFEF71FFFFFF786
:104DC0001BF8FFF7F9F8FFF715F9FFF731F9FEF7D0
:104DD000CFFFFFF763F8FFF78FF8FFF7BBF8FEF799
:104DE000E9FF00F055F8FEF7C5FBFEF787FB012849
:104DF000FBD1104C104A114D4FF0FF31201DA84738
:104E00000F4A04F120004FF0FF31A8470D4A04F18A
:104E10003C004FF0FF31A8470B480C490122FDF739
:104E2000BFFF1748FBF72CFDFCF70CFA2060FFF7DB
:104E300037FDFCE7F0000020514E0008F94800085B
:104E4000314D0008694C0008EC0600201C0A0020C7
:104E500010B50B4C2078022806D10A480AA103227B
:104E6000FEF708F800202070A078022818BF10BDB7
:104E7000044806A10322FDF7FDFF0020A07010BD2D
:104E80004408002064060020310A0000320A0000B5
:104E9000B0B50B4D00240AE005EB440015F81410E2
:104EA000407800F063F80520FCF7C2F80134082CC4
:104EB000F2D14FF4FA70BDE8B040FCF7B9B800BFCA
:104EC000C86C000810B5154C3B200E22214600F09E
:104ED00027F820786178A278E37841EA0020E08121
:104EE00043EA022020822079617941EA0020608231
:104EF000207A617A41EA0020E082A07AE17A41EAF0
:104F000000202083207B617B41EA00206083A07920
:104F1000E17941EA0020A08210BD00BF50020020CC
:104F2000F8B5294C15460E4607464FF4805100222D
:104F30002046FCF781F9254947F08000244F0123E2
:104F40000A4602F8010B052000903846FCF71CFECB
:104F5000384631462A460523FCF774FD20464FF4B7
:104F600080510122BDE8F840FCF766B92DE9F8430D
:104F7000064615480D464FF4805100228146FCF745
:104F80005BF906F07F00114E114C4FF064080123CD
:104F90003746314607F8010B2046CDF800803A46E7
:104FA000FCF7F2FD204631463A4601233570CDF834
:104FB0000080FCF7E9FD48464FF480510122BDE82E
:104FC000F843FCF739B900BF000402405403002045
:104FD000EC04002003B401984100009850EAC1207D
:104FE00018BF04204A0D18BF40F0010040F2FF72C4
:104FF000B2EB515F08BF40F00200012808BF052056
:1050000002B070474100080218BF04200A0E18BF02
:1050100040F001004FF07F4232EA010108BF40F04A
:105020000200012808BF05207047000010B54FF0AE
:105030000E402DED028BB0EE408A18EE104A00EBC8
:105040004400B0F1506F4AD84FF0FC40B0EB440F31
:1050500022D2B0EEC80AF7EE000A30EEC00AF6EE31
:10506000000A60EE208A18EE900A00F0ADFF01EE13
:10507000100A14F0004F1DBFDFED2D0A9FED2D0A21
:10508000B1EE411ADFED2C0A08BF9FED2C0AF8EEB5
:10509000001A21EE218A05E0DFED290A68EE088A70
:1050A000B0EE600A9FED271ADFED271A30EE080AEE
:1050B00048EE811A9FED251A08EEA11ADFED241A99
:1050C00048EE811A9FED231A08EEA11A68EE281AFD
:1050D000BDEC028B01EE810A30EE200A10BD4FF0CC
:1050E000E440B0EB440F0CD918EE100AFFF78AFF2A
:1050F000042808BF00F0A2FEB0EE480ABDEC028B07
:1051000010BD4FF07F40B0EB440F07D2B0EE480A1D
:10511000BDEC028BBDE8104000F082BE0120FBF721
:1051200014FABDEC028BBDE8104000F07FBE000019
:105130000000C9BF22AAFDB90000C93F22AAFD395B
:105140000000000024FE1C3DC78AD83C1E67383D85
:105150001B93993DAFAA2A3E70B59B482DED020BDB
:105160002DED068B079D25F00044A04218DC9748E2
:10517000844202DC0AD1069840B19DED060BBDECDD
:10518000068B02B0BDE8704000F026BE002DCCBFFB
:105190009FED8F0B9FED900BBDEC068B02B070BDA9
:1051A0008F48A04215DD8F48A042D8BF4FF0FF3492
:1051B00058DD9DED060B51EC100BFFF70BFF04289B
:1051C00008BF00F01DFE9DED060BBDEC068B02B086
:1051D00070BD9DED060B51EC100B00F0E9FECDE922
:1051E000060181489FED828BA0423CDD8248A042AF
:1051F0001FDD00249FED82AB9DED060B53EC1A2BB7
:1052000051EC100B00F054FF9DED060B41EC190B17
:1052100053EC1A2B51EC100B01F050FA53EC182BF5
:1052200001F056FB53EC192B00F0F6FFCDE9060117
:1052300049E09DED060B012453EC182B51EC100BAB
:1052400000F036FF9DED060B41EC190B53EC182BCB
:1052500051EC100B01F03CFB53EC192B00F0DCFF80
:10526000CDE906012FE06848A0421FDD02249FED32
:10527000689B9DED060B53EC192B51EC100B01F0C4
:105280001DFA53EC182B00F013FF9DED060B41ECBB
:10529000180B53EC192B51EC100B01F019FB53ECCC
:1052A000182B00F0B9FFCDE906010CE09DED060BCF
:1052B000032453EC102B9FED580B51EC100B00F016
:1052C000ABFFCDE906019DED060B53EC102B51EC25
:1052D000100B01F0F3F941EC180B53EC182B01F013
:1052E000EDF941EC190B4E480621B0EE490AF0EEFB
:1052F000690A784400F0F4FC53EC182B51EC100BC5
:1053000001F0DCF941EC180B4648B0EE490AF0EE2A
:10531000690A0521784400F0E3FC53EC192B51ECA9
:10532000100B01F0CBF941EC100B51EC180B53ECC6
:10533000102B002C0EDA00F0BBFE9DED061B53EC8B
:10534000112B01F0BBF99DED061B53EC112B01F065
:10535000B3FA35E000F0ACFE9DED061B53EC112BCB
:1053600001F0ACF941EC100B2F48784400EBC4007D
:1053700090ED001B51EC100B53EC112B01F0A8FA2F
:105380009DED061B53EC112B01F0A2FA41EC100B22
:105390002648784400EBC40090ED001B51EC100B44
:1053A00053EC112B01F088FA41EC100B002DA2BF39
:1053B000BDEC068B02B070BD51EC100B00F03AFE54
:1053C00041EC100B01E70000000010440000F07FEA
:1053D000182D4454FB21F93F182D4454FB21F9BFEB
:1053E0000000DC3F0000203E0000F33F0000000012
:1053F000000000000000F03F0000E63F0000000059
:105400000000000000000040008003400000000099
:10541000000000000000F83F000000000000F0BFA6
:105420006219000018190000A21800005A180000A4
:1054300070B56B4E2DED040B2DED028B82B0DDF8B7
:105440001CC0DDE905235C422CF000411C4341EA0D
:10545000D474049D22F00040B44205D86C422C4321
:1054600040EAD474B4420BD99DED061B9DED040BAC
:1054700002B0BDEC028B04B0BDE8704000F0B6BCD9
:10548000ACF14054A4F17F641C430BD0022404EA25
:10549000AC7444EAD27405439FED538B9FED542BBB
:1054A00007D015E09DED040B51EC100B00F078FDDA
:1054B00042E0002C11BF012C9DED040B02B0BDECAD
:1054C000028B04BF04B070BD022C38D0032C3BD03B
:1054D0000B439FED491B9FED4A0B0AD0B14218D1F7
:1054E000B04209D121F0804120F080400791059021
:1054F0000FE0002A15DA10E0434B7B44002C08BF74
:1055000093ED000B0DD0012C10D0022C17D0032CE2
:105510001AD0B0421DD1002A03DAB0EE410AF0EEF3
:10552000610A02B0BDEC028B04B070BD93ED000BBC
:1055300051EC100B00F07EFD41EC100BF1E7B0EEEA
:10554000480AF0EE680AECE7B0EE420AF0EE620AB2
:10555000E7E7401A00153C28C8BF8DED000B19DCA9
:10556000BCF1000FBEBF10F13C0F9FED290B8DED7C
:10557000000B0FDB9DED060B53EC102B9DED040B88
:1055800051EC100B00F048FE00F012FD00F008FD99
:10559000CDE90001002C08BF9DED000BC1D0012C0E
:1055A00010D0022C9FED1C0B53EC102B9DED000B2B
:1055B00051EC100B0DD001F08BF953EC182B01F0CE
:1055C00087F9B9E7019880F0004001909DED000B4C
:1055D000A7E701F07DF953EC182B01F06DF9ABE76B
:1055E0000000F07F00000000182D4454FB2109400A
:1055F000182D4454FB2109C0182D4454FB21F9BF38
:10560000182D4454FB21F93F8A17000000000000C8
:105610000000000000000000075C143326A6A13C37
:1056200010EE100A10B510EE901A4FF0684202EB1F
:1056300040032DED028BB3F1654F3CBF02EB4102FD
:10564000B2F1654F7CD200BFC0F3C753C1F3C7525C
:105650009A1A1B2A09DD10F0004F14BF9FED6E0A45
:105660009FED6E0ABDEC028B10BD12F11A0F1BDA12
:1056700011F0004F09D010F0004F0CBF9FED680AE9
:105680009FED680ABDEC028B10BD80EE208A18EEFB
:10569000100AFFF7B7FC042808BF00F0CFFBB0EEFC
:1056A000480ABDEC028B10BD4200B2EB410F37D966
:1056B00010F0004F19BFDFED5C1A9FED5C1ADFEDB3
:1056C0005C1A9FED5C1AB0EE602A0A46F1EE400AC1
:1056D00080F00041B0EE420A10460A1A5200B2F1C0
:1056E000807F34D2484010F0004FDFED532A9FED09
:1056F000533A1DBFBEEE002A71EEE21A31EE431A94
:10570000B6EE002A04BF71EEA21A31EE031AF0EED3
:10571000402A42EE602A40EE020A82EEA02A18E0F9
:1057200011F0004F04BF9FED461AF0EE411AD4D09D
:1057300010F0004F1CBFDFED431A9FED431A00E04D
:1057400026E004BFDFED411A9FED411AC5E780EE68
:10575000202A22EE020ADFED3F0ADFED3F2ABDECF0
:10576000028B40EE202ADFED3D0A40EE220ADFEDFB
:105770003C2A40EE202ADFED3B0A40EE220A22EED0
:10578000000A00EE201A31EE020A30EE210A10BDA6
:105790004FF07F42B2EB400F28BFB2EB410F05D272
:1057A000BDEC028BBDE8104000F03DBB40EA0103B8
:1057B0005B0008BF41F0FF410BD0B2EB400F08BFC8
:1057C000B2EB410F08D120F0804000EE100A21F02A
:1057D000804100EE901A37E7B2EB400F12BF5FEA4C
:1057E000410240F0FF4001F000413FF42DAF4A007C
:1057F00092EA40033FF528AF002AACBF9FED1A1A8A
:105800009FED1A1A20EE010A60EE810A10EE100ACE
:1058100010EE901A18E70000DB0FC9BFDB0FC93F7D
:10582000DB0F4940DB0F49C00000C9BF22AAFDB908
:105830000000C93F22AAFD390060ED3EC30ACE3701
:1058400000000000000049C022AA7DBA00004940C3
:1058500022AA7D3A2DAD65BD8FB8D53D0FB511BEDD
:1058600061C84C3EA8AAAABE0000804F0000802F4D
:1058700010EE101A08B5444A6846B2EB410F28D919
:105880004FF0E640B0EB410F94BF00204FF0FF30E7
:1058900000900098002861DB60EE000A10F0010F14
:1058A00045D010F0020FDFED391A9FED391A00EEE6
:1058B000A11ADFED381A40EE811A21EEA01AF0EE9F
:1058C000400A40EE010A08BFF1EE600AB0EE600A3D
:1058D00008BD314B21F0004293423CD911F0004FFA
:1058E000DFED2E0A20EE201ADFED2D0A19BF31EE72
:1058F000601A71EE200A31EE201A71EE600ABDEED8
:10590000E01A11EE100A9FED271A00F0030000EED6
:10591000C10A9FED251A009000EEC10A9FED231ADF
:1059200000EEC10A9FED221A00EEC10AB1E79FED19
:10593000211A9FED210A10F0020F00EE810A9FED5F
:105940001F1A00EE801AB7EE000A00EE810A18BF97
:10595000B1EE400A08BD00F079FA9AE710EE100A9D
:105960004000B0F17F4F3CBFB7EE000A08BD07D141
:105970004FF00100FAF7E9FDBDE8084000F056BA23
:10598000BDE8084000F04CBAB61F927E336D4CB9AA
:10599000DA82083CA0AA2ABE490E494683F9223F72
:1059A0000000004B0000C93F00A0FD390020A233D9
:1059B0001A61342CB93AB2BACA9F2A3DDDFFFFBE44
:1059C0002DED020B019820F0004001909DED000BA1
:1059D00002B0704700B510EE101A2DED028B81B0A9
:1059E000524A6846B2EB410F2ED94FF0E640B0EB79
:1059F000410F94BF00204FF0FF3000900098B0EEB0
:105A0000408A00286ADB10F0010F4BD068EE080ACC
:105A10009FED471A9FED470A00EE810A9FED461A57
:105A200010F0020F00EE801AB7EE000A00EE810AB5
:105A300002BF01B0BDEC028B00BD00BF01B0B1EEF2
:105A4000400ABDEC028B00BD3C4B21F0004293426A
:105A500041D911F0004FDFED3A0A20EE201ADFEDB8
:105A6000390A19BF31EE601A71EE200A31EE201AA0
:105A700071EE600ABDEEE01A11EE100A9FED321AC7
:105A800000F0030000EEC10A9FED301A009000EE16
:105A9000C10A9FED2F1A00EEC10A9FED2E1A00EEEB
:105AA000C10AABE728EE080A9FED2B1ADFED2B0A9F
:105AB00010F0020F40EE010A9FED291A00EE201AA5
:105AC00061EE000AB0EE480A08EE200AB6D101B035
:105AD000BDEC028B00BD00F0B9F98FE718EE100A9B
