:020000040800F2
:1000000028500024F90300082B1800086B1700087B
:100010002918000843060008B51A0008000000006F
:10002000000000000000000000000000390300088C
:100030004506000800000000950300083518000878
:100040001304000813040008130400081304000834
:100050001304000813040008130400081304000824
:100060001304000813040008130400081304000814
:100070001304000813040008130400081304000804
:1000800013040008130400081304000813040008F4
:1000900013040008130400081304000813040008E4
:1000A00013040008D91900081304000813040008F9
:1000B00013040008130400081304000813040008C4
:1000C00013040008130400081304000813040008B4
:1000D00013040008130400081304000813040008A4
:1000E00013040008130400080000000013040008B3
:1000F0001304000813040008130400081304000884
:100100001304000813040008130400081304000873
:100110001304000813040008130400081304000863
:100120001304000813040008130400081304000853
:100130001304000813040008130400081304000843
:1001400000000000000000000000000000000000AF
:100150001304000813040008130400081304000823
:100160001304000813040008130400081304000813
:100170001304000813040008130400080000000022
:1001800013040008130400081304000813040008F3
:1001900013040008130400081304000813040008E3
:1001A00013040008130400081304000813040008D3
:1001B00013040008130400081304000813040008C3
:1001C00013040008130400081304000813040008B3
:1001D00013040008130400081304000813040008A3
:1001E0001304000813040008130400081304000893
:1001F0001304000813040008130400081304000883
:100200001304000813040008130400081304000872
:100210001304000813040008130400081304000862
:100220001304000813040008130400080000000071
:100230001304000813040008000000001304000861
:100240001304000813040008130400081304000832
:100250001304000813040008130400081304000822
:100260001304000813040008130400081304000812
:100270001304000813040008130400080000000021
:100280001304000813040008130400080000000011
:10029000000000001304000800F002F800F03CF831
:1002A0000AA090E8000C82448344AAF10107DA45D1
:1002B00001D100F031F8AFF2090EBAE80F0013F0E7
:1002C000010F18BFFB1A43F001031847F833000071
:1002D00018340000103A24BF78C878C1FAD8520701
:1002E00024BF30C830C144BF04680C6070470000B0
:1002F0000023002400250026103A28BF78C1FBD82F
:10030000520728BF30C148BF0B6070471FB503F0CC
:100310005FF91FBD10B510BD00F059F91146FFF788
:10032000F5FF01F0D9FB00F077F903B4FFF7F2FF16
:1003300003BC00F07FF900002C4B19680868B0E896
:10034000F04F80F30988BFF36F8F4FF0000080F308
:10035000118870470000000008480068006880F3BA
:1003600008884FF0000080F3148862B661B6BFF3CE
:100370004F8FBFF36F8F00DF00BF00BF08ED00E0BD
:10038000DFF80C00016841F470010160704700BFA4
:1003900088ED00E0EFF30980BFF36F8F134B1A680D
:1003A0001EF0100F08BF20ED108A20E9F04F1060FA
:1003B00009B44FF0500080F31188BFF34F8FBFF3A3
:1003C0006F8F02F08BFB4FF0000080F3118809BCA7
:1003D00019680868B0E8F04F1EF0100F08BFB0ECC5
:1003E000108A80F30988BFF36F8F704724000024C0
:1003F000EFF305807047000009488047094800472F
:10040000FEE7FEE7FEE7FEE7FEE7FEE7FEE7FEE7C4
:10041000FEE7FEE704480549054A064B7047000021
:10042000FD18000899020008284A002428500024DA
:10043000284C0024284C0024032A40F2308010F07D
:10044000030C00F0158011F8013BBCF1020F62446F
:1004500098BF11F801CB00F8013B38BF11F8013B00
:10046000A2F1040298BF00F801CB38BF00F8013BAD
:1004700011F0030300F05780083AC0F0088051F8EB
:10048000043B083A51F804CBA0E80810F5E7121D28
:100490005CBF51F8043B40F8043BAFF30080D20747
:1004A00024BF11F8013B11F801CB48BF11F8012B13
:1004B00024BF00F8013B00F801CB48BF00F8012B36
:1004C000704702F0FF0343EA032242EA024200F0CF
:1004D0005EB84FF0000200B51346944696462039A8
:1004E00022BFA0E80C50A0E80C50B1F12001BFF4ED
:1004F000F7AF090728BFA0E80C5048BF0CC05DF853
:1005000004EB890028BF40F8042B08BF704748BFA0
:1005100020F8022B11F0804F18BF00F8012B704714
:1005200070477047704710B5203AC0F00B80B1E8B3
:100530001850203AA0E81850B1E81850A0E8185018
:10054000BFF4F5AF5FEA027C24BFB1E81850A0E821
:10055000185044BF18C918C0BDE810405FEA827C3B
:1005600024BF51F8043B40F8043B08BF7047D20752
:1005700028BF31F8023B48BF11F8012B28BF20F8F3
:10058000023B48BF00F8012B70474FF000020429DE
:10059000C0F0128010F0030C3FF49DAFCCF1040CBE
:1005A000BCF1020F18BF00F8012BA8BF20F8022BE6
:1005B000A1EB0C01FFF78FBF5FEAC17C24BF00F8FD
:1005C000012B00F8012B48BF00F8012B704775463E
:1005D00000F02CF8AE4605006946534620F00700AF
:1005E000854618B020B5FFF715FFBDE820404FF055
:1005F00000064FF000074FF000084FF0000B21F00D
:100600000701AC46ACE8C009ACE8C009ACE8C009D9
:10061000ACE8C0098D46704710B50446AFF30080C2
:100620002046BDE81040FFF780BE0000004870473C
:10063000C449002401491820ABBEFEE72600020091
:100640007047FEE7704700002DE9F84F03247D4D09
:1006500000234FF001094FF0B04B4FF00F0AE9E0D3
:1006600009FA03F73A4076D00E7906F00306012E18
:1006700001D0022E18D1D0F808C04FEA430ECE6840
:1006800004FA0EF82CEA080C06FA0EF646EA0C06F6
:100690008660D0F804C00E792CEA070CC6F3001669
:1006A0009E4046EA0C0646600E79F643B6070BD02C
:1006B000C6684FEA43088F6804FA08FC26EA0C066D
:1006C00007FA08F73743C7600E7906F00306022ED3
:1006D00012D1DE080F694FEA437C00EB8606B6466E
:1006E000366A4FEADC6C0AFA0CF807FA0CF726EACD
:1006F00008063743CEF820700F7906684FEA4308A2
:1007000007F0030704FA08FC07FA08F726EA0C06C4
:10071000374307604E6816F4403F1CD04A4E376896
:1007200047F00207376036689F0706F0020600961A
:1007300023F0030606F1B046B6463F0FD6F808642C
:10074000DFF808810AFA07FC404526EA0C0603D1C7
:100750004FF0000C41E06CE0DFF8F4C0604502D1DE
:100760004FF0010C39E0DFF8ECC0604502D14FF0EA
:10077000020C32E0DFF8E0C0604502D14FF0030C1C
:100780002BE0DFF8D8C0604502D14FF0040C24E024
:10079000DFF8CCC0604502D14FF0050C1DE0DFF85A
:1007A000C4C0604502D14FF0060C16E0DFF8B8C0B7
:1007B000604502D14FF0070C0FE0DFF8B0C0604594
:1007C00002D14FF0080C08E0DFF8A4C0604502D168
:1007D0004FF0090C01E04FF00A0C0CFA07FC4CEA50
:1007E000060CCEF808C44F68DBF80060FF0226EA6A
:1007F000020600D516435F46CBF80060D1F804C06E
:10080000DBF804605FEA8C2C26EA020600D516436A
:100810007E606E684F6826EA0206BF0300D5164365
:100820006E602E684F6826EA0206FF0300D5164365
:100830002E605B1C0A6832FA03F67FF411AFBDE844
:10084000F88F000080000058F4440258000002585D
:100850000004025800080258000C02580010025808
:100860000014025800180258001C025800200258B8
:10087000002402580069084000D0012070474269F6
:1008800021EA02030A4043EA0241816170470AB14A
:10089000816170470904FBE701480068000C70475C
:1008A0000010005C014880687047000010000024C0
:1008B000024881680278114481607047100000246A
:1008C000032010B500F0FAF800F0C4FA0F4A1049FE
:1008D00014681368C4F3032203F00F038A5CC95C35
:1008E00002F01F0201F01F01D0400A4A20FA01F174
:1008F0001160094908600F2000F010F808B10120CC
:1009000010BD00F09BF8002010BD000018440258F4
:1009100090360008200000241C00002410B5102888
:1009200004468AB02AD200220146192000F0A6F817
:10093000192000F095F8154804601548016841F049
:1009400001010160006808A900F0010009906846F3
:1009500000F01EFA00F06CFA0E49400000220E4C26
:10096000B0FBF1F10D4840F2E7330460C0E9033217
:10097000491EC0E9011200F0CDFD10B101200AB0FE
:1009800010BD064800F0F8FDF9E70000140000244F
:10099000F044025840420F0000000140A40000242F
:1009A000154BF0B5083B427813491A600B680A1FD3
:1009B00023F001030B6043681360057BC67A827ADB
:1009C000437B2D07847B45EA0665C77B90F809C009
:1009D000067A90F800E045EAC24040EA834040EAE7
:1009E000444040EA074040EA0C2040EA460040EA22
:1009F0000E000860F0BD0000A0ED00E0BFF35F8FC7
:100A0000044800210368034A23F4803303607032F2
:100A10001160704724ED00E0074A40F001000649EC
:100A200070321060086840F480300860BFF34F8F68
:100A3000BFF36F8F7047000024ED00E0074882B0DD
:100A4000016841F002010160006800220F2100F0FE
:100A500002000090901E02B000F010B8F44402585A
:100A6000002809DB410900F01F028900012001F183
:100A7000E0219040C1F80001704700000E4BF0B437
:100A80001B680D46C3F30223C3F10706042E00D9E9
:100A90000426191D072901D2002300E0DB1E0124D2
:100AA00004FA06F19C40491E2940641E99401440F6
:100AB0002143F0BC00F0FFBF0CED00E0064900F060
:100AC000070210B54FF6FF040868044B204040EAC7
:100AD00002201843086010BD0CED00E00000FA058C
:100AE000134970B50A68D243520705D5096801F069
:100AF0000701814213D118E00A6822F0070202437D
:100B00000A60FFF7CFFE0A4D4FF47A760446083D9F
:100B100007E000BFFFF7C6FE001BB04201D901206D
:100B200070BD2868C0438004F4D4002070BD00006C
:100B30000C4802582DE9F05F04000F467ED0DFF824
:100B40003882D8F8000000F00F00B8420CD2D8F874
:100B5000001021F00F013943C8F80010D8F8000048
:100B600000F00F00B84269D12078844D40070AD5C3
:100B70002069296801F07001884204D9296821F0B0
:100B800070010143296020787C4E361D00070AD58C
:100B90006069316801F07001884204D9316821F040
:100BA0007001014331602078C0060AD5A069316820
:100BB00001F4E061884204D9316821F4E061014325
:100BC00031602078DFF8B4B180060BF1080B0CD54A
:100BD000E1695846DBF8002002F07002914204D926
:100BE000026822F070020A430260207880070AD56A
:100BF000E068296801F00F01884204D9296821F0D2
:100C00000F01014329602078C0073ED05B49A268EC
:100C10002868183920F47060104328606068022842
:100C200018D0032819D00968012819D049070029CC
:100C30004ADADFF848A1AAF1080A00E044E0DAF84D
:100C4000002022F007020243CAF80020FFF72AFE24
:100C5000814612E009688903E9E709688901E6E746
:100C6000C905E4E7FFF71EFEA0EB090141F2883059
:100C7000814202D90320BDE8F09F6168DAF80000E4
:100C800000F03800B0EBC10FECD1207880070AD516
:100C9000E068296801F00F01884204D2296821F038
:100CA0000F0101432960D8F80010404601F00F0100
:100CB000B9420BD9016821F00F0139430160006886
:100CC00000F00F00B84201D00120D4E7207840079F
:100CD0000AD52069296801F07001884204D2296888
:100CE00021F0700101432960207800070AD560696E
:100CF000316801F07001884204D2316821F070013E
:100D0000014331602078C0060AD5A069316801F43A
:100D1000E061884204D2316821F4E061014331602E
:100D2000207880060CD5E1695846DBF8002002F0F7
:100D30007002914204D2026822F070020A430260FB
:100D400000F088F80E492A682B68C2F3032203F0EA
:100D50000F038A5CC95C02F01F0201F01F01D04042
:100D6000084A20FA01F11160074908600748006845
:100D7000BDE8F05FFFF7D2BD0020005218440258D2
:100D800090360008200000241C00002414000024D9
:100D900070B5144C3F220260124A24680832131DB9
:100DA000114D04F00704446016681C1D06F47066BB
:100DB0008660166806F00F06C660126802F07002C0
:100DC00002611A6802F0700242611A6802F4E0627D
:100DD0008261226802F07002C261286800F00F0090
:100DE000086070BD104402580020005230B500F079
:100DF00031F80B4A0B490C4B15681468C5F30322F4
:100E000004F00F048A5C095D02F01F0201F01F016B
:100E1000D040064A20FA01F119601060084630BD42
:100E20001844025890360008200000241C000024BA
:100E300000B5FFF7DBFF05490968054AC1F3022148
:100E4000515C01F01F01C84000BD00001C44025865
:100E500090360008454970B545480968434B103B3A
:100E600011F0380208D00111082A03D0102A0BD043
:100E7000182A0BD0084670BD19688906FBD5196879
:100E8000C1F3C101C84070BD3A4870BD3749374D04
:100E900018310C1D24350A68096826682D6802F08F
:100EA000030406F00102C1F30511C5F3CC0515FBDF
:100EB00002F200EE102AB8EE400AE9B32F4ADFED45
:100EC0002E0AB7EE001A6CB1DFED2D1A012C01D0FD
:100ED000022C43D002EE101A1068F8EE422A81EE7E
:100EE000A22A1EE01C68A40611D51B6801EE901A08
:100EF0001168C3F3C103F8EE612AD84001EE900AED
:100F0000C1F30800F8EE611A81EEA22A0BE001EEAF
:100F1000901ADFED1C2A00BFF8EE611A106882EE0D
:100F2000A12AC0F3080001EE900AF8EE611A40EE23
:100F3000201A31EE810A00E015E022EE000A106866
:100F4000C0F34620401C00EE900AF8EE600A80EEE6
:100F5000201ABCEEC10A10EE100A70BD01EE901A04
:100F6000DFED092AD8E7002070BD000010440258C8
:100F70000090D00340787D010000003930440258D1
:100F80000024744A0024744C20BCBE4B2DE9F05F51
:100F900004007DD0FF4F2078FE4D1837DFF8F49322
:100FA000103DC00748D0D9F80000396800F038007B
:100FB000102815D0182803D101F0030002280FD003
:100FC0006068B0F5803F12D010B1B0F5A02F18D0F6
:100FD000286820F480302860286820F4802009E008
:100FE0002868800328D560680028D2D024E02868CB
:100FF00040F480302860606888B1FFF753FC0646F3
:1010000009E0286840F480202860F0E7FFF74AFCF8
:10101000801B64286FD828688003F7D50CE0FFF7A1
:1010200041FC064605E000BFFFF73CFC801B64283E
:10103000F0D828688003F7D4207841F20308D54E11
:101040000C3E800769D5D9F80000396810F03800E7
:101050000ED0182801D188070AD0E06890B329681B
:1010600021F0190101432960FFF71CFC824631E0A1
:101070002868400702D5E06800288AD0E16828681F
:1010800020F0190008432860FFF70CFC824607E0B7
:10109000DFE000BFFFF706FCA0EB0A000228B9D88A
:1010A00028684007F6D500BFFFF7F6FB40451BD880
:1010B0002069402812D0316821F47C3141EA0030A7
:1010C00030602AE018E000BFFFF7ECFBA0EB0A005D
:1010D00002289FD828684007F6D5E5E7306820F455
:1010E0007C3040F40030EBE7207C316821F0FE4199
:1010F00041EA0060E4E70DE1286820F00100286083
:10110000FFF7D0FB824605E0FFF7CCFBA0EB0A001F
:1011100002288DD828684007F6D42078C0065DD50F
:10112000D9F80000DFF86CB2396800F03800ABF194
:10113000040B082810D0182803D101F0030001285F
:101140000AD0E0690028286838D040F08000286084
:10115000FFF7A8FB824623E02868C00523D5E06995
:10116000802876D11FE0206A202821D0316821F024
:10117000F84141EA8060306030E000BF94F8201010
:10118000DBF8002022F07C5242EA0161CBF800102B
:1011900024E000BFFFF786FBA0EB0A00022898D8E6
:1011A0002868C005F6D5FFF777FB4045E6D8DAE7B3
:1011B000306820F0F84040F08040DCE720F080000C
:1011C0002860FFF76FFB064605E000BFFFF76AFBEC
:1011D000801B02289DD82868C005F7D42078000716
:1011E00029D56C486169643000298046016811D0B6
:1011F00041F001010160FFF755FB064605E000BF25
:10120000FFF750FB801B0228C9D8D8F800008007E0
:10121000F6D510E021F001010160FFF743FB06461F
:1012200005E000BFFFF73EFB801B022872D8D8F80C
:1012300000008007F6D42078800623D5A069002816
:10124000286810D040F480502860FFF72BFB06463A
:1012500005E036E1FFF726FB801B02285AD82868F4
:101260008004F7D50EE020F480502860FFF71AFBC9
:10127000064604E0FFF716FB801B02284AD82868C0
:101280008004F7D4207840074FD5DFF80C81D8F8D8
:10129000001041F48071C8F80010FFF703FB064608
:1012A00005E000BFFFF7FEFA801B642832D8D8F8AB
:1012B0000000C005F6D5374EA068603601280AD078
:1012C00008B1052813D0306820F001003060306884
:1012D00020F0040002E0306840F001003060A068B7
:1012E00041F2883A90B1FFF7DDFA80460AE03068B3
:1012F00040F004003060EEE7FFF7D4FAA0EB0801FD
:10130000514507D830688007F6D50EE0FFF7CAFAD6
:10131000804607E084E000BFFFF7C4FAA0EB0801B5
:1013200051457DD830688007F6D4606AB0B3DFF8E5
:101330006480D9F8001008F120084FF6F87B08F116
:101340000409C1F3C2010329A8F1040A69D00228E3
:10135000286820F08070286003D0FFF7A3FA0446C5
:1013600084E0FFF79FFA064605E000BFFFF79AFA10
:10137000801B022877D828688001F7D4E26A40F2FF
:10138000F331386854F8283F884340EA0210184384
:10139000386004E01044025800480258B5E0217B50
:1013A000434622894FF4FE0C208A4FF0FE47490243
:1013B000267D521E401EA1F50071C2F308088AB2B4
:1013C000761E0CEA004042EA08020243504607EA51
:1013D00006610A431A60DAF8002022F00102CAF816
:1013E0000020D9F80020266A22EA0B0242EAC6024F
:1013F000C9F80020DAF80010A26921F00C011143AD
:10140000CAF800100168E26921F00201114301608D
:10141000016841F480310160016841F4003101E06C
:1014200021E027E00160016841F48021016001684A
:1014300041F001010160286840F080702860FFF7EA
:1014400031FA044605E000BFFFF72CFA001B022822
:1014500009D828688001F7D557E000BFFFF722FAC6
:10146000001B022802D90320BDE8F09F28688001F4
:10147000F4D44AE039680128D8F8000021D0A26AE3
:1014800001F0030393421CD1E26AC1F305118A42C1
:1014900017D1216BC0F30802491E8A4211D1616B3A
:1014A000C0F34622491E91420BD1A16BC0F3064204
:1014B000491E914205D1E16BC0F30660491E81428D
:1014C00001D00120D0E7A16C4E46D9F80000C0F34E
:1014D000CC00814219D0DAF80000554620F0010016
:1014E000CAF80000FFF7DEF94FEA0007FFF7DAF964
:1014F000B842FBD0A26C306820EA0B0040EAC20080
:101500003060286840F0010028600020ACE7704798
:101510007047704710B5040003D094F83D0010B137
:1015200007E0012010BD002084F83C00204600F0B8
:1015300022F8022084F83D002068211D00F052FAB4
:10154000012084F8480084F83E0084F83F0084F8C5
:10155000400084F8410084F8420084F8430084F895
:10156000440084F8450084F8460084F8470084F875
:101570003D00002010BD704790F83D10012901D0BA
:1015800001207047174A022180F83D100168CB689E
:1015900043F00103CB600068904214D0B0F1804F5B
:1015A00011D0114988420ED0104988420BD0104901
:1015B000884208D00F49884205D00F49884202D09E
:1015C0000E49884207D181680D4A1140062906D08C
:1015D000B1F5803F03D0016841F0010101600020B6
:1015E0007047000000000140000400400008004077
:1015F000000C004000040140001800400040014081
:101600000700010070472DE9F041044600680027FB
:10161000C6680569A90713D5B10711D5FA1E02617D
:1016200001212177206880698007204602D0FFF7DA
:10163000E9FF04E000F08BF8204600F089F82777F6
:10164000680716D5700714D5226802206FF00401D0
:10165000116120772068806910F4407F204602D015
:10166000FFF7D0FF04E000F072F8204600F070F8B9
:101670002777280715D5300713D5226804206FF087
:101680000801116120772068C0698007204602D0D8
:10169000FFF7B8FF04E000F05AF8204600F058F8D1
:1016A0002777E80616D5F00614D5226808206FF0D3
:1016B0001001116120772068C06910F4407F204636
:1016C00002D0FFF79FFF04E000F041F8204600F051
:1016D0003FF82777E80708D0F00706D021686FF0B9
:1016E00001000861204600F035F8280601D4A8045E
:1016F00008D5300606D521686FF4025008612046EF
:10170000FFF706FFE80508D5300606D521686FF417
:10171000807008612046FFF7FAFE680608D570065B
:1017200006D521686FF040000861204600F01CF8E3
:10173000A8060AD5B00608D521686FF02000086118
:101740002046BDE8F041FFF7E4BEBDE8F0817047F8
:101750007047000000680349884201D1FFF7A8B82C
:1017600070470000000001407047FEE7F0B5144AE2
:101770000021144889B000F021FA134903AC06AFE8
:101780006D4603AE48600E4824300EC88DE80E004A
:101790000EC884E80E0007C8002487E8070000BFD1
:1017A00056F82420002155F8240000F007FA57F8D5
:1017B0002410641C032C0860F2D309B0F0BD0000B3
:1017C000483600082D1800080000002430B587B006
:1017D00014216846FEF77DFE1148016841F00101C1
:1017E0000160006800220F4D032100F00100059008
:1017F0002846FFF74CF80024032001218DE8130050
:10180000694628460394FEF71FFF04206946CDE988
:10181000000428460294FEF717FF07B030BD000011
:10182000E044025800000258FEE7FEE7012000F005
:1018300086F9FBE710B54FF0E020006901F0FEFCEF
:10184000012803D0BDE8104001F000BA10BD00002F
:1018500030B59DB04C216846FEF73BFE202113A811
:10186000FEF737FE0220FFF73BF922490A682248BB
:1018700022F001020A600968016821F4404141F444
:10188000804101600168002401F440411B9101681E
:101890008904FCD502200090402504950121039184
:1018A00004220B921923CDE90904CDE90C300FABCA
:1018B0000E900C2183E8130068461294FFF766FB34
:1018C00008B172B6FEE713AB3F20032183E8130093
:1018D0004FF480621A950421CDE91645CDE91852DE
:1018E00013A8FFF727F9002801D072B6FEE71DB054
:1018F00030BD00002C040058184802582C48F0B5A0
:101900002C4A016841F470010160106800F00F007A
:10191000072804D2106820F00F00C01D106026496F
:101920000020254C10340B68244D43F001030B605C
:1019300020600B682B400B60136803F00F03072B2C
:1019400004D9136823F00F03DB1D13601A4C1C4AE3
:1019500018341C4B261D371D2060174C1A4D283497
:101960003060261D3860371D23603B1D35601C1D0F
:101970003A60251D2E1D1860331D226028603260DC
:1019800018600A680C4B114C22F4802260330A6004
:10199000186020686FF30F00B0F1005F03D20C49AC
:1019A0000120C1F8080143F2D2000A490860F0BDE5
:1019B00088ED00E000200052004402587FEDF6EA76
:1019C00080020101000202020000FF010010005C21
:1019D00000800051004000520148FFF714BE000093
:1019E000A40000242DE9F0472A4B4FF0804A2A4DED
:1019F00002689842294E2A4F2A4C09D0504507D0F8
:101A0000A84205D0B04203D0B84201D0A04205D1CF
:101A1000D1F804C022F070024CEA0202DFF888C05C
:101A2000DFF888809842DFF888900FD050450DD0BD
:101A3000A8420BD0B04209D0B84207D0A04205D08E
:101A4000604503D0404501D0484503D1CD6822F41C
:101A500040722A434D6922F080022A430260984274
:101A60008A68C2620A68826207D0A04205D06045D7
:101A700003D0404501D0484501D1096901630121E6
:101A800041610169C90703D0016921F001010161C8
:101A9000BDE8F0870000014000040040000800405D
:101AA000000C00400004014000400140004401409F
:101AB00000480140FEE7090700284FEA116104DBF6
:101AC00000F1E02080F80014704700F00F0000F1F2
:101AD000E02080F8141D70471FB500240094019485
:101AE00002940394FEF78AFF01208DF80C001F2159
:101AF0008DF8081087228DF809208DF80D008DF8DB
:101B0000000068468DF80A408DF80E408DF80140BF
:101B100001948DF80B408DF80F40FEF741FF042033
:101B2000FEF77AFFFEF7CCFEFFF792FEFFF74EFEC0
:101B300000F014F8FFF71AFE00F024F8FEE710B5E5
:101B40000146EFF3058010B16FF0050404E00024B6
:101B500011B1084600F0BCFE204610BDEFF3058031
:101B6000002802D06FF0050070470548016811B1E8
:101B70004FF0FF30704701210160002070470000E6
:101B80007400002410B5EFF30580002802D06FF038
:101B9000050010BD07480168012902D04FF0FF3051
:101BA00010BD054A002111700221016000F046FFBE
:101BB000002010BD740000241FED00E02DE9F0436B
:101BC00085B00B464FF000070497EFF3058100291D
:101BD0004ED100284CD080244FF0180C8946491E65
:101BE00052B3166806B1B146956905B1AC46ACF181
:101BF0000105382D03D2157915F0010F03D005B07A
:101C00000020BDE8F083556905B1AC08D2F8088022
:101C1000B8F1000F07D0D6685C2E04D3166916B150
:101C20000DB1012109E0B8F1000F06D1D56825B941
:101C3000156915B9002100E00021012901D061B129
:101C400016E091681269CDF800C001922246029117
:101C5000494601F0C3FA04900AE004A9CDF800C097
:101C6000A2B20191494601F083FA012800D00497FD
:101C7000049805B0BDE8F0832DE9F04104460F4615
:101C8000134EF5683068001D00F0E2FCB4F1FF3F30
:101C900007D137B13068BDE8F041011D0D4800F0B3
:101CA0002CBD2C4430684460AC4206D23068011D23
:101CB000B06BBDE8F04100F003BD3068011D706BF2
:101CC00000F0FEFCB06A844200D2B462BDE8F0814C
:101CD00024000024E005002470B5044600F01AFD3D
:101CE0001C4DA868401CA860286810B1686938B10C
:101CF0000CE02C60A868012808D100F093F905E0F9
:101D00002868E16AC06A884200D82C60686A401C72
:101D100068626064E06A2969884200D9286100EB42
:101D200080000D4901EB8000211D00F0E6FC00F071
:101D300011FD686900280CD02868E16AC06A8842F1
:101D400007D206494FF080500860BFF34F8FBFF3B2
:101D50006F8F70BD240000243001002404ED00E0EA
:101D600038B500F0D7FC0F4C2068B8B90E4800F029
:101D700099FC0E4800F096FC0B48E060143020619E
:101D80000B4B0020102100900A2003F1500200F0BC
:101D900073FF206010B107A100F060FDBDE838407E
:101DA00000F0D8BC60000024E4060024F8060024FB
:101DB000F4050024546D72510000000070B50D4C04
:101DC0006068002815D00C4E00F0A4FCF068C568CF
:101DD000281D00F03DFCA068401EA0606068401E09
:101DE000606000F0B7FC284600F051F860680028F9
:101DF000EAD170BD24000024CC0500240B46026CFF
:101E0000002A0CD0C1681144C160D0F808C06145F7
:101E100001D30168C160C1681846FEF70DBB704769
:101E20002DE9F041044616460027A56B226C002AD6
:101E300010D0C6B1E068FEF7FFFAE168206C091A1D
:101E4000E1602268914202D2A168081AE060022E85
:101E500016D017E02068A8B9A06801F069FA074613
:101E60000020A0600EE06068FEF7E6FA216C606872
:101E700008446060A168884204D32068606001E083
:101E800005B16D1E681CA0633846BDE8F08110B531
:101E9000044694F8591000290BD0012911D00229C9
:101EA00014D0502080F31188BFF34F8FBFF36F8F92
:101EB000FEE7206B00F064FC2046BDE8104000F017
:101EC0005FBC2046BDE8104000F05ABC10BD0000C9
:101ED0000749CA681168002904D00021016019B1BE
:101EE000002070470121F9E7D068006870470000C2
:101EF000600000244FF47051104810F0070F06D016
:101F0000C01D20F007000D49411AC1F570510C4A5F
:101F10001060002353600144083921F00701183A8A
:101F200011604B600B600B1A436001604068906069
:101F300050604FF00040506170470000C40D002415
:101F400090000024074E4FF08054074DFFF736FFF6
:101F500030680128FAD92C60BFF34F8FBFF36F8F21
:101F6000F4E700003001002404ED00E070B51D46E8
:101F7000049C002909D02260E063216401212046ED
:101F800000F0B2FE84F84C5070BD2460F4E72DE9F7
:101F9000F05F82460E4690469B460B9F0A9D0C9C26
:101FA000A5224FEA8801206BFEF78BFA206BA8F17F
:101FB000010100EB810020F007094FF0000866B135
:101FC00000202218315C82F83410315C11B1401CC1
:101FD0001028F6D384F8438001E084F83480382D4B
:101FE00000D33725E562E564C4F85080201D00F079
:101FF00064FB04F1180000F060FB2461C5F13800B7
:10200000A0616462C4F8548084F858805A465146EE
:10201000484600F0C7FA2060002F00D03C60BDE8C1
:10202000F09F000070B500240F4D04EB840005EB19
:10203000800000F037FB641C382CF6D30B4800F00E
:1020400031FB0B4800F02EFB0A4800F02BFB0A483E
:1020500000F028FB094800F025FB094803494163CB
:102060001431816370BD000030010024900500240C
:10207000A4050024B8050024CC050024E0050024B4
:10208000240000244DF8044D144900E011460A686C
:102090008242FBD34B6803EB010C844503D14068BB
:1020A0001844486008460C68D0F804C00CEB0003E4
:1020B000A3420CD10A4B1B689A4206D05268624474
:1020C00042600A681268026002E0036000E0026099
:1020D000814200D008605DF8044B704790000024F6
:1020E0007800002410B50024416000619142DFF8BF
:1020F00038C00BD8D11A8269914201D3012410E073
:10210000011DDCF8100000F0DBFA0AE09A4203D26D
:10211000994201D3012404E0011DDCF80C0000F019
:10212000CFFA204610BD00006000002410B5044620
:1021300000F0F0FAA06B20B1002400F00BFB204669
:1021400010BD0124F9E710B5044600F0E3FAA06BD6
:10215000E16B884201D1012400E0002400F0FAFA8A
:10216000204610BDF8B505460E461748C068C06841
:10217000C468201D00F06CFA94F8280010F0040FD9
:1021800018D0A0692B46324641192046FFF7AAFF16
:10219000A0B100202A46034601460090204601F0E7
:1021A000DDF958B9502080F31188BFF34F8FBFF38A
:1021B0006F8FFEE720F0010084F82800216A01B04B
:1021C0002046BDE8F04008476000002430B587B0E5
:1021D000414D002202A9286800F0E6FE002875D0D3
:1021E0000298002803DA039A059904989047029808
:1021F000002864DB049C606910B1201D00F028FAFF
:1022000001A800F0B3F8024602980A2857D2DFE886
:1022100000F00505052F364D05052F3694F82800EA
:1022200040F0010084F828000398A16903460144A6
:102230002046FFF757FF002841D0216A20468847F3
:1022400094F8280010F0040F39D000200090039873
:102250000023A16942181946204601F07FF970BB9E
:10226000502080F31188BFF34F8FBFF36F8FFEE7CD
:1022700094F8280020F0010084F828001FE094F86A
:10228000280040F0010084F828000398A06128B1DC
:10229000811813462046FFF725FF10E0502080F3F9
:1022A0001188BFF34F8FBFF36F8FFEE794F82800BC
:1022B00010F0020F0CD020F0010084F828002868EC
:1022C000002202A900F070FE002889D107B030BDBD
:1022D000204600F055FAF2E760000024F8B5054604
:1022E0000C4600F0F3FB684600F040F80646009804
:1022F00010B101F099F8F8BD44B9B54206D801F023
:1023000093F831462846FFF72DFFF8BD0C481CB165
:102310000169096891B100240068A91B224600F0F8
:10232000B1FA01F081F80028EFD106494FF0805052
:102330000860BFF34F8FBFF36F8FF8BD0124EBE749
:102340006000002404ED00E00749486B00680028A5
:1023500005D0486BC068C0684068886270474FF01D
:10236000FF308862704700002400002470B50446E6
:1023700000F072FF0546074EB068854204D200F0B7
:102380000BF80120206001E000202060B5602846A5
:1023900070BD000060000024F8B51C4EF0680068B5
:1023A000002826D00027F068C0680568C468201D92
:1023B00000F04EF9216A2046884794F8280010F072
:1023C000040F12D0A0692844A84206D96060246195
:1023D000211DF06800F074F907E000232A46194631
:1023E0002046009701F0BAF840B1F0680068002874
:1023F000D9D1F0683169F1603061F8BD502080F3C7
:102400001188BFF34F8FBFF36F8FFEE7600000248A
:102410000A484068B0F1FF3F07D0502080F3118890
:10242000BFF34F8FBFF36F8FFEE7502080F311880B
:10243000BFF34F8FBFF36F8FFEE7000098000024BB
:1024400082B001A8FFF744FD0199FFF747FFFFF7AE
:10245000BDFEF6E770B5044600F05CF994F945500E
:10246000002D0CDD606A50B104F1240000F0A0FFE3
:1024700008B100F0A5FA681E45B2002DF2DC4FF05D
:10248000FF3684F8456000F065F900F043F994F9EF
:102490004450002D0CDD206950B104F1100000F013
:1024A00087FF08B100F08CFA681E45B2002DF2DCFF
:1024B00084F84460BDE8704000F04CB92DE9F0416B
:1024C0000546002600F002FB344F386808B9FFF7D4
:1024D00011FD7869054251D19DB1083515F0070FFE
:1024E0000FD005F00700C0F10800054415F0070FF4
:1024F00007D0502080F31188BFF34F8FBFF36F8F49
:10250000FEE7002D3AD07868854237D8244908463E
:10251000046801E0214604466068A84202D22068AF
:102520000028F7D13868844228D0086800F10806EE
:10253000206808606068411B10290FD9601910F0ED
:10254000070F07D0502080F31188BFF34F8FBFF3E0
:102550006F8FFEE741606560FFF794FD6168786802
:10256000401A7860BA68904200D2B860786908432F
:10257000606000202060F868401CF86000F054FFA4
:1025800016F0070F07D0502080F31188BFF34F8F4C
:10259000BFF36F8FFEE73046BDE8F081780000247E
:1025A00090000024001F4FF080730360001F21F093
:1025B00001010160001F0549016014380260001F1D
:1025C0006FF00201016020387047000011240008FC
:1025D000044C01212046FEF752F9C82000F078F99A
:1025E000F7E7000000000258044C02212046FEF7E5
:1025F00046F9C82000F06CF9F7E700000000025827
:10260000DFF844904FF00008104F454646464846D4
:102610000421FEF72FF9A842044602D000F01CFE68
:10262000064600F019FE801B322807D9012C05D17F
:10263000386818B100F074F9C7F800800A20254600
:1026400000F046F9E3E70000000002580000002413
:102650000169436882689A60836842685A604A6880
:10266000824201D182684A60002202610868401EED
:102670000860086870470000034B036003F15C00CA
:1026800008608020106070470C070024044B036032
:1026900003F15C0008604FF4807010607047000028
:1026A0006809002400F1080141604FF0FF328260A8
:1026B000C160016100210160704700210161704724
:1026C0004DF8044DD1F800C0BCF1FF3F02D000F13D
:1026D000080202E0026904E01A4653681C68644577
:1026E000FAD953684B6099608A605160086101684B
:1026F000491C01605DF8044B704742684A6093686A
:102700008B6093685960916008610168491C0160A1
:1027100070470000502080F31188BFF34F8FBFF344
:102720006F8F0A494868401C486001280CD108484E
:10273000006810F0FF0F07D0502080F31188BFF31E
:102740004F8FBFF36F8FFEE77047000098000024A3
:1027500004ED00E009494868002806D0401E4860A2
:10276000002801D180F311887047502080F3118830
:10277000BFF34F8FBFF36F8FFEE700009800002478
:1027800070B500282AD0A0F10804154D6068696969
:10279000084207D1502080F31188BFF34F8FBFF359
:1027A0006F8FFEE722683AB1502080F31188BFF3A3
:1027B0004F8FBFF36F8FFEE78843606000F086F9AC
:1027C00060686968084468602046FFF75BFC286918
:1027D000401C2861BDE8704000F026BE70BD0000BE
:1027E000780000244FF0E0200021016181614FF466
:1027F0007A7204490968B1FBF2F1491E416107216F
:10280000016170471C00002410B5FDF7F1FD11496E
:1028100010280ED300F1E02090F8F0030A789042DF
:1028200007D2502080F31188BFF34F8FBFF36F8F13
:10283000FEE709480068896800F4E060884207D92B
:10284000502080F31188BFF34F8FBFF36F8FFEE7E7
:1028500010BD0000980000240CED00E00022084BA1
:1028600053F832C0BCF1000F03D0521C082AF7D332
:10287000704743F8321003EBC20148607047000014
:10288000F000002470B504460D461646FFF742FFDF
:1028900094F94400B0F1FF3F4FF0000001D184F8FB
:1028A000440094F94510B1F1FF3F01D184F845008F
:1028B000FFF750FFA06B28B904F1240032462946E7
:1028C00000F09EF82046BDE87040FFF7C3BD000051
:1028D000024610B50020002A12D00F48006B38B114
:1028E000502080F31188BFF34F8FBFF36F8FFEE747
:1028F00000F0ECF800211046FFF7BEF900F094FD5F
:10290000002807D105494FF080500860BFF34F8F72
:10291000BFF36F8F10BD00002400002404ED00E021
:1029200070B50446FFF7F6FE1E4D04B92C68201D55
:10293000FFF78EFEA06A18B104F11800FFF788FEB9
:10294000686A401C68622868844207D11648211DC5
:10295000FFF7D3FE6868401C686007E0A868401E67
:10296000A8602046FFF793FAFFF7EEFCFFF7F2FEB0
:102970006869002814D02868844211D1286B38B1C6
:10298000502080F31188BFF34F8FBFF36F8FFEE7A6
:1029900006494FF080500860BFF34F8FBFF36F8F31
:1029A00070BD000024000024CC05002404ED00E0EC
:1029B00002490A6A0260C968416070472400002425
:1029C00001490120C86170472400002410B50C465D
:1029D00000280BD0094A126802F11801FFF770FEB7
:1029E0002046BDE810400121FFF746B9502080F392
:1029F0001188BFF34F8FBFF36F8FFEE724000024D1
:102A000070B50D46144600280DD00B4909681831E1
:102A1000FFF773FE0CB14FF0FF3521462846BDE8A5
:102A20007040FFF729B9502080F31188BFF34F8F12
:102A3000BFF36F8FFEE700002400002430B587B09D
:102A400000250695059504AA05A906A8FFF714FE1A
:102A500006980023059902901A48049A009501915E
:102A600016A100F0BBFB184CE06208B1012000E0A9
:102A70000020012801D100F03DFD01280AD0B0F16D
:102A8000FF3F19D1502080F31188BFF34F8FBFF360
:102A90006F8FFEE7502080F31188BFF34F8FBFF395
:102AA0006F8F4FF0FF30A06201206061E56007B0DA
:102AB000BDE8304000F048B807B030BD49444C454F
:102AC00000000000451F0008240000240248016B9C
:102AD000491C01637047000024000024184B186B48
:102AE000002802D00120D86170470020D861186901
:102AF000144900EB800251F822203AB9C0B1401EBF
:102B000000EB800251F82220002AF7D000EB80026F
:102B100001EB82014A6852684A6001F1080C624583
:102B200001D152684A604968C968196018617047E4
:102B3000502080F31188BFF34F8FBFF36F8FFEE7F4
:102B4000240000243001002410B582B03848016808
:102B5000384A914207D1502080F31188BFF34F8F3C
:102B6000BFF36F8FFEE700683349884207D15020DA
:102B700080F31188BFF34F8FBFF36F8FFEE72F49AC
:102B800008780190FF200870087800909DF80000F8
:102B90009DF8002000F0F000904207D0502080F314
:102BA0001188BFF34F8FBFF36F8FFEE79DF80000D2
:102BB000234C00F0500020700720A0609DF800001A
:102BC00010F0800F0BD0A068401EA0609DF80000A0
:102BD000400000909DF8000010F0800FF3D1A06835
:102BE000032807D0502080F31188BFF34F8FBFF325
:102BF0006F8FFEE74FF44070A06001980870114895
:102C0000016841F470010160016841F070410160A8
:102C1000FFF7E8FD00206060FDF7B2FB0A4801689D
:102C200041F040410160FDF797FB02B0002010BD6C
:102C300000ED00E071C20F4170C20F4100E400E0FE
:102C40009800002420ED00E034EF00E010B55020A3
:102C500080F31188BFF34F8FBFF36F8F00F002FB3B
:102C600018B104494FF080500860002080F31188AB
:102C700010BD000004ED00E038B5049D002804D02C
:102C80005BB102B189B1C2B120E0502080F311885C
:102C9000BFF34F8FBFF36F8FFEE7502080F3118893
:102CA000BFF34F8FBFF36F8FFEE7502080F3118883
:102CB000BFF34F8FBFF36F8FFEE739B1502080F322
:102CC0001188BFF34F8FBFF36F8FFEE74FF0500CAB
:102CD000CDF800C01C46012384F846302B460094F2
:102CE000FFF744F9204638BD70B504460D46002C68
:102CF00025D0FFF70FFD226CE16B206801FB02007D
:102D0000A0600020A06320686060E16B226C491E17
:102D1000206801FB0200E0604FF0FF3084F84400BF
:102D200084F845009DB104F11000FFF7BBFC04F1ED
:102D30002400FFF7B7FCFFF70DFD012070BD502008
:102D400080F31188BFF34F8FBFF36F8FFEE72069C9
:102D50000028F0D004F1100000F02AFB0028EAD08F
:102D600004494FF080500860BFF34F8FBFF36F8F5F
:102D7000E1E7000004ED00E02DE9FF4782B00446E2
:102D80008A461F460025002C03D0BAF1000F08D058
:102D900011E0502080F31188BFF34F8FBFF36F8F86
:102DA000FEE7206C38B1502080F31188BFF34F8FBD
:102DB000BFF36F8FFEE7022F0AD1E06B012807D027
:102DC000502080F31188BFF34F8FBFF36F8FFEE762
:102DD00000F034FA48B9049838B1502080F31188D3
:102DE000BFF34F8FBFF36F8FFEE7DFF8F890002639
:102DF0004FF08058FFF78EFCA06BE16B884205D343
:102E0000022F03D0049808B335B329E03A4651465F
:102E10002046FFF705F8616A59B104F1240000F07B
:102E2000C7FA68B1C9F80080BFF34F8FBFF36F8F47
:102E300006E028B1C9F80080BFF34F8FBFF36F8F52
:102E4000FFF788FC06B00120BDE8F087FFF782FCA1
:102E500006B00020BDE8F0876846FFF7A9FD012510
:102E6000FFF778FCFFF732FEFFF754FC94F94400BB
:102E7000B0F1FF3F01D184F8446094F94500B0F10E
:102E8000FF3F01D184F84560FFF764FC04A9684660
:102E900000F02EF940B12046FFF7DCFA00F0C4FA4A
:102EA00006B00020BDE8F0872046FFF74CF990B14E
:102EB000049904F11000FFF789FD2046FFF7CAFAD4
:102EC00000F0B2FA002895D1C9F80080BFF34F8F07
:102ED000BFF36F8F8EE72046FFF7BCFA00F0A4FA2D
:102EE00088E7000004ED00E02DE9F047044689463C
:102EF00017461E46002C03D0B9F1000F08D011E090
:102F0000502080F31188BFF34F8FBFF36F8FFEE720
:102F1000206C38B1502080F31188BFF34F8FBFF37E
:102F20006F8FFEE7022E0AD1E06B012807D05020F8
:102F300080F31188BFF34F8FBFF36F8FFEE7FFF76A
:102F400063FC5020EFF3118880F31188BFF34F8F9B
:102F5000BFF36F8FA06BE16B884206D3022E04D0C3
:102F6000002088F31188BDE8F08794F94550A06BE4
:102F7000324649462046FEF753FFB5F1FF3F04D0E5
:102F8000681C84F845000120EBE7606A0028FAD04D
:102F900004F1240000F00CFA0028F4D0002FF2D045
:102FA00001203860EFE700002DE9F74783B00446C1
:102FB0008A460025002C03D0BAF1000F08D011E09A
:102FC000502080F31188BFF34F8FBFF36F8FFEE760
:102FD000206C38B1502080F31188BFF34F8FBFF3BE
:102FE0006F8FFEE700F02AF948B9059838B15020F4
:102FF00080F31188BFF34F8FBFF36F8FFEE7DFF8C9
:10300000EC9000274FF08058FFF784FBA66BC6B109
:1030100051462046FEF7F2FE701EA063206950B1B3
:1030200004F1100000F0C4F928B1C9F80080BFF322
:103030004F8FBFF36F8FFFF78DFB06B00120BDE808
:10304000F087059808B135B109E0FFF783FB06B0BA
:103050000020BDE8F0876846FFF7AAFC0125FFF7CE
:1030600079FBFFF733FDFFF755FB94F94400B0F10E
:10307000FF3F01D184F8447094F94500B0F1FF3F5F
:1030800001D184F84570FFF765FB05A9684600F09B
:103090002FF868B12046FFF7DDF900F0C5F92046AA
:1030A000FFF744F80028AFD006B00020BDE8F08755
:1030B0002046FFF73BF890B1059904F12400FFF793
:1030C00085FC2046FFF7C6F900F0AEF900289BD139
:1030D000C9F80080BFF34F8FBFF36F8F94E720468E
:1030E000FFF7B8F900F0A0F98EE7000004ED00E06A
:1030F00070B505460C46002D15D0E4B1FFF70AFB6C
:10310000DFF868C0DCF80C006B68C11A2268B2F105
:10311000FF3F18D02E68DCF820C0664515D08342EA
:1031200013D801241DE0502080F31188BFF34F8F86
:10313000BFF36F8FFEE7502080F31188BFF34F8FEE
:10314000BFF36F8FFEE700240BE08A4206D9501AC6
:1031500020602846FFF72CFC002402E000202060BD
:103160000124FFF7F7FA204670BD00002400002478
:103170002DE9F04F85B081468A4690469B460F9FC9
:103180000E9E4FEA8800FFF799F9054628000AD0FD
:103190005C20FFF793F904460CB1256304E0284650
:1031A000FFF7EEFA00E000249CB1002084F85900FB
:1031B0005B4642465146019700960294039048466A
:1031C000FEF7E5FE2046FEF787FD05B00120BDE8CD
:1031D000F08F05B04FF0FF30BDE8F08F70B586B0CE
:1031E0000646DDF828C00C9C0B98002816D0ECB1E0
:1031F0005C2504952063022084F85900002005AD69
:10320000CDF800C00195029403903046FEF7BFFE52
:103210002046FEF761FD059806B070BD502080F392
:103220001188BFF34F8FBFF36F8FFEE7502080F3FD
:103230001188BFF34F8FBFF36F8FFEE705484169D9
:10324000002903D0006B18B100207047012070479F
:1032500002207047240000240148C0687047000025
:10326000240000242DE9F04100262F4F386B002860
:1032700005D0B869401CB8613046BDE8F081F868F7
:10328000451CFD609DB9786B006838B1502080F313
:103290001188BFF34F8FBFF36F8FFEE7786BB96B69
:1032A0007963B863386A401C3862FFF74DF8B86A32
:1032B000DFF8788085420DD3786B006838B1786B81
:1032C000C068C4686068854212D2B86202E04FF0FC
:1032D000FF30B8623868C06A00EB800058F8200000
:1032E000012800D90126F8690028C5D00126C3E7C6
:1032F000201DFFF7ADF9A06A18B104F11800FFF71F
:10330000A7F9E16A3869814200D9396101EB81008E
:10331000211D08EB8000FFF7F0F9E06A3968C96AFF
:103320008842C9D30126C7E72400002430010024C5
:1033300070B504460021002833D01B4D2868844214
:1033400007D0502080F31188BFF34F8FBFF36F8FEA
:10335000FEE7206D38B1401E2065E36CE26A9A42B8
:103360001FD040B11DE0502080F31188BFF34F8F74
:10337000BFF36F8FFEE7201DFFF76AF9E06CE06294
:10338000C0F13800A061E06A2969884200D928614B
:1033900000EB8000054901EB8000211DFFF7ADF92E
:1033A0000121084670BD00002400002430010024E3
:1033B00070B5C068C468002C14D004F11800FFF781
:1033C00047F9164D286BA8B1154804F11801FFF70D
:1033D00094F9E06A2968C96A88421CD90120012150
:1033E000E96170BD502080F31188BFF34F8FBFF3A8
:1033F0006F8FFEE7201DFFF72BF9E06A29698842ED
:1034000000D9286100EB8000064901EB8000211DF6
:10341000FFF773F9DDE7002070BD000024000024F1
:10342000B8050024300100242DE9F04700240027CE
:103430002D4D286B002807D0FFF76CF9286B401E34
:103440002863286B40B149E0502080F31188BFF316
:103450004F8FBFF36F8FFEE7A86800283ED0234E42
:1034600030684FF0010800B3A6F59169F068C468B0
:1034700004F11800FFF7ECF8201DFFF7E9F8E06A07
:103480002969884200D9286100EB8000211D09EBE1
:103490008000FFF732F9E06A2968C96A884201D3DF
:1034A000C5F81C8030680028E0D10CB1FEF74CFF55
:1034B000AC694CB1FFF7D6FE08B1C5F81C80641E9C
:1034C000002CF7D10020A861E86938B1012708492C
:1034D00038070860BFF34F8FBFF36F8FFFF73AF9DC
:1034E0003846BDE8F087000024000024B805002419
:1034F00004ED00E030B587B00024FEF731FC134D39
:103500002868B0B100200690059004AA05A906A875
:10351000FFF7BCF80599022206980023009202905A
:103520000D48049A01910AA1FFF758FE686000B1A6
:10353000012414B107B0204630BD502080F311881B
:10354000BFF34F8FBFF36F8FFEE7000060000024D2
:10355000546D72205376630041240008F0B585B0A5
:10356000844616461F460A9D0022BCF1000F14D067
:10357000164C206800B300910196CDF808C00629CA
:103580001BDAFFF75BFE02280FD0002320681A46E3
:103590006946FFF7F1FB024615E0502080F31188E1
:1035A000BFF34F8FBFF36F8FFEE7206800232A46DB
:1035B0006946FFF7E1FB024605E000233A4669460B
:1035C000FFF792FC024605B01046F0BD60000024F3
:1035D0004FF04070E1EE100A70470000A03600087E
:1035E00000000000000000000000000000000000DB
:1035F00000020000020000000000000000000000C7
:10360000A8360008000000000000000000000000D4
:1036100000000000000200000300000000000000A5
:1036200000000000B03600080000000000000000AC
:103630000000000000000000000200000400000084
:103640000000000000000000B83600080000000084
:103650000000000000000000000000000002000068
:10366000180000000000000000000000D125000844
:10367000E925000801260008DC35000800360008AE
:103680002436000800000024080000240C00002458
:1036900000000000010203040102030406070809F8
:1036A0007461736B310000007461736B3200000051
:1036B0007461736B3300000064656661756C7454EB
:1036C00061736B00E436000800000024A4000000D1
:1036D000D402000888370008A4000024844F0000AA
:1036E000F0020008000000000000000000000000E0
:1036F00000000000010000001000000000000000B9
:103700000090D0030090D0030000000000000000F3
:1037100000000000000000000000000000000000A9
:103720000000000000000000000000000000000099
:103730000000000000000000000000000000000089
:103740000000000000000000000000000000000079
:103750000000000000000000000000000000000069
:103760000000000000000000000000000000000059
:103770000000000000000000000000000000000049
:08378000AAAAAAAA0000000099
:040000050800029954
:00000001FF
