:020000040800F2
:10000000C8060020A9010008FD1D0008D91A000833
:10001000F91D0008D9070008A52400080000000009
:10002000000000000000000000000000651F000844
:1000300041080008000000002D1E000815200008DF
:10004000C3010008C3010008C3010008C301000880
:10005000C3010008C3010008C3010008C301000870
:10006000C3010008C3010008C3010008C301000860
:10007000C3010008C3010008C3010008C301000850
:10008000C3010008C3010008C3010008000000000C
:10009000000000000000000000000000C301000894
:1000A000C3010008C3010008C3010008C301000820
:1000B000CD200008C3010008C3010008C3010008E7
:1000C000C3010008C3010008C3010008C301000800
:1000D000C3010008C3010008C301000800000000BC
:1000E000C3010008C3010008C301000800000000AC
:1000F000000000000000000000000000C301000834
:1001000000000000C3010008C3010008C30100088B
:1001100000000000000000000000000000000000DF
:10012000C3010008C3010008C3010008C30100089F
:10013000C3010008000000000000000000000000F3
:10014000000000000000000000000000C3010008E3
:10015000C3010008C3010008C3010008C30100086F
:10016000C3010008C30100080000000000000000F7
:10017000000000000000000000000000000000007F
:1001800000000000C30100080000000000000000A3
:10019000C3010008DFF80CD000F00CFB004800475A
:1001A000752A0008C8060020064880470648004710
:1001B000FEE7FEE7FEE7FEE7FEE7FEE7FEE7FEE717
:1001C000FEE7FEE7B9200008950100082DE9F05F81
:1001D0000546002092469B468846064681464024B6
:1001E0001BE0284641464746224600F053F9534655
:1001F0005A46C01A914110D311461846224600F0C3
:100200003AF92D1A67EB01084F46224601200021DA
:1002100000F031F917EB00094E41201EA4F1010452
:10022000DFDC484631462A464346BDE8F09FD2B25D
:1002300001E000F8012B491EFBD270470022F6E7CF
:1002400010B513460A4604461946FFF7F0FF20464C
:1002500010BD2DE9FE4F804681EA0300C00F0C4619
:10026000009021F0004123F00045B8EB0200A941C5
:1002700005D24046214690461C460B46024623F0D6
:100280000040104347D0270DC7F30A00C3F30A51BB
:100290000290401A019040286BDAC3F3130040F437
:1002A000801B0098924620B10023D2EB030A63EB37
:1002B0000B0B01985946C0F14002504600F0DBF8A4
:1002C00006460D4650465946019A00F0F3F810EBE9
:1002D00008006141002487EA115284EAE7731A4357
:1002E00040D0009A62B3019A012A4FEA075215DC06
:1002F000001B61EB02014FF0004202EA0752CDE918
:100300000042001C41F5801132462B4600F0F3F804
:1003100003B0BDE8F08F40462146F9E7001B61EBD2
:100320000201001C41F5801300185B412018A2F562
:10033000001747EB030140EAD570B6196D4111E093
:100340006D084FEA360645EAC0754FEA0752001BB2
:1003500061EB0201001C41F5801149084FEA3000B1
:100360000019514132462B4603B0BDE8F04F00F072
:10037000B3B80098012240000023D0EB020263EBE7
:10038000E073009821464FEAE074B8EB000061EB9F
:100390000401E9E783F000435BE781F0004158E79F
:1003A00030B5041E71F1000404DB4FF000444042FC
:1003B00064EB0101141E73F1000405DB1C464FF0D1
:1003C0000043524263EB0403101A8B4101D3012016
:1003D00030BD002030BD30B5041E71F1000404DBD7
:1003E0004FF00044404264EB0101141E73F100041D
:1003F00005DB1C464FF00043524263EB0403801AB6
:10040000994101D2012030BD002030BD70B5C1F34B
:100410000A5201F000450024C1F3130140F2FF33FA
:1004200041F480119A4201DA002070BD40F233435A
:100430009A42A2F2334203DC524200F02BF800E071
:1004400090402C43F1D0404270BD30B50B46014680
:1004500000202022012409E021FA02F59D4205D363
:1004600003FA02F5491B04FA02F52844151EA2F10D
:100470000102F1DC30BD202A04DB203A00FA02F14F
:10048000002070479140C2F1200320FA03F3194382
:1004900090407047202A04DB203A21FA02F0002124
:1004A000704721FA02F3D040C2F120029140084384
:1004B00019467047202A06DBCB17203A41FA02F092
:1004C00043EAE07306E041FA02F3D040C2F12002B1
:1004D000914008431946704710B5141E73F100048B
:1004E00008DA401C41F1000192185B411A4301D126
:1004F00020F0010010BD2DE9F04D92469B4611B150
:10050000B1FA81F202E0B0FA80F220329046FFF7B1
:10051000B2FF04460F4640EA0A0041EA0B01534687
:100520005A46084313D0114653EA010019D0C8F1C6
:1005300040025046FFF7AEFF05460E46504659466C
:100540004246FFF798FF084305D0012004E020460B
:100550003946BDE8F08D0020054346EAE0762C439D
:1005600037430A986305E40AA0EB08000022FD0A5D
:1005700044EA47540A3002D500200146E9E7010564
:1005800010196941DDE9084500196941BDE8F04DE0
:10059000A2E72DE9FE4F81EA030404F0004421F0B4
:1005A000004100944FF0000B23F0004350EA010497
:1005B0005ED052EA03045BD0C3F30A54C1F30A5578
:1005C0002C44A4F2F3340194A0FB0254C1F31301B0
:1005D00041F48011C3F3130343F4801301FB02447D
:1005E00000FB034E840A970A44EA815447EA835782
:1005F000A4FB076802958D0A05FB07854FEA932C3B
:1006000004FB0C542705029D4FEA065847EA1637AB
:10061000B5EB08056EEB070C870E920E47EA8117C3
:1006200042EA8312A7FB0201B6EB0B0164EB000464
:100630002B0D43EA0C335E1844EB1C50DA4651464E
:10064000E7FB0201C5F313044FEA0B3343EA1453EB
:100650004FEA0432019C43EA0603A4F10C0402941D
:10066000009CCDE900B4FFF746FF03B0BDE8F08F72
:1006700000200146F9E72DE9F04D81EA030404F07A
:10068000004B21F0004514464FF0000A23F00041D2
:1006900050EA050220D054EA01021DD0C5F30A57E2
:1006A0000246C5F31303C1F31300C1F30A5640F425
:1006B000801543F48013A7EB0608101BD64608F2FA
:1006C000FD3873EB050002D308F1010801E0921830
:1006D0005B41B8F1000F03DA00200146BDE8F08D60
:1006E00000204FF48011064684460EE0171B73EB82
:1006F000050705D3121B63EB050306434CEA010C07
:1007000049084FEA300092185B4150EA0107EDD1E9
:1007100052EA030012D082EA040083EA050108438A
:1007200005D0101BAB4106D20122002306E00022B7
:100730004FF0004302E06FF0010253101AEB060085
:100740004CEB085110EB0A0041EB0B01BDE8F04DFA
:10075000FFF7C2BEC1F30A52C1F3130140F2FF33E7
:1007600041F480119A4202DA00200146704740F2BB
:1007700033439A42A2F2334202DC5242FFF78ABE6E
:10078000FFF779BE30B5041E71F1000404DB4FF0B1
:100790000044404264EB0101141E73F1000405DBC8
:1007A0001C464FF00043524263EB0403994208BFDA
:1007B000904230BD064C074D06E0E06840F0010372
:1007C00094E8070098471034AC42F6D3FFF7E6FCF4
:1007D000DC520008FC520008FEE7000080B540F241
:1007E0005000C2F2000090ED000B01F029FF40F232
:1007F0005800C2F2000090ED000B01F0F9FF40F24A
:100800006000C2F2000090ED000B01F0A9FF40F281
:100810006800C2F2000090ED000B01F0C9FE40F24A
:100820007000C2F2000090ED000B01F079FE40F282
:100830007800C2F2000090ED000B01F049FF80BD8E
:1008400070470000EFF3108072B600BFFEE70000B3
:10085000B0B5044600F0EAF8054640F20400C2F2E2
:1008600000000078611C18BF044400BF00F0DEF8EF
:10087000401BA042FAD3B0BD2DE9F04F83B000F188
:100880003E4202F1FF724FEAB22241F200070192AA
:10089000C4F2020707224FF0010E00254FF0000AB4
:1008A0004FF00008B84208BF042200920AE000BFDF
:1008B00008F101080AF1040AB8F1100F05F1020568
:1008C00000F0A4800C680EFA08FB14EA0B09EFD0C4
:1008D0004C6804F0030CACF1010EBEF1010F11D80D
:1008E0000322876802FA05F6CA68B743AA403A436A
:1008F00082604268C4F3001722EA0B0207FA08F785
:100900003A434260BCF1030F1CD0C26803238E68D7
:1009100003FA05F7BA4306FA05F73A43BCF1020FAA
:10092000C2600FD16FF0030202EA580202440AF0DB
:100930001C060F23176A03FA06F40B69A743B3409A
:100940003B431362026803234F68AB409A4307F0AE
:100950000303AB401A4317F4403F4FF0010E02600F
:10096000A6D0002243F644030292C4F202031A689E
:1009700043F6004442F480421A601A68C4F201044B
:1009800002F480420292029A28F003024FF6084BCA
:100990002244CFF6FF7B52F80B300AF00C070F26EB
:1009A000BE4023EA060C019B009E042B38BF1E4666
:1009B00006FA07F747EA0C0342F80B30A2684B68C7
:1009C00042EA090743F60C4CDE0258BF22EA090747
:1009D000A760C4F2010CDCF800209E0242EA09077D
:1009E00058BF22EA0907CCF8007062689E0342EA09
:1009F000090758BF22EA090767602268DB0342EA59
:100A0000090358BF22EA0903236051E703B0BDE898
:100A1000F08F00000069084018BF012070470000F7
:100A2000002A08BF090481617047000040F2C0201D
:100A3000C2F200000068704740F2040040F2C0219A
:100A4000C2F20000C2F2000100780A681044086097
:100A50007047000080B543F60040C4F20200016810
:100A600041F400710160016841F480610160016836
:100A700041F480710160032000F060F80F2000F065
:100A800005F800F02BF8002080BD0000B0B540F262
:100A90000402C2F2000240F200011278C2F2000128
:100AA0004FF47A730968B3FBF2F20446B1FBF2F13A
:100AB000084600F049FC0F2C4FF001050CD858B93E
:100AC0004FF0FF3021460022002500F027F840F2C9
:100AD0000800C2F2000004602846B0BD82B00020C9
:100AE00043F640010190C4F202014A6842F4804298
:100AF0004A604A6802F480420192019A00900868B4
:100B000040F080500860086800F080500090009825
:100B100002B0704780B501F0C7FC80BD70B51446C7
:100B20000D46064601F0D0FC2946224601F068F940
:100B30000146304601F0D0FC70BD000080B501F0E8
:100B4000DDFC80BD2DE9F041002800F08B8043F6EC
:100B50000808C4F202080446D8F8F8030D4600F06D
:100B60000700884207D288F8F853D8F8F80300F055
:100B70000700A84276D12068810717D5410705D51F
:100B8000D8F8001041F4E051C8F80010010705D56D
:100B9000D8F8001041F46041C8F80010D8F80010EF
:100BA000A26821F0F0011143C8F80010C0073FD13E
:100BB000D8F8F80300F00700A84207D988F8F853DE
:100BC000D8F8F80300F00700A8424BD1206841078D
:100BD00007D5D8F80010E26821F4E0511143C8F8B5
:100BE0000010000708D5D8F80000216920F4604003
:100BF00040EAC100C8F8000000F07EF8D8F8001004
:100C000044F2E052C1F30311C0F60002515C40F21D
:100C1000000220FA01F140F20800C2F20000006870
:100C2000C2F200021160FFF731FF0020BDE8F08141
:100C30006068811E022907D258F8081C89015CBF30
:100C40000120BDE8F08110E0012807D158F8081C08
:100C500089035CBF0120BDE8F08106E058F8081C5C
:100C6000890702D40120BDE8F081D8F8001021F0F6
:100C700003010843C8F80000FFF7D8FE064641F21A
:100C8000883700BFD8F80000616800F00C00B0EBB6
:100C9000810F8DD0FFF7CAFE801BB842F2D9032026
:100CA000BDE8F08140F20000C2F200000068704729
:100CB00080B5FFF7F7FF43F60801C4F202010968A7
:100CC00044F2F052C1F38221C0F60002515CC840E8
:100CD00080BD000080B5FFF7E5FF43F60801C4F2D0
:100CE0000201096844F2F052C1F34231C0F6000239
:100CF000515CC84080BD000010B543F60404C4F246
:100D00000204606800F00C0008280AD0042819BF0B
:100D100042F20040C0F2F40047F64000C0F27D10FD
:100D200010BD206821682368490247F64001C0F2DF
:100D30007D1100F03F02C3F388105CBF42F2004116
:100D4000C0F2F401A1FB00010023FFF73FFA216884
:100D50000222C1F3014102EB4101B0FBF1F010BDF1
:100D60002DE9F04182B0002800F09F800446007811
:100D700043F60006C007C4F2020641D0B06800F096
:100D80000C00042805D13068800339D56068B8BBF1
:100D90008BE0B06800F00C00082802D170684002B7
:100DA000F1D46568B5F5803F06D03068B5F5A02F61
:100DB00006D140F480203060306840F4803005E097
:100DC00020F480303060306820F480203060FFF7FD
:100DD0002DFE002D054610D03068800310D4FFF79B
:100DE00025FE401B6428F7D922E100BFFFF71EFE55
:100DF000401B64284FF0030054D830688003F5D4BA
:100E0000207880071AD5B06810F00C0F09D0B068B0
:100E100000F00C00082840F08C807068400200F15F
:100E200088803068800702D5E06801283DD13068AD
:100E3000216920F0F80040EAC10030602078000706
:100E400037D4207840074AD4A56955B3B06800F07C
:100E50000C00082840F0A080012D26D07068E169C0
:100E600000F480028A4220D1216A00F03F028A42C7
:100E70001BD147F6C071626A0140B1EB821F14D1E9
:100E8000A16A4FF6FF73C903994300F44032A1F5FC
:100E900080318A4209D1E16A00F07060B0EB016FE5
:100EA00003D1002002B0BDE8F081012002B0BDE80E
:100EB000F0816069002840F20000C4F247205AD057
:100EC0000121C0F8801EFFF7B1FD0546706F800755
:100ED000B7D4FFF7ABFD401B0228F7D9A8E0306C70
:100EE0004FF00008C0000CD4CDF80480306C4FF0F7
:100EF000010840F080503064306C00F08050019068
:100F0000019847F20007C4F200073868C00525D4ED
:100F1000386840F480703860FFF788FD054600BFF0
:100F20003868C0051AD4FFF781FD401B0228F7D9A5
:100F30007EE0E068002851D00020C4F24720012163
:100F40000160FFF773FD0546306880073FF56FAF1E
:100F5000FFF76CFD401B0228F6D969E0A568012D5A
:100F600005D0306F052D4DD140F004003067306F53
:100F700040F001004CE00021C0F8801EFFF756FD54
:100F8000054600BF706F80077FF55BAFFFF74EFD32
:100F9000401B0228F6D94BE00027C4F24727002067
:100FA0003866FFF743FD022D05460BD130688001FE
:100FB00056D5FFF73BFD401B02284FF00300F5D943
:100FC00070E700BF306880017FF56BAFFFF72EFD43
:100FD000401B02284FF00300F4D963E70020C4F25D
:100FE000472000210160FFF721FD0546306880079A
:100FF0007FF524AFFFF71AFD401B02284FF00300D6
:10100000F4D94FE720F001003067306F20F0040082
:101010003067FFF70BFD002D054641F2883713D0EE
:10102000306F800713D4FFF701FD401BB842F7D99A
:10103000032002B0BDE8F081FFF7F8FC401BB84286
:101040004FF003003FF62EAF306F8007F4D4B8F1B5
:10105000000F3FF4F9AE306C20F080503064F3E6BE
:1010600004F11C052FCD084340EA8210D9034FF646
:10107000FF729143A1F5803140EA0560084370603A
:1010800001203866FFF7D2FC044600BF30688001BB
:101090003FF507AFFFF7CAFC001B02284FF0030023
:1010A000F4D9FFE670B538B10446406A30B100208B
:1010B000206104F1140007E0012070BD6068B0F504
:1010C000827F03D004F11C00002101600026A6628B
:1010D00094F8510020B9204684F8506000F03CF8A4
:1010E000022084F8510094E80F0001F48271056831
:1010F00002F4044225F040050560114403F4006247
:101100002369114403F002026369114403F00102F0
:10111000A369E569114403F40072114405F0380233
:10112000256A114405F08002A56A114305F40052B6
:1011300011430160626A042101EA134102F01002C6
:1011400011444160C16921F40061C16101206665FB
:1011500084F85100304670BD80B586B000220592FB
:10116000CDE9032243F200010068C4F20101884284
:101170000292019201D006B080BD43F63000009289
:10118000C4F20200436943F480534361436903F4AA
:1011900080530093009B0092036843F001030360B7
:1011A000006800F0010000900098E020019002200B
:1011B000CDE90202032004900520059001F550407E
:1011C00001A9FFF759FB06B080BD00002DE9F043EF
:1011D00081B0044690F85000012803D1022001B0EC
:1011E000BDE8F0834FF001091D4616460F4684F80E
:1011F0005090FFF71BFC94F8511001295DD18046F7
:10120000002F4FF0010018BF002E00F09580032042
:1012100084F85100002060652763A686E686A063F7
:10122000A087E087A168C4E91000B1F5004F08D19C
:101230002068016821F040010160016841F48041AB
:10124000016020680168490603D4016841F040014B
:1012500001606168731EE268B1FA81F1B3FA83F349
:1012600049095B09B2F5006F41EA030127D139B1A1
:10127000216B0988C160B81C2063E08E0138E086CC
:10128000E08E002841D06E1C0AE000BF216B31F8CF
:10129000022BC2602163E08E0138E086E08EA0B3AD
:1012A000206881688907F1D4FFF7C0FB002EF5D0D4
:1012B000A0EB0800A842F1D325E002203CE039B1C0
:1012C00039780173206B01302063E08E0138E086AD
:1012D000E08ED0B16E1C0AE0216B09780173206B9F
:1012E00001302063E08E0138E086E08E68B120682E
:1012F00081688907F0D4FFF799FB002EF5D0A0EBA9
:101300000800A842F1D3032016E0204629464246B1
:1013100000F08EFD00281CBF20206065A06838B951
:10132000002000902068C1680091806800900098BB
:10133000606D002818BF0120002184F8519084F8C6
:10134000501001B0BDE8F08380B500F04BFE80BDC9
:10135000704700007047000010B590F83C20012A4B
:101360004FF0020240D0012380F83C3080F83D204D
:101370000268D2F804E0D2F808C00C682EF07003BE
:10138000234340F6FF34C4F20004A24253600FDC52
:10139000B2F1804F1DD040F20043C4F200039A42E4
:1013A00017D040F60003C4F200039A4211D015E0B2
:1013B00040F60043C4F200039A420AD044F200030C
:1013C000C4F201039A4204D00023C4F201039A42FA
:1013D00004D149682CF08003194391600121002257
:1013E00080F83D1080F83C20104610BD002804BF56
:1013F0000120704710B5044690F83D0028B9002040
:1014000084F83C00204600F01FF8022084F83D00DC
:101410002068211D00F062FE012084F8460084F857
:101420003E0084F83F0084F8400084F8410084F8CE
:10143000420084F8430084F8440084F8450084F8AE
:101440003D00002010BD000080B582B00068B0F102
:10145000804F01D002B080BD0020019043F64000D3
:10146000C4F202000168002241F00101016000683D
:10147000002100F00100019001981C20FFF74EFBB5
:101480001C20FFF747FB02B080BD000090F83D1024
:1014900001291CBF01207047022180F83D1000681F
:1014A00040F6FF32C168C4F20002904241F00101EF
:1014B000C1600FDCB0F1804F1DD040F20041C4F29A
:1014C0000001884217D040F60001C4F200018842B2
:1014D00011D017E040F60041C4F2000188420AD062
:1014E00044F20001C4F20101884204D00021C4F298
:1014F0000101884206D1816801F00701062904BF75
:1015000000207047016841F0010101600020704730
:1015100010B5044690F83C0001284FF0020008BFC7
:1015200010BD012284F83C2084F83D0020684FF66D
:10153000777382689A4382600A684F2A0FDC1F2AF9
:1015400022DD202A23D0302A21D0402A4DD14B68D9
:10155000CA68194600F014FF206840213BE06F2A5A
:1015600017DDB2F5005F20D0B2F5805F2AD0702A77
:101570003BD1D1E9012CCB68614600F02FFE2068F9
:10158000816841F077011AE00AB1102A2DD1114685
:1015900021E0502A18D0602A27D14B68CA68194622
:1015A00000F000FF2068602115E0D1E9012CCB6834
:1015B000614600F013FE2068816841F4804181603B
:1015C00000200BE0002009E04B68CA68194600F0D3
:1015D000D7FE2068502100F00DFE0020012184F884
:1015E0003D10002184F83C1010BD0120F6E70000FA
:1015F0007047000010B5044600680169890744BFC0
:10160000C1685FEA817138D420680169490744BF25
:10161000C1685FEA41713CD420680169090744BF91
:10162000C1685FEA017141D420680169C90644BFFD
:10163000C1685FEAC16145D420680169C9071CBF60
:10164000C1685FEAC1714AD120680169090644BFD7
:10165000C1685FEA016149D420680169490644BF55
:10166000C1685FEA416148D420680169890644BFC6
:10167000C1685FEA816147D410BD6FF0020101616A
:10168000012121778069800745D02046FFF7B0FF10
:1016900047E06FF00401016102212177806910F4B5
:1016A000407F41D02046FFF7A3FF43E06FF00801E1
:1016B000016104212177C06980073ED02046FFF7F1
:1016C00097FF40E06FF01001016108212177C069A8
:1016D00010F4407F3AD02046FFF78AFF3CE06FF0DD
:1016E00001010161204600F089F9ADE76FF080014A
:1016F00001612046FFF72CFEAEE76FF0400101616B
:10170000204600F07DF9AFE76FF02001016120462F
:10171000FFF720FE10BD204600F06CF8204600F0D8
:1017200001F9002020776FE7204600F063F820469B
:1017300000F0F8F8002020776EE7204600F05AF815
:10174000204600F0EFF8002020776DE7204600F0FB
:1017500051F8204600F0E6F8002020776CE7000002
:1017600080B586B00021CDE90411CDE902110068F1
:1017700040F60002C4F200029042019118D0B0F18C
:10178000804F34D10020009043F63000C4F20200B4
:10179000016841F0010101600068012100F00100D1
:1017A000009000980F2001900020C4F2020015E084
:1017B00043F630000091C4F20200016841F00201DA
:1017C00001600068022100F0020000900098C02033
:1017D00001900020C4F2020000F580600222029213
:1017E0000022CDE90322059101A9FFF745F806B0D3
:1017F00080BD000070470000B0B5044690F83C0082
:10180000012804BF0220B0BD0D464FEAB2010120FD
:10181000032984F83C0037D8DFE801F0020A1222DD
:101820002068294600F0EEFC206850F8181F0EE0F2
:101830002068294600F016FD206850F8181F16E0B1
:101840002068294600F042FD206850F81C1F41F036
:1018500008010160016821F00401016029690FE0BD
:101860002068294600F066FD206850F81C1F41F4EE
:1018700000610160016821F4806101602969090249
:101880000268114301600020002184F83C10B0BDC3
:10189000002804BF0120704710B5044690F83D00B1
:1018A00028B9002084F83C00204600F01FF80220F0
:1018B00084F83D002068211D00F010FC012084F810
:1018C000460084F83E0084F83F0084F8400084F825
:1018D000410084F8420084F8430084F8440084F80E
:1018E000450084F83D00002010BD000081B0006874
:1018F00040F60001C4F20001884201D001B07047F7
:101900000020009043F64000C4F20200016841F05C
:1019100004010160006800F004000090009801B02C
:101920007047000070470000B0B5044641B1082977
:1019300009D0042914BF04F1410004F13F0004E080
:1019400004F13E0001E004F14000007801281CBFD2
:101950000120B0BD022041B1082909D0042914BFDB
:1019600084F8410084F83F0004E084F83E0001E080
:1019700084F84000206844250122C4F2010500F0EB
:101980001BFC2068A5F14401884203D1296841F479
:101990000041296040F6FF31C4F2000188420FDCAB
:1019A000B0F1804F1DD040F20041C4F200018842E6
:1019B00017D040F60001C4F20001884211D017E0B0
:1019C00040F60041C4F2000188420AD044F200010E
:1019D000C4F20101884204D00021C4F2010188420E
:1019E00006D1816801F00701062904BF0020B0BDBF
:1019F000016841F0010101600020B0BD70470000A6
:101A000070470000002804BF0120704710B504464D
:101A100090F83D0028B9002084F83C00204600F0F2
:101A200021F8242084F83D002068C16821F4005189
:101A3000C160204600F0C8FC2068016921F4904193
:101A40000161416921F02A014161C16841F40051FD
:101A5000C16000202021206484F83D1084F83E10ED
:101A600010BD000080B586B000220592CDE90322AA
:101A700041F200010068C4F2010188420292019221
:101A800001D006B080BD43F630000092C4F20200DF
:101A9000436943F010034361436903F0100300936B
:101AA000009B0092036843F001030360006800F0AC
:101AB0000100009000984FF4C06001900220CDE931
:101AC0000202032004900720059001F5704001A94F
:101AD000FEF7D2FE06B080BDFEE700002DE9F04320
:101AE00087B0002743F630000697CDE90477CDE9AB
:101AF00002770197C4F20200016840F2004541F00C
:101B0000040101600168C4F2020501F004010191C1
:101B1000019901970168002241F08001016001688C
:101B200040F23B4601F08001019101990197016863
:101B300041F001010160016801F001010191019989
:101B40000197016841F002010160006840F23B41E9
:101B500000F00200019001982846FEF761FFA5F50C
:101B6000806420464FF4004100224FF40048FEF705
:101B700057FF029602AE4FF0010928463146CDE9E3
:101B800003970597FEF778FE4FF47040CDE9020702
:101B90000220049028463146FEF76EFE204631466C
:101BA000CDE90289CDE90477FEF766FE07B0BDE80E
:101BB000F083000010B540F2800043F20001C2F251
:101BC0000000C4F201014FF48272002380E80E008D
:101BD00000F10C014FF0020C4FF0010E4FF40074B5
:101BE00081E808500A21C0E90643C0E90833C0E98A
:101BF0000A31FFF757FA002818BFFEF723FE10BD81
:101C000010B58EB040F2D8000021C2F200004FF0B3
:101C10008042532344F61F640D91CDE90B11CDE9A9
:101C20000911CDE90711CDE90511CDE90311CDE980
:101C30000111C0E90023C0E9021401618021816122
:101C4000FFF7D4FB002818BFFEF7FCFD4FF48050CF
:101C50000A9040F2D800C2F200000AA9FFF758FC2F
:101C6000002818BFFEF7EEFD40F2D800C2F20000D7
:101C7000FFF70EFE002818BFFEF7E4FD40F2D80083
:101C80000024C2F2000008A9CDE90844FFF764FB74
:101C9000002818BFFEF7D6FD6020CDE9010440F210
:101CA000D800C2F2000001A9002203940594FFF7B6
:101CB000A3FD002818BFFEF7C5FD40F2D800C2F210
:101CC000000001A90422FFF797FD002818BFFEF7C6
:101CD000B9FD40F2D800C2F2000001A90822FFF7C6
:101CE0008BFD002818BFFEF7ADFD40F2D800C2F210
:101CF000000001A90C22FFF77FFD002818BFFEF7A6
:101D0000A1FD40F2D800C2F20000FFF729FD0EB09D
:101D100010BD000010B58AB040F2201040F600015E
:101D20000024C2F20000C4F200014FF6FF720994D1
:101D3000CDE90744CDE90544CDE90344CDE90144AB
:101D4000C0E90014C0E9024204618461FFF7A0FD0C
:101D5000002818BFFEF776FD40F22010C2F2000006
:101D600008A9CDE90844FFF7F7FA002818BFFEF7E5
:101D700069FD602001900020CDE90200059040F24D
:101D80002010C2F2000001A90022FFF735FD002853
:101D900018BFFEF757FD40F22010C2F2000001A963
:101DA0000422FFF729FD002818BFFEF74BFD40F283
:101DB0002010C2F20000FFF7D3FC0AB010BD0000F3
:101DC00080B540F2681041F20001C2F20000C4F296
:101DD000010100234FF00C0C4FF4E13280E80E00BB
:101DE000C0E90333C0E905C3C361FFF70BFE002858
:101DF00018BFFEF727FD80BDFEE70000FEE70000EC
:101E000000F0070080F00703042B28BF04234FF0E5
:101E1000FF3C03380CFA03F338BF0020994381409C
:101E20000CFA00F022EA00000843704770470000F7
:101E300010B582B040F20003C2F200031B6849F6FD
:101E40008174C1F25E64A3FB043C04464FEA5C501B
:101E50004FF47A73584301906068B0F5827F0DD1DA
:101E600013460A462046802100F014F878B1606DD0
:101E700040F020006065032002B010BD019830B131
:101E8000019801380190206880680006F6D400208F
:101E900002B010BD2DE9F04381B01E4690460D46BC
:101EA0008146FEF7C3FD301A00EB0807FEF7BEFDC2
:101EB00040F20001C2F200010968C1F3CB3179435D
:101EC0000091D9F8001089682940A94219D1064625
:101ED00008F1010406E000BFD9F80000806828403E
:101EE000A8420ED1002CF7D0FEF7A0FD801BB8420F
:101EF0000BD200980099002808BF0746481E0090A2
:101F0000EAE7002001B0BDE8F083D9E900014268AA
:101F1000B1F5827F22F0E00242600BD1D9F80810BF
:101F2000B1F5004F02D0B1F5806F03D1016821F007
:101F300040010160D9F82810B1F5005F07D10168B0
:101F400021F400510160016841F400510160012059
:101F500089F85100002089F85000032001B0BDE845
:101F6000F08300007047000080B540F2500044F25A
:101F70000001C2F20000C4F256010022C0E90021B3
:101F800040F258000021C2F20000C4F23401C0E95E
:101F9000002140F260000021C2F20000C3F6E071AF
:101FA000C0E9002140F2680044F20001C2F20000E2
:101FB000C4F26501C0E9002140F270000021C2F2C4
:101FC0000000C3F6F071C0E9002140F2780044F24D
:101FD0000001C2F20000C4F25501C0E90021FEF781
:101FE000FDFB80BDB0B501380024B4EB106F1CBF01
:101FF0000120B0BD4EF21005CEF2000568604FF032
:10200000FF300F2100F068FA0720AC6028602046FE
:10201000B0BD000080B5FEF70FFD80BD70B592B079
:1020200006AC20463021FEF709F9002543F64000B2
:102030000595CDE90355CDE901550095C4F202009F
:102040000168022641F080510160006800F0805074
:102050000090009847F200000095C4F2000001686B
:1020600066F38F310160006800F4404000900098F2
:102070000120099010200A9008200696CDE90C65F1
:102080000E905420CDE90F06042011902046FEF753
:1020900067FE78B90F20CDE901064FF48050039513
:1020A000CDE9040501A80221FEF74CFD002804BF7C
:1020B00012B070BDFEF7C6FB4EF68850CEF200009F
:1020C000016841F4700101607047000080B540F282
:1020D000D800C2F20000FFF78DFA80BD10B540F2C3
:1020E000FF7E0368C4F2000E40F2000C7045C4F29B
:1020F000010C0ADD40F60002C4F2000290420DD04D
:1021000060450BD040F6004204E0B0F1804F05D0AE
:1021100040F20042C4F20002904203D14A6823F028
:10212000700313434FF6FF72C4F20002904209DCC1
:10213000704512DCB0F1804F26D040F20042C4F26C
:1021400000021FE044F2FF32C4F2010290420FDCB1
:10215000604519D044F2000212E040F60002C4F2D9
:102160000002904210D040F60042C4F2000209E0A2
:1021700044F60002C4F20102904205D044F200424B
:10218000C4F20102904203D1CA6823F4407313439E
:1021900023F080024B69D1F800E08C681A43604557
:1021A0000260C462C0F828E002D10969CCF830109E
:1021B0000121416110BD000080B501F01F014FF009
:1021C000010CD0F820E00CFA01F32EEA03030362BD
:1021D000036A02FA01F11943016280BDD0F808C018
:1021E00011432CF47F4C41EA032141EA0C01816048
:1021F00070470000826822F07002114341F007012D
:102200008160704770B5026A40F2000E22F0010250
:102210000262026A456883690C688E6823F0730362
:1022200022F00202C4F2010E43EA040C704542EAB5
:10223000060208D070450ED04560C0F818C0496845
:102240004163026270BDCB6822F00C0223F00403EC
:102250001A437045F0D125F44073D1E90565334345
:102260001D43E9E770B5026A40F2000E22F0100249
:102270000262026A456883690C688E6823F4E6434B
:1022800022F02002C4F2010E43EA042C704542EA17
:10229000061208D0704510D04560C0F818C04968D3
:1022A0008163026270BDCB686FF0400422F0C0020F
:1022B00004EA03131A437045EED125F44063D1E9D3
:1022C000056543EA860343EA8505E5E770B5026ADA
:1022D00040F2000E22F480720262026A4568C3690D
:1022E0000C688E6823F0730322F40072C4F2010EAE
:1022F00043EA040C704542EA062208D0704510D02B
:102300004560C0F81CC04968C163026270BDCB68FB
:1023100040F2FF441B0222F44062A3431A4370457B
:10232000EED125F44053D1E9056543EA061343EAAB
:102330000515E5E7B0B5026A22F480520262046A2C
:10234000D0F804E0C2690B6822F4E6428D6842EAE4
:10235000032C002324F40052C4F20103984242EA01
:10236000053304D14A692EF4804545EA821EC0F83F
:1023700004E0C0F81CC0496801640362B0BD0000FD
:10238000D0F820C0036A23F001030362836923F0BD
:10239000F00343EA02122CF00A031943826101623E
:1023A00070470000036A23F0100303628369D0F8CA
:1023B00020C023F4704343EA02322CF0A00343EA26
:1023C000011182610162704710B504460068D4E9CA
:1023D00002C22369016921F440511143016162691C
:1023E00043EA0C01E3691143C268194349F20C63E3
:1023F0009A431143C1604169A26921F4407141F2DD
:102400000043114340F48062C4F201039A424161E7
:1024100002D1FEF75FFC01E0FEF74AFCE169636868
:102420001922B1F5004FA0FB02011CD15A00DB0FAD
:10243000FDF7CCFE48F21F51C5F2EB11A0FB0123C2
:102440005A096FF0630302FB0300322303EBC00061
:10245000A0FB01014FF4F87000EA111000EB02102C
:10246000C1F342111AE09A009B0FFDF7AFFE48F24C
:102470001F51C5F2EB11A0FB01235A096FF0630352
:1024800002FB0300322303EB0010A0FB0101F0204C
:1024900000EA511000EB0210C1F343112268084317
:1024A000906010BDFEE70000002848BF704700F0B4
:1024B0001F01012202FA01F14EF200124009CEF290
:1024C000000242F8201070474EF60C50CEF2000089
:1024D0000068C0F3022070474EF6145300F00F025C
:1024E000CEF2000309011A4400F16043B0F1FF3F4E
:1024F000C8BF03F564421170704700004EF60C51DE
:10250000CEF200010A684FF6FF031A4060F30A2278
:1025100042F0806040F0FD700860704700000000ED
:10252000B0B52DED068B9FED1E9B54EC105BB0EE0D
:10253000408A53EC192B28462146F0EE608AFDF7BD
:102540004AFF88B99FED18AB284653EC1A2B214659
:10255000FDF726FFB0EE489AF0EE689A002804BF17
:10256000B0EE4A9AF0EE6A9A51EC190BFDF74EFF65
:102570004FF4FA61484346F2B701CBF20B6151FBCD
:102580000000C11101EBD07040F6340100F5FA7083
:10259000C4F200010860BDEC068BB0BD00BF00BFF7
:1025A0000000000000706640000000000000E03FF6
:1025B000B0B52DED068B9FED1E9B54EC105BB0EE7D
:1025C000408A53EC192B28462146F0EE608AFDF72D
:1025D00002FF88B99FED18AB284653EC1A2B214611
:1025E000FDF7DEFEB0EE489AF0EE689A002804BFD0
:1025F000B0EE4A9AF0EE6A9A51EC190BFDF706FF1D
:102600004FF4FA61484346F2B701CBF20B6151FB3C
:102610000000C11101EBD070402100F5FA70C4F246
:1026200000010860BDEC068BB0BD00BF00BF00BF5D
:102630000000000000706640000000000000E03F65
:10264000B0B52DED068B9FED1E9B54EC105BB0EEEC
:10265000408A53EC192B28462146F0EE608AFDF79C
:10266000BAFE88B99FED18AB284653EC1A2B2146C9
:10267000FDF796FEB0EE489AF0EE689A002804BF87
:10268000B0EE4A9AF0EE6A9A51EC190BFDF7BEFED5
:102690004FF4FA61484346F2B701CBF20B6151FBAC
:1026A0000000C11101EBD070342100F5FA70C4F2C2
:1026B00000010860BDEC068BB0BD00BF00BF00BFCD
:1026C0000000000000706640000000000000E03FD5
:1026D000B0B52DED068B9FED1E9B54EC105BB0EE5C
:1026E000408A53EC192B28462146F0EE608AFDF70C
:1026F00072FE88B99FED18AB284653EC1A2B214681
:10270000FDF74EFEB0EE489AF0EE689A002804BF3E
:10271000B0EE4A9AF0EE6A9A51EC190BFDF776FE8C
:102720004FF4FA61484346F2B701CBF20B6151FB1B
:102730000000C11101EBD07040F6380100F5FA70CD
:10274000C4F200010860BDEC068BB0BD00BF00BF45
:102750000000000000706640000000000000E03F44
:10276000B0B52DED068B9FED1E9B54EC105BB0EECB
:10277000408A53EC192B28462146F0EE608AFDF77B
:102780002AFE88B99FED18AB284653EC1A2B214638
:10279000FDF706FEB0EE489AF0EE689A002804BFF6
:1027A000B0EE4A9AF0EE6A9A51EC190BFDF72EFE44
:1027B0004FF4FA61484346F2B701CBF20B6151FB8B
:1027C0000000C11101EBD0703C2100F5FA70C4F299
:1027D00000010860BDEC068BB0BD00BF00BF00BFAC
:1027E0000000000000706640000000000000E03FB4
:1027F000B0B52DED068B9FED1E9B54EC105BB0EE3B
:10280000408A53EC192B28462146F0EE608AFDF7EA
:10281000E2FD88B99FED18AB284653EC1A2B2146F0
:10282000FDF7BEFDB0EE489AF0EE689A002804BFAE
:10283000B0EE4A9AF0EE6A9A51EC190BFDF7E6FDFC
:102840004FF4FA61484346F2B701CBF20B6151FBFA
:102850000000C11101EBD070382100F5FA70C4F20C
:1028600000010860BDEC068BB0BD00BF00BF00BF1B
:102870000000000000706640000000000000E03F23
:102880002DE9F04F85B040F20044C4F20204A4F5F3
:10289000806630464FF400410122FEF7C1F8204621
:1028A00008210022FEF7BCF8204610210022FEF786
:1028B000B7F8204620210022FEF7B2F820464FF458
:1028C0008051FEF7A7F80546002820464FF4005136
:1028D00018BF0125FEF79EF8002820464FF48041DE
:1028E00018BF0225FEF796F8002820464FF4004155
:1028F00018BF0325FEF78EF8002830464FF400413C
:102900004FF0000218BF0425FEF78AF82046082180
:102910000122FEF785F8204610210022FEF780F8FC
:10292000204620210022FEF77BF820464FF48051FC
:10293000FEF770F8002820464FF4005118BF052517
:10294000FEF768F8049020464FF48041FEF762F8E5
:10295000039020464FF40041FEF75CF802903046A9
:102960004FF400410022FEF75BF8204608210022C8
:10297000FEF756F8204610210122FEF751F82046B6
:1029800020210022FEF74CF820464FF48051FEF73C
:1029900041F8019020464FF40051FEF73BF80746FE
:1029A00020464FF48041FEF735F8804620464FF42C
:1029B0000041FEF72FF8814630464FF400410022D7
:1029C000FEF72EF8204608210022FEF729F82046BF
:1029D00010210022FEF724F8204620210122FEF7D4
:1029E0001FF820464FF48051FEF714F806462046A3
:1029F0004FF40051FEF70EF8824620464FF4804116
:102A0000FEF708F8834620464FF40041FEF702F82F
:102A10000499002918BF06250399002918BF072526
:102A2000029900294FF0080118BF0D4601990029AD
:102A300018BF0925002F18BF0A25B8F1000F18BFCD
:102A40000B25B9F1000F18BF0C25002E18BF0D255E
:102A5000BAF1000F18BF0E25BBF1000F18BF0F25EC
:102A600000284FF0100018BF0546284605B0BDE805
:102A7000F08F000082B0FDF7D9FF0090FDF7EAFF6C
:102A8000FFF7CCFAFFF72AF8FFF7BAF8FFF798F943
:102A9000FFF790F8FFF73EF940F2D804C2F20004C5
:102AA00020460021FEF740FF20460421FEF73CFFB0
:102AB00020460821FEF738FF20460C21FEF734FFA0
:102AC00040F22015C2F2000528460021FEF72CFF37
:102AD00028460421FEF728FF2046FEF7D7FC40F2E7
:102AE000AC15C2F2000544F2006143F68D0243F6D4
:102AF0000D43C0F60001C0F60002C0F600032846F0
:102B000000F05EFA284600F06DFE2846002100F035
:102B100079FE2820C4F20000532144F61F620160B0
:102B20004260C0F8001840F62C00C4F200000260B9
:102B3000FFF71AFA40F2100444F2F85640F21A076E
:102B400040F2240940F22E0B40F2380A40F24208CB
:102B5000C2F20004C0F60006C2F20007C2F2000989
:102B6000C2F2000BC2F2000AC2F20008FFF788FEB0
:102B700060B10190FDF75AFF0099401AC92805D3AA
:102B8000FDF754FF0090019801E000BF00200138DC
:102B90000B2818D85FA151F8202044F28051C0F6CC
:102BA000000101EBC00092ED000B90ED001B0192C3
:102BB00051EC100B53EC112BFDF74BFB41EC100BC0
:102BC000019880ED000BFDF709FE284600F05EF944
:102BD000284600F0C3F800BF44F20C612846C0F656
:102BE000000100F0ABF9284600210F2255A300F0A8
:102BF00043F940F25000C2F2000090ED000B204675
:102C000053EC102B314601F037F8284619210F22DA
:102C1000234600F031F9284641210F224AA300F053
:102C20002BF940F25800C2F2000090ED000B38463C
:102C300053EC102B314601F01FF828465A210F2281
:102C40003B4600F019F9284600211E223FA300F060
:102C500013F940F26000C2F2000090ED000B48460C
:102C600053EC102B314601F007F8284619211E229B
:102C70004B4600F001F9284641211E2234A300F002
:102C8000FBF840F26800C2F2000090ED000B5846DD
:102C900053EC102B314600F0EFFF28465A211E223C
:102CA0005B4600F0E9F8284600212D2229A300F018
:102CB000E3F840F27000C2F2000090ED000B5046C5
:102CC00053EC102B314600F0D7FF284619212D2256
:102CD000534600F0D1F8284600213C221EA300F004
:102CE000CBF840F27800C2F2000090ED000B4046B5
:102CF00053EC102B314600F0BFFF284619213C222F
:102D0000434600F0B9F8284600F0EAF800287FF4BE
:102D100063AF2BE750000020500000205800002037
:102D200058000020600000206000002068000020A3
:102D30006800002070000020700000207800002053
:102D40007800002044313A0044323A0044333A00DB
:102D500044343A0044353A0044363A0080B50168BC
:102D600090F83820097C406B5143C900FDF766FAA2
:102D700080BD0000F0B581B0054690F870001C469B
:102D8000164603280F4616D8DFE800F002070C119C
:102D9000E96D2846884706440DE0E96D28468847D6
:102DA0003F1A08E0E96D28468847361A03E0E96DC6
:102DB000284688470744B9B2B2B22846234600F0F5
:102DC00057FB01B0F0BD0000B0B584B0002BADF8EA
:102DD0000E10ADF80C20ADF80A304AD0044690F839
:102DE0008C00002845D00898012B07D0032819D063
:102DF000022803D1C91A0131ADF80E1010F00105F7
:102E000017D1BDF80C00B4F84C10884231D3B4F897
:102E10004E1088422DD2B4F84820B4F84A300DF153
:102E20000E0015E0D11A0131ADF80C1010F00105BB
:102E3000E7D0BDF80E00B4F84810884219D3B4F8B2
:102E40004A10884215D2B4F84C20B4F84E3003A88A
:102E50000DF10A0100F060F958B1206BBDF80E10B9
:102E6000D0F808C0BDF80C20BDF80A302046009507
:102E7000E04704B0B0BD000080B543F6790CC0F661
:102E8000000CC0F804C000F08BF980BD10B50446FA
:102E900090F8930010B12046FFF760FF2046002114
:102EA00000F03EF810BD0000F0B581B00646B6F85F
:102EB0004E401F46069BB0F84C000D46214600F0E0
:102EC00047FB48B1B6F84800B6F84A102A463B46D8
:102ED00000F03EFB01B0F0BD002001B0F0BD0000ED
:102EE000B0B5044600F008FC94F8390094F83810A6
:102EF00022680844517CC5B28D420BD294F89300ED
:102F000010B12046FFF72AFF2046294600F008F8B6
:102F10000120B0BD204600F06DFC0020B0BD0000D7
:102F200010B50446006B84F83910026820469047BB
:102F3000206B41682046884710BD000010B504464C
:102F4000806D884208BF10BD04F17400A16500F0D7
:102F50006BFB204600F058F810BD000043F2292119
:102F6000C0F60001C165704780B50021CFF6FF7142
:102F7000026B016541655168884780BDB0B5044664
:102F8000049884F838204FF480720025A4F891202A
:102F90000122A56584F8395084F86D5084F8932097
:102FA000C4E90B3002682046616390472046FFF772
:102FB000DBFF2046FFF7D2FF84F87050B0BD000061
:102FC000B0B582B09C4613460C4643F6BD2143F68D
:102FD0003112C0F60001C0F600020546CDF800C06F
:102FE00000F018FC0DF1070000F016FB9DF807201B
:102FF00043F279530146C0F6000328460094FFF7D8
:10300000BDFF02B0B0BD0000816DD9B190F88D3028
:1030100090F9812090F98210002B80F88E2080F8A2
:103020008F1008BF7047012B0DD190F983309A4261
:10303000B8BF80F88E3090F984209142C4BF80F8E8
:103040008F207047704790F97EC090F980309C4483
:103050009445C8BF80F88EC09942C8BF80F88F30B1
:1030600070470000022B07D0012B08D0002B14BFA3
:103070001044084480B27047401A80B27047801AEA
:1030800080B27047022B07D0012B08D0002B14BF51
:10309000401A104480B27047801A80B270470844CA
:1030A00080B2704710B582B0B0F85010B0F854201C
:1030B000B0F85230B0F856C00446CDF800C0FFF763
:1030C000F3FE20B3B4F84810B4F850000122814256
:1030D00084F88C2038BFA4F84800B4F84A10B4F83B
:1030E0005200814288BFA4F84A00B4F84C10B4F8EA
:1030F0005400814238BFA4F84C00B4F84E10B4F824
:103100005600814288BFA4F84E0002B010BD0020D6
:1031100084F88C0002B010BDB0B505880C889D42C3
:1031200004EB050C1FFA8CFE144638BF2C46E6450E
:103130000CBF2C46A3F1010E9D4228BFE6469C42DF
:103140004FF0000C0FD21FFA8EF595420BD9944226
:1031500038BF14469D4288BF9E460480AEEB0400F3
:103160004FF0010C08806046B0BD000010B582B081
:10317000B0F83EE0DDF810C0C46AA2EB0E0292B2D5
:10318000CDF800C0A04702B010BD000080B582B0ED
:10319000DDF810C0CDF800C0FFF7E8FF02B080BD39
:1031A0002DE9F04F81B0984692468B4606464FF681
:1031B000FF7900F05DFD726898F800103046904786
:1031C00048452BD0A9F1010108F1010400278DB277
:1031D00008E000BF0744726814F8011B30469047AE
:1031E00048451CD083B2AB42F5D01FFA8BF11FFAD1
:1031F0008AF23046FFF7BEFD96F870100329E9D831
:10320000DFE801F005070902AAEB000AE2E78344C0
:10321000E0E78244DEE7ABEB000BDBE70027B8B268
:1032200001B0BDE8F08F00000020704710B50C46DB
:1032300000F008F8611EC9B2012202FA01F1401A39
:1032400040B210BD10B502460068137B90F800C074
:1032500003EB010E5FFA8EF4082C2CFA03FC0AD360
:10326000441C1460C3F108034078DBB298404CEA78
:10327000000CAEF1080E4FF0FF3088402CEA000041
:10328000C0B282F80CE010BD2DE9F04F83B00446C7
:1032900000F1600500F044F994F87A1094F96BB0ED
:1032A0002846FFF7C3FF94F87B1082462846FFF7B5
:1032B000BDFF94F87C1007462846FFF7B7FF94F946
:1032C0006A808146B8F1010F70DB0BEB07014942C0
:1032D00094F87070B4F864004EB2514632463B46E2
:1032E000CDF80890FFF7BEFE8146B4F8660051465F
:1032F00032463B46A4F86490FFF7C4FE032FA4F8BF
:10330000660008D8DFE807F0020A111909EB080384
:1033100000EB0B0116E04B46014613E009F10103F7
:10332000A3EB0B0900EB08010CE009F10103411CC0
:10333000A3EB0809A1EB0B0004E0411C09EB0B0314
:10334000A1EB08008FB21FFA89F182B29BB220462E
:103350000097FFF7A9FDDDF8089038B30020A4F826
:10336000680000BF94F876102846FFF76BFF94F8CA
:10337000771006462846FFF765FF07462046314688
:10338000002200F017F820463946012200F012F81A
:1033900028460121FFF756FF0028EFD194F9690074
:1033A0005845DFDB94F86E0084F89200484603B07D
:1033B000BDE8F08F2DE9F04F87B0029290F86820B9
:1033C00090F8697004460E4694F86A00F1B2A0EBDA
:1033D000020A5FFA8AF094F870B0CDE90410D04682
:1033E0008142B4F86400B4F86650069638BFB0461F
:1033F00056B2B9467FB2019231463A465B46FFF774
:1034000031FE0390284631463A465B46FFF73AFEC6
:103410000299024681B194F86E004F4684F89200FA
:10342000069EDDE9045903995FFA88F32046CDF83A
:1034300000B0FFF7C9FC06E094F86D004F46069E09
:10344000DDE9045930B14D4509D3A6EB0A06013731
:103450000022B9E794F86F0084F89200E3E701983E
:1034600084F86970304484F8680007B0BDE8F08FD4
:1034700010B5A0F8641019460446A0F8662000F0C4
:103480000BF800280FBF002001462046FFF7FCFE86
:1034900080B210BD405C704770B50C46816DFF2C4A
:1034A00001F1170104D8612C21D3B0F8880029E07C
:1034B000B0F88A000E1835462846002100F02CF896
:1034C00006442846022100F027F8A04205F1040531
:1034D000F2D33088000400BF00BA30B1A0420BD054
:1034E000B078315A06440804F6E7012106E0412C81
:1034F00009D3B0F8860005E0F01C0021002918BFB0
:10350000002070BD0144487820B10A78A242F9D168
:10351000881C70BD002070BD405A00BA000C704776
:1035200010B5044644F8601F0020217E2073204619
:10353000FFF788FE617EA0722046FFF783FE94F8B5
:103540003210E072B1FA81F04009A173E07310BD4E
:1035500080B54FF0000C83424FF0000E88BF4FF053
:10356000010E9A4288BF4FF0010C0EEA0C008A420D
:1035700038BF4EEA0C0080BD2DE9F04102F007058E
:10358000012490F8926004FA05F7022EBC4628BF89
:103590004FF0000CB6F1010E18BFBE460768DDF80B
:1035A00018803F7C22F00706426BB8F1000F07FB42
:1035B00006F620D012FA86F211440CE0428F90F801
:1035C00092601144012E98BFA44618BFA6461A0463
:1035D00008BFBDE8F0810A78013B42EA0C0282EAAA
:1035E0000E020A706A1C12F00705E7D04FEA4C0C75
:1035F0004FEA4E0EEBE7B0B208441044013800BF6A
:1036000010F8011F013B41EA0C0181EA0E011A0486
:103610000170F5D1BDE8F081014640F24020012261
:10362000C2F200000A707047B0B50D460446084665
:103630000021FFF72FFF207028460121FFF72AFF06
:10364000607028460221FFF725FFA070284603215D
:10365000FFF720FFE07028460421FFF71BFF2071D1
:1036600028460521FFF716FF607128460621FFF75F
:1036700011FFA07128460721FFF70CFFE0712846D3
:103680000821FFF707FF207228460921FFF702FFF4
:10369000607228460A21FFF7FDFEA07228460B2122
:1036A000FFF7F8FEE07228460C21FFF7F3FE2073C7
:1036B00028460D21FFF7EEFE607328460E21FFF726
:1036C000E9FEA07328460F21FFF7E4FEE0732846C9
:1036D0001021FFF7DFFE207428461121FFF71CFFA1
:1036E000608228461321FFF717FFA0822846152184
:1036F000FFF712FFE082B0BD2DE9F041044690F8DB
:103700003880006894F83960477C0025E9B2F2B24D
:10371000204600F00DF80136F0B2B84228BFBDE8EF
:10372000F0810135E8B24045F0D3BDE8F0810000FA
:1037300080B582B00368D0F834C01B7C5943C900FF
:103740001CFA81FC0021CDF800C000F037F802B06F
:1037500080BD0000B0B590F838100568CB008387B5
:1037600095F810C090F8393095F811E04FEACC0C7C
:10377000DA005C18A0F83AC0C287744588BFAEEB87
:103780000301C90001EBC301A0F84020A0F84210DA
:1037900069694164B0BD000080B5FFF7DBFF80BD03
:1037A00080B50021A0F84810B0F84410026CA0F8D1
:1037B0004A10C264FFF776FC80BD000080B582B07D
:1037C000DDF810C0D0F808E08DF805108DF806205F
:1037D0008DF804306B460F210122CDF800C0F04770
:1037E00002B080BD80B5D0F808C00A2100220023B5
:1037F000E04780BD80B5D0F808C01021002200232A
:10380000E04780BD80B5D0F808C00A460B210023F0
:10381000E04780BD2DE9F041DDF818801C461546D3
:103820000E46074600F00AF83846C7E90265C7E9C0
:10383000044800F019F8BDE8F081000043F6FD32BD
:103840000021C0F600024FF47F430160A0F823304E
:1038500080F82610C0E90222C0E904228161FF211C
:1038600080F828107047000080B5D0F808C0092102
:1038700000220023E04780BD00294FF6FF7008BFFB
:1038800070470A2918BF08467047000080B5A1F1AB
:10389000140CBCF10C0F4FF0000088BF80BDDFE8B6
:1038A0000CF028292907111929292929292921005A
:1038B00040F28000C2F2000019464FF0FF33FDF7DE
:1038C00085FC16E040F20040C4F202004FF4806133
:1038D00000220CE040F20040C4F202004FF480618C
:1038E000012204E040F20040C4F202000221FDF790
:1038F00097F8012080BD000080B582B08DF80710D8
:103900000DF10702012100F003F802B080BD0000B4
:1039100080B5D0F810C013460A461721E04780BD95
:1039200080B5D0F810C00A4620210023E04780BDB2
:103930002DE9F0410F461439052912D805461E46D7
:103940009046DFE801F01503031115152846002104
:10395000FFF7E6FF28464146FFF7CEFF0120BDE80E
:10396000F0810020BDE8F08128460121FFF7D8FF53
:103970002C692846394642463346A047BDE8F081C7
:1039800080B5D0F80CC0192100220023E04780BD8B
:1039900080B5D0F80CC00A4616210023E04780BD50
:1039A00080B5D0F80CC00A4615210023E04780BD41
:1039B00080B5D0F80CC013460A461721E04780BDF9
:1039C000F0B581B00E4604460DF103050AE000BFD4
:1039D000A1F11800022817D2E66820460022002331
:1039E000B0473E46374617F8011B1729F0DCA1F116
:1039F0001500022813D27278E768204600238DF85C
:103A00000320B8470236EDE7FE2914D1727820462C
:103A100029218DF8032000F0F3F80236E2E7172998
:103A200009D1707801218DF8030020462A46FFF75E
:103A3000BFFF0236D6E701B0F0BD000080B5D0F878
:103A40000CC0182100220023E04780BD10B5D0F83B
:103A500014C02821002200230446E047D4F80CC0FB
:103A60002046142100220023E04720464B2101225A
:103A700000F0C6F8206829210279204600F0C0F83D
:103A800020464B21002200F0BBF820682921027952
:103A9000204600F0B5F820464B21012200F0B0F896
:103AA000206829214279204600F0AAF810BD0000C4
:103AB0008A7C016080F8222070470000B0B50D4676
:103AC000044600F01FF808B10120B0BD092D0DD04B
:103AD0000A2D14D12046FFF7B9FF45F28321C0F625
:103AE00000012046FFF76CFF0120B0BD45F2C42164
:103AF000C0F600012046FFF7DBFF0120B0BD00202B
:103B0000B0BD00002DE9F0410B39044604294FF007
:103B1000000088BFBDE8F0811546DFE801F0035FD3
:103B2000131F30002046002D07BF45F2B821C0F614
:103B3000000145F2BD21C0F60001FFF741FF012061
:103B4000BDE8F081002D4BD045F27C21C0F600018C
:103B50002046FFF735FF2068C07C4AE02046FFF78B
:103B60006DFF20468121FFF71BFF20462946FFF706
:103B70000FFF2046FFF704FF0120BDE8F08120463B
:103B80001E46FFF75BFF707994F8221001EBC00727
:103B9000204640215FFA87F8FFF702FF4FEA18102E
:103BA00000F110012046FFF7FBFE07F00F01204651
:103BB000FFF7EEFEB07940F0B0012046FFF7E8FED7
:103BC00030793268C000C1B22046FFF7F1FE013DF6
:103BD0002806F5D12046FFF7D3FE0120BDE8F0818D
:103BE00045F27521C0F600012046FFF7E9FE206886
:103BF000807C84F822000120BDE8F081002070471D
:103C000080B5D0F814C00023E04780BD80B5A1F195
:103C1000280023282AD8DFE800F0121429292929AE
:103C20002929292929292929292929292929292904
:103C3000292929292929292929292929192201203C
:103C400000E01046FCF704FE012080BD40F2004079
:103C5000C4F202000221FCF7E3FE012080BD40F225
:103C60000040C4F202000121FCF7DAFE012080BD11
:103C7000002180F8261070470FB4084B10B504A936
:103C800002AA039800F0DEF8044602A9002000F022
:103C900070FC204610BC5DF814FB00007345000862
:103CA00002E008C8121F08C1002AFAD17047704705
:103CB000002001E001C1121F002AFBD17047000063
:103CC0002DE9FF5F82B00021DDE90430020DDDF84F
:103CD00040B0034318D044F61050A2F2FF324243E2
:103CE0001514119801281FD0A5EB0B00401C5FEAAA
:103CF000000A4FF000064E4FDFF83891B0465046AC
:103D000015D5CAF1000413E0119801244AA3012833
:103D100001D16FEA0B010298119AC0E90031C0E9A4
:103D2000024206B0BDE8F09FCBF10000DFE7044699
:103D30000021404A491842EB0450CDE9001012E03E
:103D4000E00707D032463B4640464946FCF721FC97
:103D50008046894632463B4610461946FCF719FC18
:103D600006460F466410002CEAD1DDE90401DDE9C6
:103D70000023BAF1000F06DAFCF70BFC42464B4673
:103D8000FCF707FC05E0FCF776FC42464B46FCF7E7
:103D900072FC04460E460022284BFCF7F3FC03D8C5
:103DA0004FF0FF30014607E00022254B2046314608
:103DB000FCF74FFAFCF7CEFC102409E0002C0ADBDC
:103DC0000A220023FCF702FA039B30321A55641EC4
:103DD00050EA0102F2D1641C039AC4F111031444A5
:103DE000119A012A03D0012208430DD10AE00843A9
:103DF00004D000204FF0110B119072E7A3EB0B05DC
:103E00006D1E0DE05B4504DD4FF0000205F101057C
:103E100004E003DA4FF00002A5F10105002AECD01E
:103E200002981199C0E90231C0E9004579E7000024
:103E3000000014400000F03F300000000000F0439C
:103E40000000E03F2DE9FF4F95B09B4689460646AE
:103E500000250FE2252877D100242746F84A0121C2
:103E6000059400E0044316F8013F203B01FA03F0FB
:103E70001042F7D130782A2811D06FF02F03307814
:103E8000A0F13002092A16D8059A44F0020402EB88
:103E9000820203EB42021044761C0590EFE759F8CA
:103EA000042B0592002A03DA504244F40054059092
:103EB00044F00204761C30782E2816D116F8010F33
:103EC00044F004042A280DD06FF02F023078A0F1BE
:103ED0003003092B09D807EB870302EB4303C7180C
:103EE000761CF3E759F8047B761C30786C280FD0E9
:103EF00006DC4C2817D068280DD06A2814D104E0BD
:103F0000742810D07A280FD10DE044F400140AE090
:103F100044F4801401E044F440147278824202D1E7
:103F200004F58014761C761C307866280BD013DCE0
:103F3000582877D009DC002875D04528F6D04628C7
:103F4000F4D047281AD19DE118E0632835D06428C1
:103F500079D0652812D195E1702873D008DC6728E4
:103F6000F1D069286FD06E280DD06F2806D1B5E04A
:103F700073282CD0752875D0782874D05A46179994
:103F800090476D1C75E1C4F30250022809D0032844
:103F90000DD0D9F8001004280DD00D6009F10409E6
:103FA00067E1D9F80010EA17C1E90052F6E7D9F83D
:103FB00000100D80F2E70D70F0E719F8041B8DF882
:103FC000001000208DF80100EA46012003E059F8B6
:103FD00004AB4FF0FF3061074FF0000102D40DE059
:103FE00008F101018846B9420FDA8045F8DB1AF87A
:103FF00008100029F4D108E008F101018846814247
:10400000FADB1AF808100029F6D105985B46A0EBF8
:10401000080721463846179A00F094FA284400EB26
:10402000080507E04DE029E10DE01AF8010B5A46BA
:1040300017999047B8F10108F7D25B4621463846F8
:10404000179A13E142E00A220092C4F302524FF0A1
:10405000000A022A08D059F804CB032A4FEAEC716F
:104060000AD00DE029E02AE009F1070121F007025A
:10407000F2E802C1914609E00FFA8CFC4FEAEC71BC
:10408000042A03D14FFA8CFC4FEAEC71002907DABD
:104090000A460021DCF1000C61EB02012D2202E056
:1040A000220504D52B228DF80420012203E0E2072B
:1040B00001D02022F7E7904659E00A2102E01022C1
:1040C0000DE010214FF0000A00910BE010224FF09C
:1040D000000A44F004040827009203E008224FF08D
:1040E000000A0092C4F30252022A05D059F804CB08
:1040F0000021032A08D009E009F1070121F0070295
:10410000F2E802C1914605E01FFA8CFC042A01D1B5
:104110000CF0FF0C4FF00008220728D5702806D0BD
:10412000009B83F0100353EA0A0305D00EE04022FF
:104130008DF80420012208E05CEA010206D030225A
:104140008DF804208DF8050002229046009B83F034
:10415000080353EA0A030AD15CEA010201D16207AB
:1041600005D530228DF804204FF001087F1E582815
:1041700004D034A003900EA802900DE036A0F9E719
:1041800053466046009AFCF721F884460398825C07
:104190000298401E029002705CEA0100F0D1029881
:1041A00006A9081A00F1200A600702D524F4803419
:1041B00000E00127574502DDA7EB0A0000E00020E0
:1041C00000EB0A01009005984144401A0590E00375
:1041D00006D45B462146179A059800F0B3F90544CA
:1041E000002706E001A85A46C05D179990476D1C4C
:1041F0007F1C4745F6DBE0030CD55B462146179A4A
:10420000059800F09FF9054404E030205A461799BC
:1042100090476D1C0099481E00900029F5DC08E0CD
:10422000029802995A460078491C029117999047C2
:104230006D1CBAF10001AAF1010AF1DC65E1000090
:10424000092801003031323334353637383961626C
:104250006364656600000000303132333435363730
:1042600038394142434445460000000000F058F907
:104270000544761C307800287FF4ECAD19B0284650
:10428000BDE8F08F620700D4062709F1070222F08B
:10429000070CFCE80223E14603F000485FEA080C43
:1042A00002D00FF2702C0DE05FEA045C02D50FF231
:1042B000682C07E05FEAC47C02D00FF2602C01E0BA
:1042C000AFF2700C4FF0FF3823F00043CDF850C030
:1042D00065280CD006DC452809D046281DD0472883
:1042E0003DD13DE0662818D067287ED138E0002116
:1042F000112F01DB112000E0781CCDE9000106A997
:104300000EA8FFF7DDFCDDE90F010E9A03910021F5
:10431000009207F1010A04914DE04FF00040009730
:10432000CDE9011006A90EA8FFF7CAFCDDE90F02CE
:1043300003920E9B11990022DDF80CA000930492C9
:1043400011B9791C00EB010AB7EB0A0004D4C0F1E3
:10435000FF3007F1010A0490AAEB0700019044E046
:10436000012F00DA01270021112F01DD112000E0CB
:104370003846CDE9000106A90EA8FFF7A1FCDDE94A
:104380000F010E9A0391002104910092BA46210771
:104390000CD40399514500DA8A46BAF1010F05DDC4
:1043A000009AAAF10101515C302908D0B84202DA22
:1043B00010F1040F06DA0121CDE9011015E0AAF190
:1043C0000101E9E7002805DC049901440491AAEB06
:1043D000000102E0411C514500DD8A460499401A63
:1043E000401C01904FF000400290200704D4019837
:1043F000504501DBCDF8048000208DF84F00029875
:104400000DF14F07B0F1004F25D02B200E900298F0
:104410004FF0020800280CDA404202902D200E9046
:1044200007E00A210298FCF710F83031029007F8F3
:10443000011DB8F10001A8F10108F2DC0298002882
:10444000EFD1791E0E980870307800F0200040F00F
:10445000450007F8020D12A8C01B00F107081498C8
:10446000007800B1012000EB0A01019801EBE07136
:1044700005984144401A401E0590E00306D45B466F
:104480002146179A059800F05DF8054414980078C5
:1044900018B15A46179990476D1CE00324D55B4626
:1044A0002146179A059800F04DF805441CE0049841
:1044B000002807DBDDE90301884203DD0098405C4A
:1044C000179901E0179930205A469047049805F152
:1044D0000105401C04900198401E019004D12E203B
:1044E0005A46179990476D1CBAF10001AAF1010ACA
:1044F000DDDC05E017F8010B5A46179990476D1C53
:10450000B8F10001A8F10108F4DC5B462146179AD6
:104510000598ABE62D0000002B00000020000000F5
:104520002DE9F041044600251E461746880404D4B0
:1045300005E039462020B0476D1C641EF9D5284699
:10454000BDE8F0812DE9F041044600251E46904665
:10455000C80301D5302700E02027880404D505E0F2
:1045600041463846B0476D1C641EF9D52846BDE863
:10457000F0810A68531C0B60107070470000000047
:10458000000000000000004000000000000000C02B
:10459000000000000000004000000000000000C01B
:1045A000000000000000004000000000000000C00B
:1045B000000000000000004000000000000000C0FB
:1045C000000000000000004000000000000000C0EB
:1045D000000000000000004000000000000000C0DB
:1045E00000000000000000000102030406070809A3
:1045F0000000000001020304252E316C660000005B
:1046000099370008A13700088D310008BF00030268
:1046100004040405050A1100FD0AFD0BFE01BB039D
:10462000E20C4C20050018352108B10C350E8A002B
:104630002208546B35224F012319C7F9B49230096F
:1046400093308986214AC2241A8628099330099317
:10465000082410D5FAB4C26CD0C4740DB5410B2334
:10466000002511B70975B65296ED8834E9C856CAC7
:10467000B205260F9609B5B4A81C4A52A22559B412
:10468000042707516C350601280CD3ECB492A8120C
:10469000758B6A01290DD3EA34B2A81675892A11DF
:1046A000002A0D6759F5E26C18A231C92A002B0CBB
:1046B0009709F5E2B661C8E236002C0843EA742C8B
:1046C00025002D071749350E012E07220B358600D0
:1046D0002F0ED6EA748B699816D3300DD314300F91
:1046E000B709B5B65296A45E932CCAB209310CB77D
:1046F00009F5524D89FB6D1802320DB709B5B64A5E
:104700001A577B1C06013311B709B5B64A5AD48132
:104710001C88D524CB26003413B709355531C9A2DE
:104720002CAA2561320C691C0E013511B70975865A
:10473000252E0F591D88D524CB26003610B70AF533
:1047400026B59C4C5A925A932C9B00370EB60935CD
:104750000E611AA6C5B49866003811B60AB5B42819
:1047600009C564882AA1318932093910B709B5B65B
:104770004AAA2699B4C4D554DA003A08720B358691
:1047800078083B0A93EA74EC98A294003C0F9809CD
:10479000F58154B4E6888EE8888E043D0A483935A0
:1047A0000E3A6918043E0F9809357244477444471D
:1047B00052D19A033F0FA60A75862414D34C4B732B
:1047C00030CD00401BC9F8B4062D8DD22407A44972
:1047D0008922258A942892062947D26C9000411597
:1047E000A90875861C48E224CDC22CCCC2414BA33B
:1047F00034D9064214A809356E6194266134686183
:104800009426691226C3044313A809F5964453520B
:104810001DC8811CC89134D1B4094415A8093506B6
:104820003193C2284DD2244DD2248C3265D000451C
:1048300014A709350E49988449940D5994C56112FD
:104840000E83004612A709350E49988449940D59E4
:1048500094C5D521034715A909F5964893D2244755
:1048600072241CE4288DC47088004814A80935A659
:10487000258CC2288C86298CC2288CC2641A490BCC
:10488000A709350E59DC6FC3104A14A809B586353F
:104890000772200772200AA3300AB321034B13A822
:1048A0000935866409A3AC1426E910661D9321120C
:1048B0004C14A80935063507722007722007C22854
:1048C0008CC2E1004D12A908355445933429694A38
:1048D0009AFA354A936D4E17A90835A62111A324DB
:1048E0008B922CEAB724CA9228548648014F11A80B
:1048F00009B5862C8CC224764EC228CC860850146A
:10490000A809356E61942669124683960339100F03
:104910001A005114C8E9B4862C8CC224764EC228E1
:10492000CC86348B92055214A8093506312B46618A
:104930009465439815A3301922015311A709B59620
:10494000DAAA033BA003EA96241300540FA7093503
:104950000E522445522DEE3828005515A9083586EB
:104960006448D2288DD2288DD2288DD2ACBA015677
:1049700014A90835B6258DD2AC9885599AC4490E2C
:10498000E448085714A90835866448D2A85F9A926B
:10499000A6A4AD988559045814A90835B625CDAA02
:1049A000490EE4480E2469564DB6015914A908353C
:1049B000B625CD8A599AE4408EE4488EC483045AC1
:1049C0000EA709350EAA9896D3A23A0C025B09D31A
:1049D000EC3486A8FF345C0ED6EA34D2388DD3721C
:1049E0001AA7711A5D09D3EA34A6FED3105E0A47EE
:1049F00079F5D224ABA4015F071AD8341E026007F0
:104A0000338A35B202610E7709B5B6723428611265
:104A10004643126215A808357420077220D9B428BD
:104A20004DD2244DB4449900630E7709B596DA2A25
:104A3000E740180D09006413A80975752007B22511
:104A4000CA9434499334CAB445650E7709B5B64A59
:104A50003ADC81301A1200660DA70AF5B652386C9E
:104A600071C761016715A8D9B4162553D2244DD258
:104A700028D3961CC8816C88006814A80935742056
:104A8000077220D9B4288CC2288CC2641A690CA77A
:104A900009F5E21C9C7B1B86006A0CD5DAF4C2780F
:104AA00010FB7150006B14A8093574200772201A8E
:104AB00092AC14AE519845D2106C0AA70975E6FE67
:104AC000360C016D0D7908351493A244FD5F160371
:104AD0006E10780935944D8BC2288CC2284CA601E3
:104AE0006F0C7709B5B64A6A4DB26C027014A8D93A
:104AF00034944D8BD2244DD2448B922D07E2210465
:104B00007114A8D9B4162553D2244DD228D3961C9B
:104B1000C88174087210780935964D8B722007721F
:104B2000201D2600730C760A7586511E627158008E
:104B300074139808B572201D862C07722007722006
:104B4000CC8604751078093534298CC2288CC2288B
:104B5000D316017611790835866448D2AC98A549F8
:104B60009CE440087710790835B6258DDA926252B8
:104B700054C42C02780C7709359625ABA495AC72F9
:104B80007914A9D834B625CD8A599AC4490EE44877
:104B90000EC443087A0B760A350E59D87118027B79
:104BA0000BD3EBB492A84B16750B7C06C1EC343ECC
:104BB0007D0CD3EB34B2A85B127589007E093739BE
:104BC00075C4A8A800A005001835A108A1DC34947C
:104BD0006108A20EA50AB5C26CD0C45AB2851100F4
:104BE000A311A809F5C6AC0EA4839A033910A7C374
:104BF00001A410771935D26490B2288BB26850D2D4
:104C000000A513A90835B625CD8A599AA4831C0F8F
:104C1000723C4800A608C1EC34066910A716C9F812
:104C2000F4062DCCC268CDB45452332D9DC22CCC89
:104C3000060DA807248B352229A916AA08F5863463
:104C4000CCE2249BA4544AB52989B3301D3200AA72
:104C50000C753A75D664D092211D04AB0C7709F51A
:104C6000A27E8CC2288C02AC084729350E7103AD98
:104C7000071749350E01AE15AA08F58634CCE22493
:104C8000DAA492B4492D7116A64306AF07158A35EA
:104C90000601B00A556A7596CC962C00B10E97099C
:104CA000F5E2DA3064711D1B8600B209645A75940E
:104CB000A8D320B30B645B7594A828250A00B40818
:104CC000338CB5921200B515A8D93434298CC2287A
:104CD0008CC228938644C9811C8801B617C7F9B4D1
:104CE00006A553524A4A4994D49430099330099303
:104CF0006C10B707224C358600B80843DB74A26CF1
:104D000008B909655AB5A2B16910BA0B753A75961A
:104D1000CC96CC8300BB0D770935A2300AA330EACC
:104D20003700BC18BA08B572608ED22CAC65C3943B
:104D30004662946451DBA0230900BD17BA08B5721E
:104D4000608ED22CAC65C3A226511666611646F160
:104D500010BE18BA087574204AA334CCA246A91A0A
:104D6000895192456D838E2400BF0FA6D9F4D21CC1
:104D70004C332D0DC5644800C01AE908B572288768
:104D800072C29003499CA459988559386869942641
:104D9000DB00C11AE9087573200772CA9003499CA9
:104DA000A4599885593868699426DB00C21AE90825
:104DB00035732049B31C1D72208993340BB3300B1B
:104DC000072D8DD2641BC319D908B5A42CD2E121BB
:104DD00007923849B3300BB370D0D2284DB601C416
:104DE00018D908B5AA510E0F3990C4499A85599817
:104DF0008583964669B20DC519E908F5E4288D62E8
:104E000075C881244ED22CCCC22C1CB4344A936D6C
:104E1000C619A9087586414AB228C99228C9A26D47
:104E200048B228D3322D5B8601C716D8D9F49644F0
:104E300053521DC8811CC89134D1B43547D20DC816
:104E400019E709B572200772681892300993281B78
:104E5000B2288BC3241C0601C916E70975DBB161B2
:104E600048C2244CA26CC8A22C0E93701804CA1815
:104E7000E709F5D224AB23C39084499844D99045DF
:104E8000591C26E13008CB17D709B56A518E0C435F
:104E90001226611265431665719884C320CC10E711
:104EA00009B5722007726818B2B8DF8621CD0EE707
:104EB0000935D33A380C59DC6FC310CE10E709F529
:104EC000D224AB23C390C5FD360C01CF10D7097592
:104ED000B228CB9161C8E27E1B8600D015A80935A7
:104EE000063193C2281DB4244DD2248C3265D000E3
:104EF000D11BD908F5A42CD2C16948C428C9A22461
:104F00008BFA2D89B2240A95215200D216E809B5F0
:104F10007224477278C8C2284C62E7248CC26C881D
:104F200000D314E80975E33A61C8C2284C62E7244B
:104F30008CC26C8800D416E80935E324CC7270C8A2
:104F4000C2284C62E7248CC26C8800D515D809B5FC
:104F5000A4928E0E59188549EC9C8451980D11002D
:104F6000D615D809B58A518E0E59188549EC9C84FE
:104F700051980D1100D70D771935D224ABA495ACFB
:104F80009206D817A809B586A418854998689194FF
:104F90002961124661920C1100D91AE908F57228AC
:104FA0008772744886248DD2288DD2288DD228CD40
:104FB000AA1B00DA1AE908B573200772784886241C
:104FC0008DD2288DD2288DD228CDAA1B00DB1AE9DC
:104FD0000835732049B31C1C922149A3344AA334D9
:104FE0004AA3344AB3EA06DC19D908B5B230CBC1BA
:104FF000211992344AA3344AA3344AA334AB6E0035
:10500000DD19E908B573200772785BD2AC98A54921
:105010000EE4488EE4483C4800DE13A80935E61C3F
:1050200018B4304A93301AB41C885700DF13B709FC
:10503000B5B65216D512AD1426611226A54901E067
:1050400013B709B572200772702B4783122661349B
:105050002401E110B70975DBD1AD1C0D4A9884D14C
:105060009004E212B709F5D224AB635B391A94308D
:1050700009A32109E312A709B5A424D2B1AD1C0DDF
:105080004A9884D19004E411A709B56A518E6DE560
:105090006850C2248C8624E514C709F5C4288B42C5
:1050A0001DDCCAD1A08449180D4900E60F7908B566
:1050B00094A91666C9700BB3CA05E711A7D9B496AF
:1050C000DA2AE740180D610E841300E812B709B51B
:1050D0007220077270ABA4C31D08A32101E90FB7AA
:1050E0000975DBD1AD920E77208C8604EA12B709E0
:1050F000F5D224AB635B251DEE40180D0900EB11C2
:10510000A709B56A518E6D9574B80361342400EC1B
:105110000EB709B5722007726CEE6D1802ED0CB770
:105120000935D33A3AF7360C01EE0DB709F5D2241A
:10513000AB43736FC310EF0DA70975A22CCAB1B9A9
:10514000B76108F011B7093526CD9203D91085AAA9
:1051500035C9B209F113A809B5A4928E299B168509
:1051600051188551984C03F211B709B57220077296
:1051700070ABA4D624CB2600F30FB70935D33ABCC5
:1051800055526B92651300F410B709F5D224AB6346
:105190005B25B526593601F510A709B5A424D2B16F
:1051A000AD925A932C9B00F610A70975B228CBB18B
:1051B000AD925A932C9B00F70D7819F5641D1C06CF
:1051C0001D943500F81297F9B4A3A59664891429A3
:1051D000599225C91403F914B809B57224477250BD
:1051E00093C2288CC2288C326D11FA12B80975E36B
:1051F0003AAA4961144661144699B608FB14B809E5
:10520000F5E224CC72CC14466114466194698B009B
:10521000FC12A809B58A518E99C2288CC2288C32FA
:105220006D11FD19E9D8B473200772785BD2AC9880
:10523000A5499CE4408EE4403C8400FE1AE8D93441
:10524000742007722007924D8BD2244DD2448B924A
:105250002D07E22104FF18D9D8F4A234CAC16D4940
:10526000B3629626719203399203F1100200000096
:1052700004FFFF00001815A115C819FF1815A01587
:10528000C019FF1815AE15D5168015A8163F15D3F1
:1052900016001540158D16141520160015A115C8F9
:1052A00015DA1612158116CF15D916F115DB164031
:1052B000152E15A415A619FF1815AF19FF1815AE50
:1052C00019FF00000001140A6464323200127A00EF
:1052D00000042896100800008000400000530008D9
:1052E0000000002010000000A03C0008105300083F
:1052F00010000020B8060000B03C000800000000CC
:105300000024F40001000000100000000000000074
:040000050800019559
:00000001FF
