:020000040800F2
:1000000068140020590200080D320008152D000860
:1000100049300008530F0008BD3B000800000000F5
:10002000000000000000000000000000C5350008CE
:10003000C30F000800000000C3350008C7350008E2
:1000400073020008730200087302000873020008BC
:1000500073020008730200087302000873020008AC
:100060007302000873020008DB0F00087302000827
:10007000730200087302000873020008730200088C
:1000800073020008730200087302000800000000F9
:10009000000000000000000000000000E10F000868
:1000A000813600087302000873020008730200081A
:1000B000730200088D3600089936000873020008A4
:1000C000730200087302000873020008730200083C
:1000D00073020008AD3B0008730200080000000036
:1000E000C50F00087302000873020008000000003A
:1000F0000000000000000000000000007302000883
:100100000000000073020008730200087302000878
:1001100000000000000000000000000000000000DF
:1001200073020008730200087302000873020008DB
:100130007302000800000000000000000000000042
:100140000000000000000000000000007302000832
:1001500073020008550F0008610F0008B53B000846
:100160007302000873020008000000000000000095
:10017000000000000000000000000000000000007F
:1001800000000000730200080000000000000000F2
:100190007302000800F002F800F04FF80AA090E89F
:1001A000000C82448344AAF10107DA4501D100F032
:1001B00044F8AFF2090EBAE80F0013F0010F18BFB0
:1001C000FB1A43F001031847F84C0000184D0000DB
:1001D000103A24BF78C878C1FAD8520724BF30C873
:1001E00030C144BF04680C60704700000023002445
:1001F00000250026103A28BF78C1FBD8520728BF37
:1002000030C148BF0B607047662904F000860020AB
:1002100070471FB504F0E9FD00F0B0FC04000020B9
:10022000002104F023F9401C60600020002104F04C
:1002300007F9E0601FBD10B510BD00F007FE1146C4
:10024000FFF7E7FF03F0D8FC00F033FE03B4FFF73D
:10025000F2FF03BC00F076FE0948804709480047DA
:10026000FEE7FEE7FEE7FEE7FEE7FEE7FEE7FEE766
:10027000FEE7FEE704480549054A064B70470000C3
:100280007136000895010008680E002068140020EF
:10029000681000206810002053EA020C00F069800A
:1002A0002DE9F04B4FF00006002B1FBFB3FA83F58A
:1002B00003FA05F424FA05F65E4012BF1643B2FABB
:1002C00082F502FA05F4C5F120051EBF22FA05FCED
:1002D00044EA0C04203556EA044C4FEA144418BF93
:1002E000641C4FF000084FF00009904271EB030CC2
:1002F00039D3002919BFB1FA81F701FA07F6B0FA2C
:1003000080F700FA07F6C7F120071EBF20FA07FCA6
:1003100046EA0C062037B6FBF4FCA7EB0507103FB6
:1003200007F01F0BCBF120062CFA06F60CFA0BFB9C
:1003300044BFB3460026202FA4BF5E464FF0000BFB
:100340005BEA060C08BF4FF0010B19EB0B0948EBF9
:100350000608ABFB027C06FB02CC0BFB03CCC01BEC
:1003600071EB0C01C1E70B46024641464846BDE829
:10037000F08B13B5084318BF4FF0FF300146AFF3C1
:100380000080BDE81C4070470FB4044910B503AAB3
:10039000029800F06BFB10BC5DF814FBE400002039
:1003A0002DE9F0474FF0000A89460446C0F820A026
:1003B0002046E1688847002876D0252806D0D4E971
:1003C00001219047206A401C2062F1E7E168204645
:1003D00000258847C4F81CA006460027C4F818A0CA
:1003E0002A2E09D0304604F023F838B304EB8708EE
:1003F000303EC8F8186019E059F8041B204604EB99
:1004000087029161E1688847012F064618D1E069AB
:10041000002820DA25F020051DE0D8F8180000EBB0
:10042000800006EB40003038C8F818002046E1682C
:100430008847064603F0FCFF0028EED1012F0AD0C2
:100440002E2E08D12046E16888477F1C0646022FE1
:1004500045F02005C4DBA069002803DA404245F0DE
:100460000105A061E80701D025F01005B6B1A6F19D
:100470004100192802D8203645F400654A46314625
:10048000204625604D46FFF7BFFE58B1012806D033
:10049000ED1D25F0070000F1080989E704E005F1EA
:1004A000040985E730468AE7206ABDE8F08770B521
:1004B000064600F0C9F80468054630460A220021C5
:1004C00000F0E6FA2C6070BD401ECAB210F8011FA1
:1004D0008A4202D00029F9D10020704740EA010386
:1004E000024630B59B0710D14FF0013400E008C23E
:1004F00008C91D1B9D4315EAC41FF8D013F0FF0166
:1005000002F8011B0DD01B0AF8E711F8013B002B84
:1005100002F8013B05D011F8013B002B02F8013B2A
:10052000F3D130BD032A40F2308010F0030C00F00C
:10053000158011F8013BBCF1020F624498BF11F81D
:1005400001CB00F8013B38BF11F8013BA2F10402D6
:1005500098BF00F801CB38BF00F8013B11F003034E
:1005600000F0CE82083AC0F0088051F8043B083A07
:1005700051F804CBA0E80810F5E7121D5CBF51F854
:10058000043B40F8043BAFF30080D20724BF11F8CE
:10059000013B11F801CB48BF11F8012B24BF00F833
:1005A000013B00F801CB48BF00F8012B70474FF02A
:1005B00000020429C0F0128010F0030C00F01B8030
:1005C000CCF1040CBCF1020F18BF00F8012BA8BF3E
:1005D00020F8022BA1EB0C0100F00DB85FEAC17C02
:1005E00024BF00F8012B00F8012B48BF00F8012BB5
:1005F00070474FF0000200B51346944696462039E6
:1006000022BFA0E80C50A0E80C50B1F12001BFF4CB
:10061000F7AF090728BFA0E80C5048BF0CC05DF831
:1006200004EB890028BF40F8042B08BF704748BF7F
:1006300020F8022B11F0804F18BF00F8012B7047F3
:100640007047704770470000004870471000002056
:100650002DE9FF4F0C461E464FF0FF378BB0D2E915
:100660000001DDF860800A908A46C1F30A5505B999
:100670003D46002108464FF00000BAF1000F00F49B
:10068000400005DA00EB80004FF4400101EA500021
:100690004FEA9059B9F1010F00DDB9460A9850EAC6
:1006A0004A000ED044F61050A5F2FF3545432F14F2
:1006B000B8F1000F1ED07542291E1EDDC9F10002DF
:1006C0001CE0B8F1010F4FF0000001D0302103E031
:1006D000F24305E02154401CB042FBDB30460022CF
:1006E000002121540B99C1F80880C1E900200FB006
:1006F000BDE8F08FBD1B6D1CDEE74A4600DA69429B
:1007000006A800F02DFB06AB93E8070003AB83E8D7
:10071000070050460A9903F0ABFA8DE80700A0F5F0
:1007200000501F3800900398002D0ADD42F21F018F
:100730004A460844002303A90390684603F014FDC9
:1007400009E0A0F500504A461F38002303A9039092
:10075000684603F01EFD8DE807000004000C03D07E
:100760004FF0FF30410800E01046B8F1000F03D011
:100770000022009215461EE0751E05D400F002FA14
:10078000303262556D1EF9D5B3460122084302D0BE
:1007900000227F1C04E02078302801D100227F1E37
:1007A000002A099784D01DE0112D07DA00F0EAF93C
:1007B000303262556D1C50EA0102F5D1084302D077
:1007C0000098C8B10EE00021681E05E0235C625C61
:1007D00063542254401E491C8142F7DBAB46A81BE0
:1007E000401E0990002004F80B000B98099AC0F8ED
:1007F0000880C0E9002B7AE711264FF0000857E780
:100800002DE9F04F88460446D21D22F0070191B031
:10081000D1E90001CDE90A0103F0F2FD02460B988F
:10082000C00F01D02D2007E02068810701D52B20C3
:1008300002E0202101EAC000032A099001D0072A22
:1008400005DB03464146204600F0FAF90BE120782B
:10085000800601D5E06900E00620B8F1650F814609
:1008600006D0B8F1660F18D0B8F1670F70D131E03B
:100870000020B9F1110F009001DB112301E009F113
:1008800001030AAA01A90CA8FFF7E2FEDDE90C703A
:10089000002609F10105834647E001204B46009000
:1008A0004FF000470AAA01A90CA8FFF7D1FEDDE925
:1008B0000DB00C995D46002610B909F101000D1824
:1008C000B9EB050003D4C0F1FF3609F10105A5EB32
:1008D00009002BE0B9F1010F01DA4FF00109002006
:1008E000B9F1110F0090484601DD112300E00346E5
:1008F0000AAA01A90CA8FFF7ABFEDDE90C704D4672
:1009000000268346207800070AD4AB4500DA5D460E
:1009100001A8012D04DD411911F8011C302907D06F
:100920004F4502DA17F1040F04DA012082460FE086
:100930006D1EEEE7002F02DCED1B3E4403E0781C49
:10094000A84200DD7D1CB81B00F1010A4FF00047F2
:100950002078000703D4AA4501DB4FF0FF3A0021BD
:10096000B7F1004F0DF143088DF8431024D0022059
:100970002B23002F01DA7F422D230A21021EA0F132
:10098000010000DC5FB197FBF1FC97FBF1F201FB8A
:100990001C7C17460CF1300C08F801CDEEE7A8F1ED
:1009A000010003702188090501D5452100E065217A
:1009B000A0F1010800F8011C09980FA9A1EB080794
:1009C000FF1D00B10120411901EBEA70A169384413
:1009D000081A401EA0612078C00602D42046AFF35A
:1009E0000080099828B1D4E901219047206A401C71
:1009F00020622078C00622D52046AFF300801EE09A
:100A0000002E04DBB34502DD01A8805D00E030204C
:100A1000D4E901219047206A401C2062761CAAF18B
:100A200001005FEA000A0AD100F0A8F8C068016876
:100A3000405CD4E901219047206A401C2062281EB6
:100A4000A5F10105DCDC07E0D4E9012118F8010B70
:100A50009047206A401C2062381EA7F10107F3DC92
:100A60002046AFF30080032011B041E6074B70B57C
:100A70000D467B4400F0D1F80446284600F0E2F928
:100A800010B14FF0FF3070BD204670BD6F310000D7
:100A90002DE9F04791460F4680460446002614F89B
:100AA000015B2DB100F062F80068405DC007F6D12F
:100AB0002B2D02D02D2D18D0641E4A4639462046D3
:100AC00000F0FEF827B13968A14201D1C7F80080D3
:100AD0004FF0020471050BD54042002803DDFFF7FB
:100AE000B3FD0460A007BDE8F08746F48066E4E744
:100AF0000028F8DAFFF7A8FD04606FF00040F2E785
:100B000010B5203AC0F00B80B1E81850A0E818509A
:100B1000B1E81850A0E81850203ABFF4F5AF5FEAEA
:100B2000027C24BFB1E81850A0E8185044BF18C98F
:100B300018C0BDE810405FEA827C24BF51F8043B36
:100B400040F8043B08BF7047D20728BF31F8023B8A
:100B500048BF11F8012B28BF20F8023B48BF00F81E
:100B6000012B7047004870471000002010B500F0BE
:100B700005F8001D10BD00BFF538000000487047A3
:100B80003000002030B5B0F10A0271F100034FEAE5
:100B9000900E4EEA817EB0EB0E0061EB91014FEAC0
:100BA000101E4EEA017E10EB0E0041EB11114FEAD0
:100BB000102E4EEA016E10EB0E0041EB11214FEAB0
:100BC000104E4EEA014E10EB0E0041EB1141401861
:100BD00041F100014FEAD00040EA41704FEAD101F3
:100BE0004FEA810444EA907410EB800544EB010461
:100BF0006D1944EB0404521BA3414FF0000348BF9E
:100C00000A3200D530BD401C41F1000130BD00006A
:100C100001694A1C02610878704700B58FB0CDE9C0
:100C200001310021059105497944CDE903101146B0
:100C30006846FFF7B5FB0FB000BD0000E5FFFFFF02
:100C40002DE9F0411F46044603260168072A01F4F6
:100C5000006004DB08B116A505E016A503E008B1A5
:100C600015A500E015A521F010002060A069C01EA8
:100C7000A0610FB1401EA0612046AFF300804FB1CC
:100C8000D4E9012138469047206A401C2062C01CEC
:100C9000206206E0206AFAE7D4E9012115F8010B89
:100CA0009047761EF8D22046AFF30080BDE8F08171
:100CB0004E414E006E616E00494E4600696E660000
:100CC0002DE9F05F824615468B4600270AF10104A4
:100CD000B9460078302801D09DB113E014F8010B1B
:100CE0000127782803D0582801D045B10AE00DB17A
:100CF000102D07D1002714F8010B102502E008255C
:100D000000E00A250026B0460EE005FB080005FBC2
:100D100006F101271FFA80F801EB1046B6F5803F77
:100D200000D3B94614F8010B294600F0B4F80028A6
:100D3000EBDABBF1000F05D00FB1641E00E05446A2
:100D4000CBF80040B9F1000F06D0FFF77DFC02217F
:100D50000160C81EBDE8F09F48EA0640FAE70000BF
:100D60002DE9F047814616468AB0354878440DC8CB
:100D70008DE80D0032487844801C03AC0DC884E82F
:100D80000D0041F69B300844372190FBF1F290FBB7
:100D9000F1F5A5F1800501FB12041B3C02D564426C
:100DA000012000E00020DFF898A080460027FA44E8
:100DB000AAF1BE0A0EE0E0070AD03246684607EB09
:100DC000470101230AEB810103F0E3F98DE80700F5
:100DD00064107F1C002CEED1194F7F44AE3F19E008
:100DE000E80715D007EB04100DF1180A90E80E0083
:100DF0008AE80E00C068F04201D198190890324686
:100E0000012306A903A803F0C4F903AB83E8070094
:100E10006D10641C002DE3D14FF00103324669468A
:100E2000B8F1000F03A802D003F09EF901E003F02F
:100E3000B0F9C9E90001C9F808200AB0BDE8F08797
:100E400020410000007B00F0800070477546FFF7EE
:100E500089FEAE4605006946534620F007008546E8
:100E600018B020B5FFF706FABDE820404FF00006A5
:100E70004FF000074FF000084FF0000BAC46ACE815
:100E8000C009ACE8C009ACE8C009ACE8C00921F071
:100E900007018D4670473A2800D2303820F02002F2
:100EA000412A01D3A2F13700884201D34FF0FF302D
:100EB000704710B50446AFF300802046BDE81040EF
:100EC000FFF7C4B90000000030B44FF0013C50F807
:100ED000042B51F8043BCCFA52F4D51A20D1FCB9BA
:100EE00050F8042B51F8043BCCFA52F4D51A17D120
:100EF000B4B950F8042B51F8043BCCFA52F4D51A8B
:100F00000ED16CB950F8042B51F8043BCCFA52F4D2
:100F1000D51A05D1002CDAD030BC4FF00000704754
:100F200029BAB1FA81F111F01801D1F12000844001
:100F3000F2D1CA40CB4012F0FF0213F0FF0330BCE5
:100F4000D01A704701491820ABBEFEE72600020008
:100F50007047FEE7014800F015B900BFD801002036
:100F6000014800F00FB900BF7801002010B50168FA
:100F70006FF00F02182308A452FA81F2B2FBF3F3C8
:100F8000E35C40F2FF34A1435F2A88BF0431C0E92B
:100F90001613084610BD00BF0006101600061016F6
:100FA000B0B50468806825684028084625F4802587
:100FB0002560636008BF1046A06008BF0A46E26073
:100FC000B0BD704780B54FF4804000F099FA4FF4FF
:100FD0000040BDE8804000F093BA102000F090BAC5
:100FE0004FF4807000F08CBAEFF3108072B6FEE719
:100FF00070B52DED068B2349044600F59470202230
:10100000FFF790FA02F022F81F4D9FED208A9FED26
:10101000209A9FED20AA284602F047F902F0CAFA6A
:101020001D4E02F042F9304602F0C4FA294904F19B
:10103000FC0002F0F4F8284904F1D80002F0EFF8BF
:101040001649204602F0EBF8154904F1240002F09D
:10105000E6F8144904F1480002F0E1F8124904F1FD
:101060006C0002F0DCF804F19000294602F0D7F899
:1010700004F1B40031462422BDEC068BBDE870407B
:10108000FFF750BA800400203001002089D25E3A78
:1010900000000000EC51B83D540100201C0E00205F
:1010A000400E0020E80000200C01002010B5094986
:1010B0000446FC3002F0B3F8074904F1D80002F00E
:1010C000AEF8064904F594702022BDE81040FFF701
:1010D00029BA00BFBC000020980000208004002036
:1010E00070B5866D044600F0EBFA054694F83500BD
:1010F00002281ED12068216C026822F016020260CC
:10110000426922F08002426109B9A16C19B10168FB
:1011100021F008010160016821F00101016000680F
:10112000C0070AD000F0CCFA401B05280FD8206871
:10113000F5E78020606501200EE0E06D3F2101FAB7
:1011400000F0B060012084F83500002004E0202089
:101150006065032084F83500002184F8341070BDE8
:1011600090F83510022909D1052180F83510006862
:10117000016821F001010160002070478021416574
:1011800001207047F8B504460020534A082100901A
:10119000D4E9166015683768814039420CD022685E
:1011A00013685B0708D5136823F004031360B1606C
:1011B000616D41F00101616501218140394208D032
:1011C00022685269120604D5B160616D41F00201D6
:1011D000616504218140394208D022681268920773
:1011E00004D5B160616D41F0040161651021814059
:1011F000394217D020680268120713D5B16002681F
:101200000168520306D4C90506D4016821F008011B
:10121000016001E0080301D4216C00E0A16C09B178
:1012200020468847E16D202000FA01F23A4233D08F
:1012300020680368DB062FD5B26094F83530026869
:10124000052B15D122F016020260426922F08002BD
:101250004261226C0AB9A26C1AB1026822F008023B
:1012600002603F208840B06002F008F8216D2FE056
:101270000168520308D4C9050AD4016821F010019D
:10128000016001F0FBFF03E0080301D4616C00E0A2
:10129000E16B09B120468847606DE0B1606DC00721
:1012A00015D005214FF4165084F83510B5FBF0F039
:1012B00021680A6822F001020A60009A0132824223
:1012C000009202D80A68D207F7D101F0D7FFE16C8B
:1012D00009B120468847F8BD080000202DE9F041FB
:1012E000044600F0EDF9ACB10546022084F8350063
:1012F0000020216884F83400086820F001000860AC
:101300000868C00709D000F0DBF9401B052839D870
:101310002168F5E70120BDE8F0810868271D304A03
:10132000E8CF00EA020ED4E9050CD4E9072843EA25
:101330000E032B4333433B431843636A40EA0C00DC
:10134000104340EA0802042B04D1D4E90B051043F2
:1013500040EA05020A60042B486920F0070040EAD1
:1013600003022CD1D4E90A63324343B3BCF5005FD6
:101370000CD0BCF1000F18D1022E19D0012E0ED0C6
:10138000002E14E003252027032024E0032E16D886
:10139000012540270120DFE806F01E0B1E02A3F105
:1013A000C070B0FA80F0400904E0032E03D306D1E8
:1013B000C3F3006018B10125402701200BE020464F
:1013C0004A61FFF7D3FDE16D3F220027012502FAB4
:1013D00001F181600020676584F83550BDE8F08137
:1013E0003F8010F0B0B501F07AFF28D00120A56D44
:1013F00084F8340094F8350001281DD1022084F8C7
:101400003500002060652046FFF7CAFDE26D3F23EE
:101410002068216C03FA02F2AA60026842F0160208
:10142000026019B1016841F008010160016841F0F2
:10143000010101600020B0BD002084F834000220CA
:10144000B0BD000010B5B0F5004F11D0B0F5807FF1
:101450001ED0B0F5804F2AD010283FD100F030F9CF
:101460001F4C2168401A332838D3234823A12FE08A
:1014700000F026F91A4C2168401A33282ED3194857
:10148000002101F05BFE1848002101F057FE22E028
:1014900000F016F9124C2168401A33281ED3134865
:1014A0000068012812D0022815D112A10FE000F027
:1014B00007F90B4C2168401A33280FD30B480168F9
:1014C0004A1C022908BF0122026004E008A10A4860
:1014D000032201F0DDFB00F0F3F8206010BD00BF37
:1014E000E0000020BC000020980000200C0000203C
:1014F000310A0000320A00003C040020300A0000DB
:1015000003490A68024208BF70470860FFF79ABFA4
:10151000143C01402DE9FC4F604A07244FF0010BB9
:101520004FF000094FF0000E4FF0000A90425C4A65
:1015300008BF042402444FEAB223042B38BF4FEA09
:10154000B2240094BEF1200F08BFBDE8FC8F0F68E5
:101550000BFA0AF6374200F09A804F6807F003084A
:10156000A8F10104012C19D80322856802FA0EF4AF
:101570004FEA4A0225EA040CCD6805FA0EF545EA61
:101580000C058560C7F3001505FA0AFC4568B543EC
:1015900045EA0C056FEA040C45600CE00324724632
:1015A00004FA0EF4B8F1030F6FEA040C03D172468B
:1015B0004FF003081FE0C4688D6804EA0C049540EE
:1015C0002C43B8F1020FC46015D109F01C040F239D
:1015D00003FA04F86FF0030303EA5A0707443D6A6D
:1015E00025EA08080D6905FA04F444EA08043C6297
:1015F0004F6807F00308056808FA02F405EA0C05CD
:101600002C4317F4403F046041D00022254B2AF0C0
:1016100003070192254A1F44146844F4804414606F
:1016200014680F2204F48044019409F00C0402FAB7
:1016300004FC1F4A019DBD589046009A25EA0C05FE
:1016400002FA04F42C4347F808401C684F6844EA47
:101650000605FA0358BF24EA06051D605A68BD0353
:1016600042EA060458BF22EA06045C60FD029A685A
:1016700042EA060458BF22EA06049C600A4BBD02F7
:101680001A6842EA060458BF22EA06041C6009F1FF
:1016900004090EF1020E0AF1010A53E7001002409C
:1016A0000000FEBF003C01400C3C014044380240B9
:1016B00008FCFFFF002A08BF090481617047000091
:1016C00005480068704700BF1F48034900780A6852
:1016D00010440860704700BF180E002080B50B480A
:1016E000016841F400710160016841F480610160AA
:1016F000016841F480710160032000F06BF80F2055
:1017000000F006F800F022F8002080BD003C024006
:1017100070B50D4E04464FF47A713078B1FBF0F09D
:1017200083490968B1FBF0F000F076FB01250F2C2E
:1017300008D838B94FF0FF3021460022002500F0CC
:101740002DF87460284670BD0000002082B0002093
:101750000B4901904A6842F480424A604A6802F4A8
:1017600080420192019A0090086840F08050086021
:10177000086800F080500090009802B0704700BFE9
:1017800040380240002806D4734601F0ADFD9E4665
:10179000014A42F82010704700E100E070B5134B99
:1017A0004FF0FF351B68C3F30223DC1E83F00703F1
:1017B00038BF002405FA04F6B243042B28BF0423E3
:1017C00005FA03F39943A1401143BDE8704002F0CC
:1017D000F7B900BF05494FF6FF030A681A4060F3E6
:1017E0000A22034810430860704700BF0CED00E078
:1017F0000000FA052DE9F041002857D03F4B044680
:101800008846D3F8000400F00700884204D283F829
:10181000008401F02DFD49D12068810711D54107D1
:1018200003D5996841F4E0519960010703D599689F
:1018300041F460419960A1689A6822F0F002114376
:101840009960C0072BD101F013FD04D983F80084FF
:1018500001F00EFD2AD12068410705D5E1689A689C
:1018600022F4E05211439960000706D52069996877
:1018700021F4604141EAC00098601C4600F05EF827
:10188000A1681F4AC1F30311515CC8402849086090
:101890001C480068FFF73CFF0020BDE8F08160684D
:1018A000811E022905D21968890107D40120BDE8EB
:1018B000F08101281DD119688903F7D599681D4663
:1018C00021F0030108439860FFF7FAFE064641F253
:1018D00088376068A9682B4601F00C01B1EB800FD6
:1018E000B1D0FFF7EDFE801BB842F2D90320BDE86E
:1018F000F08119688907D9D5E0E700BF00380240B8
:10190000A84E00080400002009480A490A4A006855
:101910000968C1F38221515CC840704704480549F9
:10192000054A00680968C1F34231515CC8407047FC
:101930000800002008380240B84E000810B5134CCB
:10194000606800F00C00082804D0042814BF104878
:10195000104810BD226820680023400202F03F02B8
:101960000C485CBF42F20040C0F2F4002168C1F3B1
:101970008811A0FB0101FEF78FFC21680222C1F350
:10198000014102EB4101B0FBF1F010BD043802400F
:101990000024F40040787D012DE9FC4100285FD04F
:1019A00004460078C24EC0070BD0B06800F00C00AF
:1019B000042840F08E803068800302D560680028DB
:1019C0004ED02078800718D5B06810F00C0F07D0E3
:1019D00001F0F8FC40F095807068400200F19180C1
:1019E0003068800702D5E068012839D12069316864
:1019F00021F0F80141EAC00030602078000732D4BD
:101A00002078400742D4A7693FB301F0DBFC40F0E7
:101A1000A980012F24D0E169706800F480028A4215
:101A20001ED1216A00F03F028A4219D147F6C071E7
:101A3000626A0140B1EB821F12D1A16A9F4A02EB98
:101A4000C13100F440326FF30F018A4208D1E16ADC
:101A500000F07060B0EB016F02D10020BDE8FC81A6
:101A60000120BDE8FC816169924800296AD001210A
:101A7000C0F8801EFFF724FE0546706F8007BFD4B4
:101A8000FFF71EFE401B0228F7D9C9E0306C10F0AA
:101A900080580AD100200190306C40F080503064B2
:101AA000306C00F0805001900198834F3868C00579
:101AB0003AD4386840F480703860FFF701FE05467C
:101AC0003868C00530D4FFF7FBFD401B0228F7D96A
:101AD000A6E001F077FC03D1706840023FF56BAFE0
:101AE0006068B0F5803F07D0B0F5A02F40F082804D
:101AF000306840F480203060306840F480303060DE
:101B000082E0E06800284CD06A4801210160FFF7BC
:101B1000D7FD0546306880073FF568AFFFF7D0FD79
:101B2000401B0228F6D97BE0A068012805D00528D3
:101B300048D1306F40F004003067306F40F0010052
:101B4000306749E00021C0F8801EFFF7B9FD054667
:101B5000706F80077FF554AFFFF7B2FD401B02287E
:101B6000F6D95DE05349002088460866FFF7A8FDD6
:101B70000546022F0AD147463068800153D5FFF74A
:101B80009FFD411B03200229F6D967E730688001D9
:101B90007FF563AFFFF794FD411B03200229F5D9C0
:101BA0005CE7444800210160FFF78AFD0546306884
:101BB00080077FF522AFFFF783FD411B0320022939
:101BC000F5D94BE7316F002821F001013167316F02
:101BD00021F00401316744D0FFF772FD054641F260
:101BE0008837306F80074BD4FFF76AFD401BB8423F
:101BF000F7D915E03168002821F48031316031686F
:101C000021F48021316044D0FFF75AFD0546306849
:101C100080033FF5D6AEFFF753FD401B6428F6D98D
:101C20000320BDE8FC811C341FCC0843234940EA53
:101C3000821001EBC33140EA04606FF30F010843E7
:101C4000706001203866FFF73BFD04463068800174
:101C50003FF503AFFFF734FD011B03200229F5D93F
:101C6000FCE6FFF72DFD054641F28837306F80070F
:101C700006D5FFF725FD411B0320B942F6D9EDE655
:101C8000B8F1000F7FF4BFAE306C20F080503064AC
:101C9000B9E6FFF715FD0546306880037FF591AE84
:101CA000FFF70EFD411B03206429F5D9D6E600BFDE
:101CB0000038024000004742007000400000FFFF73
:101CC000F8B550B1D0F824C00446BCF1000F06D0DE
:101CD0000021216104F1140107E001254EE0616853
:101CE000B1F5827F03D004F11C0100220A600025B7
:101CF000A56294F8511000294FF0000108D1204648
:101D000084F8505000F03CF8D4E909C101F40051C6
:101D1000022284F8512094E8CC00106820F04000A2
:101D2000106003F4827006F40443184407F400635F
:101D30001844236903F002031844636903F00103A4
:101D40001844A36903F400763044E66906F03806C7
:101D50003044266A06F08006304308430CF0100138
:101D60001060042000EA134008445060D06920F459
:101D70000060D0610120656584F851002846F8BDF7
:101D80002DE9F04385B00068214DA8423CD10026E2
:101D900020486C464FF005084FF0030902270096D3
:101DA000416941F480514161416901F480510091E0
:101DB00000990096016841F001010160016801F09D
:101DC0000101009100990096016841F00201016053
:101DD0002146006800F0020000900098CDF81080C5
:101DE000CDE902690197A020009005F55040FFF76A
:101DF00091FB10202146CDE90398CDE901760090B2
:101E000005F55440FFF786FB05B0BDE8F08300BF41
:101E10000030014030380240411E0020B0EB116F0D
:101E20001CBF01207047044AF023516003490B7026
:101E3000072190601160704710E000E023ED00E0A2
:101E40007047704710B590F83C300222012B26D025
:101E500080F83D2002680B68546824F070041C432D
:101E60009368B2F1804F54600ED0C74CA2420BD0A1
:101E7000C44CA24208D0384CA24205D0374CA242F2
:101E800002D0374CA24204D1496823F080031943A1
:101E900091600022012180F83C2080F83D1010461E
:101EA00010BD00BF58B110B501F0F9FA03D101F02F
:101EB000ACFA00F007F801F02FFB01F01CBA01208A
:101EC00070470000E0B500682449884218BF8CBD07
:101ED0000020002201900948016841F4803101602E
:101EE0000021006800F48030019001981820FFF76D
:101EF00055FC1820BDE88C40FFF744BC4438024034
:101F000090F83D1001291CBF01207047022180F884
:101F10003D100068C168B0F1804F41F00101C1601F
:101F20000ED0994988420BD09649884208D00A4978
:101F3000884205D00949884202D00949884204D123
:101F4000724601F0F8F9964603D0724601F0F8FAAD
:101F500096460020704700BF000C00400040014042
:101F60000000014010B501F08FFA52D084F83D0016
:101F700001204FF6777384F83C00206882689A430A
:101F800082600A68C2B1102A16D0202A14D0302AE2
:101F900012D0402A17D0502A1ED0602A25D0B2F580
:101FA000005F2ED0B2F5805F30D0702A32D101F0C0
:101FB00031FA41F0770128E0816821F07001114386
:101FC00041F0070121E001F097FA2068816841F0B3
:101FD000470121F0300118E001F08EFA2068816895
:101FE00041F0570121F020010FE04B68CA68194603
:101FF00001F057FC2068816841F0670121F0100171
:1020000003E001F007FA41F480418160002001F013
:102010006CFA10BD0120FAE7002840D0F8B504465C
:1020200090F83D000D4618B901F0EFF900F03AF8CC
:10203000022044F2070284F83D0020688168914341
:102040008160211D01F02EFB2668D5E9000CD5E941
:102050000223B7683843B769316AB060A86942EAB9
:1020600000204FF6FC4290434FF6FF7227EA02022F
:102070001A431043EA6940EA02202A6940EA021042
:102080002A6A40EA0230B06121F0AA00696940EA98
:102090000C0040EA0110306201F0A3F9F8BD012004
:1020A00070470000B0B586B0044601A81421FEF7C1
:1020B000A0FA20683349884234D0334988425ED13F
:1020C0000024AA4802250094016941F0020101613F
:1020D000016901F00201009100990094016841F04A
:1020E00001010160016801F0010100910099009473
:1020F000016841F002010160006800F002000090F8
:102100000098CDE90445CDE902544020019098485B
:1021100001A9FFF7FFF920200494CDE902541D2402
:1021200001901CE0002091491E2400900A6942F0B1
:1021300004020A610A6902F004020092009A009007
:102140000A6842F002020A60096801F00201009187
:10215000CDE9030002200290C020019000980220E7
:102160000590834801A900F58060FFF7D3F9204668
:1021700000210022FFF712FB2046FFF703FB06B009
:10218000B0BD00BF000800400004004070B501F081
:1021900065F905D061B9012E08BF012B19D070BDBA
:1021A000012D08BF012AFAD1022001F073F90EE0D7
:1021B000012E08BF012DF2D1012BF0D1012AEED161
:1021C00001F0C8F808D02068002101F0DDF80421F2
:1021D00003E0022001F076F90021206801F0D4F834
:1021E000206801F061B9704710B5044600680169C4
:1021F000890712D5C16889070FD56FF00201016107
:10220000012121778069800702D001F064F901E0A3
:1022100001F030F90020207720680169490713D5C3
:10222000C168490710D56FF00401016102212177CF
:10223000806910F4407F02D001F04DF901E001F017
:1022400019F90020207720680169090712D5C168B3
:1022500009070FD56FF00801016104212177C069DA
:10226000800702D001F037F901E001F003F9002006
:10227000207720680169C90613D5C168C90610D541
:102280006FF01001016108212177C06910F4407FCF
:1022900002D001F020F901E001F0ECF800202077F5
:1022A00020680169C90709D0C168C90706D06FF065
:1022B00001010161204600F02FF92068016909063B
:1022C00009D5C168090606D56FF080010161204675
:1022D000FFF7B6FD20680169490609D5C1684906BE
:1022E00006D56FF040010161204600F06DFA2068CC
:1022F0000169890602D5C168890600D410BD6FF056
:10230000200101612046BDE81040FFF79ABD0000A2
:1023100010B586B0044601A81421FEF76AF92068BA
:102320007A4988420DD0B0F1804F1DD10020009035
:102330000E4800F0C1FF4FF40040019000980120CA
:1023400008E000200090094800F0B6FF032001904B
:102350000098022005900020CDE9030002200290A1
:10236000034801A9FFF7D6F806B010BD3038024087
:102370000000024070470000B0B501F0C8F804BF8B
:102380000220B0BD01F096F837D8DFE801F0020A6C
:1023900012222068294601F0DBF9206850F8181F46
:1023A0000EE02068294601F0F9F9206850F8181F5E
:1023B00016E02068294601F019FA206850F81C1F21
:1023C00041F008010160016821F004010160296900
:1023D0000FE02068294601F031FA206850F81C1FF0
:1023E00041F400610160016821F4806101602969A4
:1023F00009020268114301600020002184F83C10AA
:10240000B0BD58B110B501F04AF803D100F0FDFF9E
:1024100000F006F801F080F800F06DBF0120704771
:1024200082B00068394988420FD0B0F1804F18D18E
:10243000002001900C48016841F001010160006832
:1024400000F00100019001980BE000200090064888
:10245000016841F008010160006800F00800009088
:10246000009802B0704700BF40380240704700003B
:1024700010B50446B9B1082906D0042914BF04F1E7
:10248000410004F13F0001E004F140000078012820
:1024900011D10220082910D0042914BF84F841006A
:1024A00084F83F000BE094F83E00012803D102209D
:1024B00084F83E0003E0012010BD84F8400020684D
:1024C00000F062FF20680E49884201D100F098FFB9
:1024D000B0F1804F0DD00B4A90420AD00A4A904288
:1024E00007D00A4A904204D0094A904201D088425B
:1024F00002D100F020FF01D001F022F8002010BD31
:10250000000001400004004000080040000C0040B2
:1025100000400140000000002DE9F84F2DED0C4B6C
:1025200080469B48804540F003819A48DFF868A2C6
:102530000068406ADAF83820DAF85C50DAF82C10D3
:10254000DAF85030C2EB02421418944AC5EB054049
:10255000CAF830401268526A07940244601AD51AC9
:10256000CAF834000692CAE9152502F0C9F99FEDB0
:10257000800B57EC106B32463B4602F067F8CDE912
:10258000041001F089FF00F042FE9FED7B0B5BEC35
:10259000104B22465B4602F0CBF99FED790B53ECD2
:1025A000102B02F0C5F901F077FF08EE100A28465B
:1025B00002F0A6F932463B4602F048F88146039104
:1025C00001F06AFF00F023FE22465B4626465C4689
:1025D00002F0AEF99FED6C0B53EC102B02F0A8F952
:1025E00001F05AFF9FED6E1A00EE100A0020B0EEC7
:1025F000412A011D13D00AEB800101380B6ACA6819
:1026000003EE103A0A614B62B8EEC33A31EE031A98
:1026100003EE102AB8EEC33A32EE032AE9E7BDEE24
:10262000C03A31EE000AB1EE041A069880EE019A23
:1026300032EE080A8AED053ABDEEC83A80EE018A0C
:10264000CAF8500007988AED003ACAF82C00DDE974
:10265000041002460B468AED1A9A8AED118A01F09F
:102660004DFF3246234602F063F90546DAF848008A
:10267000DAF86CB00F4602F047FB02460B462846DC
:10268000394601F03BFF01F007FF0399CAF8480003
:1026900048464A460B4601F031FF3246234602F0D7
:1026A00047F9054658460F4602F02EFB2A463B46A0
:1026B00002F03CFA01F0F0FECAF86C0019EE100AC4
:1026C00002F022FB054618EE100A0E4602F01CFB33
:1026D00041EC100B33A02A4633468DED000BFDF77D
:1026E00053FE334D284601F0EDF83248FEF7DEFC8C
:1026F00005F20C409FED2A8A90ED000A2E4800F06A
:10270000CEFD05F58260B0EE409A90ED000A2B48B0
:1027100000F0C5FD2A49B1EE400A0AF1280000F098
:1027200065FD28490AF14C00B0EE490A00F05EFD53
:102730001848804509D01948804512D102681648CA
:10274000536AC16DD26A5C3005E002681248536A70
:10275000816BD26A3830B3EB520F94BF013101392B
:102760000160BDEC0C4B01B0BDE8F08F00BF00BFB5
:1027700000000000006098406E861BF0F9210940BF
:10278000000000000000594000000000000059C097
:10279000B0030020D8020020700000202003002099
:1027A00000000000252E32662C252E32660D0A0010
:1027B000000A0020A0040020300100205401002065
:1027C000400E00201C0E002070477047704700002C
:1027D0007CB5044600680268C1684569130744D0A7
:1027E00001F4907605F00105761942D0D60705D0A0
:1027F000CE0503D5266C46F001062664560704D59F
:102800001DB1266C46F002062664960704D51DB15C
:10281000266C46F004062664002B07D501F0200341
:102820005B1903D0236C43F008032364236C002B53
:1028300063D0920605D5890603D5204601F0E5F858
:1028400020684069216C00F0400001F00801401848
:102850004ED0204601F0A7F82068416949065AD5B4
:1028600000F060FD4AD02068FAE7930601D58B0698
:1028700039D4236B012B03D1D30601D5CB064FD41A
:10288000130601D50B060FD4520636D5490634D5AA
:10289000C16821F04001C160202084F83D0020463D
:1028A000BDE87C4000F034BA94F83D10212924D1D1
:1028B000A168B1F5805F03D12169002900F09780FC
:1028C000216A4A1C226209784160E18C0139E18465
:1028D000090412D1C16821F08001C160C16841F0D2
:1028E0004001C1607CBD2046BDE87C4001F08DB850
:1028F0002046FFF76BFF002020647CBDA06B50B129
:102900003F490165FEF72CFC0028F6D0A06B016D55
:10291000BDE87C4008472046BDE87C40FFF756BF35
:102920000021019100F021FD416949062CD4E18D7F
:10293000A28DE38D002BE0D0511A0A04DDD050E8BF
:10294000030F226820F4907042E803030BB1206863
:10295000F5E7206850E8050F226820F0010042E802
:102960000503002BF5D1202084F83E0000202063D1
:10297000206850E8030F226820F0100042E80303AB
:10298000002BF5D189B22DE0A26B11684B689DB286
:10299000002DB2D0A18D8D42AFD2E385D269B2F5C0
:1029A000807F1CD050E8030F216820F4807000F075
:1029B0008EFD01D02068F5E700F067FCFCD12068AF
:1029C00000F0B0FCFBD1202084F83E000020206302
:1029D00000F0FDFCFCD1A06BFEF782FBA18DE08D29
:1029E000081A81B22046BDE87C40FFF7EEBE216A9E
:1029F00031F8022B6FF35F222162426065E700BF6E
:102A00000B39000890B110B5044690F83D0008B9A4
:102A100000F077FD00F017FD2068016921F4904176
:102A20000161416921F02A0100F07DBD012070475C
:102A300070B586B0044601A81421FDF7DAFD2068C0
:102A4000304988422BD03049884259D10026F94874
:102A50000096416941F010014161416901F01001A6
:102A600000F0A4FC072000F0E7FC4FF4C0600190E8
:102A7000009801A92548FEF74DFD264B264D4FF441
:102A8000806040214FF00062183300F01EFC2846A1
:102A9000FEF724FC08B1FEF7A7FA252626E000265B
:102AA000E4480096416941F020014161416901F02B
:102AB000200100F07BFC082000F0BEFC4FF4C05069
:102AC0000190009801A91148FEF724FD104D4FF424
:102AD000806040210F4B4FF0206200F0F6FB28464B
:102AE000FEF7FCFB08B1FEF77FFA472630460021CF
:102AF0000022AC636563FEF751FE3046FEF742FEEE
:102B000006B070BD001401400010014000000240FA
:102B1000D8010020A06402407801002010B590F890
:102B20003E30202B05D131B12AB190F83C30012B39
:102B300003D1022408E0012406E0002401230463F9
:102B400080F83C3001F018F8204610BD2DE9F04126
:102B500004464C4884423CD1494FD7F80404C0BBDA
:102B600097F80101FF2803D1781C00F05BFB30E0EF
:102B70003978402903D10122C7F8082403E0D7F8A7
:102B80000824012A25D1421C07F1010887F80121F8
:102B900008F8001097F8010100EB080111F8011C7A
:102BA0000A2916D1384410F8010C0D2811D1002043
:102BB00007F203266FF00105C7F80804002D50D076
:102BC00006F580703146FDF789FCA6F58076013563
:102BD000F4E72C482A490122FFF7A0FF2B48844242
:102BE00038D1294ED6F80404A0BB96F80101FF287D
:102BF00003D1701C00F016FB2CE03178402903D182
:102C00000122C6F8082403E0D6F80824012A21D1BD
:102C1000421C741C86F80121215496F80101011907
:102C200011F8011C0A2915D1304410F8010C0D28A7
:102C300010D1002006F203256FF00107C6F8080442
:102C4000B7B105F580702946FDF748FCA5F58075FC
:102C50000137F5E7F2480C490122BDE8F041FFF7E2
:102C60005DBF07F203104146FDF738FC40467CE7A4
:102C700006F203102146FDF731FC2046BAE700BFFB
:102C8000000A00203C040020E8050020F803002092
:102C9000F8B5044690F83D00202806D139B1134616
:102CA0002AB194F83C00012803D10220F8BD01208C
:102CB000F8BD0025E3840120124E144F256484F8EA
:102CC0003C00A3842162606B2268C0E913650E4E4C
:102CD0000432C0E90F76212684F83D60FEF782FBBE
:102CE00020686FF0400184F83C50016050E8050F07
:102CF000216840F0800041E805020AB12068F5E74C
:102D00000020F8BD17390008A1390008653900080E
:102D100070477047FEE70000E0B5002000220190F8
:102D20004448016841F4800101600021006800F41A
:102D30008000019001984520FEF730FD4520FEF708
:102D400021FD462000210022FEF728FD4620BDE897
:102D50008C40FEF717BD00BF2DE9F04786B0002676
:102D60003448354C002243F20709CDE90466009649
:102D7000016841F080010160016801F0800100916B
:102D800000990096016841F001010160016801F0BD
:102D90000101009100990096016841F00201016073
:102DA00043F20701006800F00200009000982046FE
:102DB000FEF780FC4FF0010A4FF488184FF488703A
:102DC0001E4F0190CDF80CA0CDF8088001ADA4F500
:102DD00080602946B84720462946CDE90366CDE9FB
:102DE000019AB8474FF480602946CDE90266019008
:102DF0002046B8474FF440402946CDE9028A019069
:102E00002046B8470E4C0A2000210022A0470D4D55
:102E10000A20A847172000210022A0471720A84712
:102E2000282000210022A0472820A84706B0BDE89E
:102E3000F08700BF3038024000040240151500083A
:102E40009D1700088517000810B50E480E4B4FF46B
:102E5000827200214FF40074C0E900320A22C0E9F6
:102E60000211C0E90411C0E90641C0E90811C0E936
:102E70000A12FEF725FF18B1BDE81040FEF7B4B8FE
:102E800010BD00BF380200200030014010B58AB0EC
:102E900000241C21CDE9084401A8FDF7AAFB114834
:102EA000632153224FF080438461C0E9003200F077
:102EB000BEFA08B1FEF798F80A4808A9FEF7C2FF63
:102EC00008B1FEF791F800F069FA064801A9FFF78A
:102ED00053FA08B1FEF788F80248FFF719FA0AB06A
:102EE00010BD00BF9002002010B58CB085480024B2
:102EF0004FF6FF71094A00F099F903A9FFF78CF822
:102F000008B1FEF771F87F486946CDE90044FEF745
:102F100099FF08B1FEF768F80CB010BD000400403E
:102F200010B58CB0784800244FF6FF71094A00F0C4
:102F30007DF903A9FFF770F808B1FEF755F872485C
:102F40006946CDE90044FEF77DFF08B1FEF74CF875
:102F50000CB010BD0008004010B58AB000241C2140
:102F6000CDE9084401A8FDF744FB6848134A40F244
:102F7000E7318461C0E9002400F059FA08B1FEF796
:102F800033F8624808A9FEF75DFF08B1FEF72CF898
:102F900000F004FA5D4801A9FFF7EEF908B1FEF769
:102FA00023F85A4801A90422FFF7E6F908B1FEF711
:102FB0001BF85648FFF7ACF90AB010BD000C0040F2
:102FC0001FB54F480F4C002140F2E73240F2473323
:102FD0000391CDE901118161C0E90043C0E902120A
:102FE0000161FEF75FFF08B1FDF7FEFF4FF480506F
:102FF000694600904248FEF7B5FF08B1FDF7F4FFBF
:103000001FBD00BF0040014010B50548054C00F051
:1030100021F918B1BDE81040FDF7E6BF10BD00BFB3
:10302000F80300200010014010B50548054C00F0E1
:1030300011F918B1BDE81040FDF7D6BF10BD00BFB3
:103040003C04002000140140FEE70000B0B52DED67
:10305000028B2B48FEF754FF2A4C3C212046FFF7F9
:1030600095F8294D3C212846FFF790F82068274C19
:10307000C16841F00101C16028680025C16841F0C4
:103080000101C16020460021FFF7F2F9204604212A
:10309000FFF7EEF9B3EE078A1D489FED1E0ADFED3C
:1030A0001E0A1E4CB0EE481AA0471D489FED1D0A8F
:1030B000F1EE020AB0EE481AA0471B48DFED1B0AEA
:1030C0009FED1B1AB3EE080AA0471A484FF6FE718F
:1030D00001224FF0FF33C0F8001417498D66C1E993
:1030E0000A55C1E90C558D63CD66C1E91155C1E999
:1030F0001325C1E91555CB650260BDEC028BB0BD4F
:10310000B0030020D8020020200300206803002024
:103110001C0E00200000344266668640B53500086B
:10312000400E002000001042E800002000000000D7
:103130003333333F240400407000002070B5006832
:1031400001281BD0002847D1B1F57A7FA8BF4FF4E2
:103150007A71234E11F57A7FC8BF0E46002E1DDD11
:10316000012400221F4D04212846FEF7A3FA284619
:103170004FF400512246FEF79DFA12E0B1F57A7F36
:10318000A8BF4FF47A71164E11F57A7FC8BF0E466C
:10319000002E0ED4CEB1002401220CE0B6F1FF3F88
:1031A0001BDD00EE106A104800F0F1F880ED010A16
:1031B00070BD012400220B4D01212846FEF77AFA4A
:1031C000284602212246FEF775FA00EE106A0648EC
:1031D00000F0DDF880ED000A70BD00240122C1E797
:1031E00018FCFFFF00040240340C004010B5D0ED85
:1031F000070A0446084600F0A9F9BDEEC00A2046B9
:1032000010EE101ABDE81040FFF798BFFEE700EE81
:10321000100A30EE000A10EE100A01F075BD2422EB
:10322000FDF780B940F20111FDF7C1B9CDE90A44BB
:10323000CDE90644CDE90044C0E9024101218461A1
:10324000C0E900240461CDE90841CDE9044103212E
:103250000391704700210C224FF4E133C0E9004391
:10326000C0E90211C0E90412C0E90611FFF7CABBA8
:10327000D3F8000400F0070040457047002084F8B0
:103280003400012084F835007047206850E8050FAD
:10329000216820F0010041E80502002A7047F8EE9D
:1032A000C00AB0EE480A00F051B9B0EE480AF0EE9C
:1032B000490AB0EE4A1A7047016841F00101016005
:1032C000006800F0010000907047C5E9021628610F
:1032D00005F114001421C5E90032FDF78AB904464E
:1032E00090F834000128704700F01F0101224009C6
:1032F00002FA01F17047012084F8460084F83E008C
:1033000084F83F0084F8400084F8410084F84200CB
:1033100084F8430084F8440084F8450084F83D00B4
:10332000002010BD50E8050F216820F0400041E862
:103330000502002A7047816801F0070106297047DD
:10334000016851E8051F026821F0010142E80513F8
:10335000002B70470220002984F83E0084F83F00CB
:1033600084F8420084F84300704701680191416885
:1033700001910199704764216FF06303B0FBF1F292
:1033800002FB030032237047012200F0D1B9B8EEEE
:10339000C00AB0EEC00ABDEEC00A7047002000228D
:1033A0000590CDE9020060200190704700910099DE
:1033B0000096016841F001010160006800F0010021
:1033C00000907047B06800F00C0008287047206833
:1033D00050E8030F216820F0100041E80302002AA2
:1033E0007047012084F8460084F83E0084F83F00CE
:1033F00084F8420084F8430084F83D0000207047C0
:103400004A6C42F400424A647047002084F83C0051
:1034100020467047D1E90123C9681A4342EA0121D5
:10342000826822F47F421143816081687047C0E95D
:1034300002410461FEF7E5BF05900320CDE903607A
:10344000022002907047242084F83D002068C16863
:1034500021F40051C160204600F038BB90F83E6076
:1034600090F83F5090F84230044690F843200120F5
:10347000042970474DF808ED2046FEF77BFF2046F3
:103480005DF808EBFEF7F2BF90F83C2004460220FE
:10349000012A704784F83F0084F8430070470446CF
:1034A00090F83D0000287047016841F0010101607B
:1034B000002070BD0D4601204FEAB201032984F8B7
:1034C0003C00704784F83E0084F84200704741E8B1
:1034D0000302002A70472046FEF785BEB042026212
:1034E0000A688B68046A45687047002184F83C10BC
:1034F000012184F83D1070474B68CA68194600F0F6
:10350000BFB9002084F83C002046FFF791BA04467A
:1035100090F83C00012870470220211D84F83D00EE
:10352000206800F0BFB84161C16841F40051C1603A
:1035300000202021206484F83D1084F83E1010BD46
:10354000016841F0010101607047000090ED055AEB
:1035500030EE601A9FED156A90ED072A90ED003A63
:1035600090ED010A90ED024A80ED061A80ED071AEF
:1035700031EE055AB4EE465AF1EE10FAC8BFB0EE7D
:10358000465A9FED0B6AB4EE465AF1EE10FAB8BFF8
:10359000B0EE465A20EE050A80ED055A01EE030A08
:1035A00031EE421A04EE010A704700BF8096184BB4
:1035B000809618CB80B5A0EC030A1821FDF719F806
:1035C00080BD70477047FEF77FB80000B0B592B07D
:1035D00000241421CDE90A44CDE9084401A8FDF7EF
:1035E00008F8214800940225016841F080510160EB
:1035F000006800F080500090009800941B4801681B
:1036000065F38F310160006800F4404000900420B1
:10361000CDE91050A8200F9019200E904FF4800093
:10362000CDE90C504FF480300790012006900098AF
:1036300006A8FEF7B1F918B1EFF3108072B6FEE7F5
:103640004FF4805005940221CDE903400F20CDE9CD
:10365000010501A8FEF7CEF818B1EFF3108072B69D
:10366000FEE712B0B0BD00BF40380240007000401D
:103670000248016841F470010160704788ED00E084
:103680000148FEF7B1BD00BFB00300200148FEF7BE
:10369000ABBD00BFD80200200148FEF7A5BD00BFAA
:1036A0002003002070B5754A0368904205D000F1F0
:1036B00040444FEAB424032C05D84C6823F070032F
:1036C0002343904214D0B0F1804F11D0124CA0424D
:1036D0000ED0124CA0420BD0114CA04208D0114C7D
:1036E000A04205D0104CA04202D0104CA04203D101
:1036F000CC6823F4407323434E6923F080030C68A5
:103700008D68334390420360C562846201D10969C8
:1037100011630121416170BD0004004000080040B8
:10372000000C0040004001400048014000440140BE
:1037300010B501F01F010123046A8B4002FA01F168
:1037400024EA03030362026A1143016210BD000010
:10375000F0B5026A494E22F0010202620A688B68E3
:10376000046A456824F0020423438469B0420CD102
:10377000D1E9057625F44075D1F80CC023F00C038F
:103780003D4335432CF00406334324F07304456075
:1037900022438261496841630362F0BDF0B5026A69
:1037A000364E22F01002FFF799FE24F0200444EA7E
:1037B0000313846910D1D1E9057625F44065D1F869
:1037C0000CC023F0C00345EA870545EA86056FF083
:1037D000400606EA0C16334324F4E644456044EA06
:1037E00002228261496881630362F0BDF0B5026A1A
:1037F000224E22F48072FFF771FE24F4007444EA32
:103800000323C46911D1D1E9057625F44055D1F8D7
:103810000CC023F4406345EA071540F2FF4745EA30
:1038200006154FEA0C26BE43334324F0730445606B
:103830002243C2614968C1630362F0BDF0B5026A08
:103840000E4F22F48052B8420262026A45680C6848
:103850008B68C66904D14F6925F4804545EA871510
:10386000456026F4E64545EA0424C46149680164DC
:1038700022F4005141EA03310162F0BD0000014031
:1038800010B5036A046A24F001040462846924F018
:10389000F00444EA0212826123F00A021143016239
:1038A00010BD036A23F010030362836923F470439D
:1038B00043EA0232036A826123F0A00242EA011164
:1038C00001627047B0B500F2033504466121284615
:1038D000FCF7FAFD20B10130FCF7E9FDC4F80C0457
:1038E00028466221FCF7F0FD20B10130FCF7DFFD36
:1038F000C4F8100428466321FCF7E6FD20B101302E
:10390000FCF7D5FDC4F81404B0BD806B0021C1855F
:10391000C184FEF75BBF10B5846B2068416994F8E1
:103920003D20212A08D111F0800105D00020E0843B
:10393000204600F05CF82068406994F83E10222987
:1039400007D110F0400004D00020E085204600F0B0
:103950002AF8206C40F0100020642046BDE810409A
:10396000FEF734BF0168806B0968C90548BFFFF7DF
:10397000CFB90021C184016851E8051F026821F018
:10398000800142E80513002BF5D1016851E8031FBF
:10399000026841F0400142E80313002BF5D1704763
:1039A000806BFFF7B6B9016851E8031F026821F484
:1039B000907142E80313002BF5D14DF808EDFFF7A5
:1039C000BFFC5DF808EBF8D1016B012909D1016852
:1039D00051E8031F026821F0100142E80313002B95
:1039E000F5D1202180F83E10002101637047016865
:1039F00051E8031F026821F0C00142E80313002BC5
:103A0000F5D1202180F83D10704781B090F83E102C
:103A1000222920D18368B3F5805F08D1016900298C
:103A200048D000F128010A6803685B680AE0014693
:103A300051F8282F13B90369002BF5D003685B6890
:103A400003F07F0313700A6801320A60C18D0139E7
:103A5000C185090401D001B070470168CA6822F02D
:103A60002002CA60CA6822F48072CA604A6922F0E1
:103A700001024A61202280F83E20026B012A22D1F5
:103A80000022026351E8031F026821F0100142E89E
:103A900003130168002BF5D10A68D20606D500226F
:103AA00000920A680092496800910099818D01B0E6
:103AB000FEF78BBE0168826A49686FF35F2122F8C6
:103AC000021B8262C2E701B0FFF740B8B0B50446FE
:103AD000006804F108030ECB056925F4405519432D
:103AE0002A4349F20C650261C26863691943E369BC
:103AF000AA4319431143C1604169A26921F440718D
:103B0000114341611B4940F48060884202D1FDF7B6
:103B100005FF01E0FDF7F8FEE26919216368A0FBEB
:103B20000101B2F5004F10D15A00DB0FFCF7B4FBD6
:103B3000FFF721FC03EBC000B0FBF1F14FF4F8708C
:103B400000EA410001F007010DE09A009B0FFCF72D
:103B5000A3FBFFF710FC03EB0010B0FBF1F101F049
:103B6000F00001F00F0100EB0210084321688860AB
:103B7000B0BD00BF00140140B0B500232224C285AF
:103B8000036480F83E400468E56845F48075E560AC
:103B9000656945F0010565618285816280F83C3088
:103BA000E06840F02000E0600020B0BD2948FEF74A
:103BB0000FBE00BF2948FEF70BBE00BFFEE70000A6
:103BC00010B5074C00F00F03B0F1FF3F034A234448
:103BD000C8BF83180801187010BD00BF00E400E0E2
:103BE00014ED00E003490A685206FCD5C2B24A60EF
:103BF000704700BF00100140FDF770FDFFF7E6FCC5
:103C0000FFF7AAF8FFF788F8FFF7FEF9FFF70CFABD
:103C1000FFF76AF9FFF784F9FFF79EF9FFF7D0F98C
:103C2000FFF712F9FFF732F90A480B490122FEF7B4
:103C300075FF0A480A490122FEF770FF0948002172
:103C4000FEF716FC0848FDF7D3F908480A21016081
:103C5000FEE700BFF8030020E80500203C04002038
:103C6000000A002090020020A00400203400004040
:103C70005FEA400C08BF91F0000F4FEA8C234FEA37
:103C8000C12243EA51514FEA1C5018BF00F5F040E1
:103C90004FEA300018BF41F000415FEA6C5C00F071
:103CA0002980BCF1FF3F08BF40F080407047130CF3
:103CB00006BF12044FF0100C4FF0000C130E04BF9F
:103CC00012020CF1080C130F04BF12010CF1040CCA
:103CD000930F04BF92000CF1020CD30F04BF5200EB
:103CE0000CF1010C11464FF00002A0F11F00A0EBF7
:103CF0000C00704711F0004F08BF704731F00041D1
:103D00003FF4D5AF0B0C06BF09044FF0100C4FF079
:103D1000000C0B0E04BF09020CF1080C0B0F04BFC2
:103D200009010CF1040C8B0F04BF89000CF1020C8B
:103D3000CB0F04BF49000CF1010CCCF1200322FA97
:103D400003F341EA030102FA0CF2A0EB0C0000F1CC
:103D50000100704723F07F4720F07F4C80EA03008A
:103D600000F00040ACEB070303F57C5303F1FF03C5
:103D70002DE9804909B44FEA144324EA03484FEA85
:103D8000154B25EA0B4E0FF2042606EB13273E785F
:103D900003FB0667C7F5000707FB06F64FEAD646A2
:103DA00006F102064FEA543707FB066CCCF1005CC3
:103DB0004FEA1C472CEA074C0CFB06F507FB06F400
:103DC00004EB15464FEA961649085FEA320234BF03
:103DD00000204FF000404FEAD13706FB07FC4FEAC6
:103DE0001C4C0CFB0BF7D21B03FB0CF761EB070120
:103DF0000CFB0EF7B0EB074072EB17420CFB08F719
:103E000034BFA2EB0742B2EB074261EB17414FEA26
:103E10000C444FEA910706FB07FC4FEA1C4C0CFBD5
:103E20000BF7B0EBC74072EB573203FB0CF734BF14
:103E3000A2EBC742B2EBC74261EB57310CFB0EF766
:103E4000B0EBC70072EB57720CFB08F734BFA2EB64
:103E5000C702B2EBC70261EB57714FEA816141EAD9
:103E600092114FEA826242EA90124FEA806004EBBC
:103E7000CC04039F4FEAD13706FB07FC4FEA1C4CEA
:103E80000CFB0BF7D21B03FB0CF761EB07010CFBE0
:103E90000EF7B0EB074072EB17420CFB08F734BF8C
:103EA000A2EB0742B2EB074261EB17414FEA8C5598
:103EB00004EB9C244FEA910706FB07FC4FEA1C4CDD
:103EC0000CFB0BF7B0EBC74072EB573203FB0CF760
:103ED00034BFA2EBC742B2EBC74261EB57310CFBD8
:103EE0000EF7B0EBC70072EB57720CFB08F734BF4C
:103EF000A2EBC702B2EBC70261EB57714FEA8161D7
:103F000041EA92114FEA826242EA90124FEA8060DF
:103F100015EB4C2544F100044FEAD13706FB07FCB2
:103F20004FEA1C4C0CFB0BF7D21B03FB0CF761EBAD
:103F300007010CFB0EF7B0EB074072EB17420CFBCE
:103F400008F734BFA2EB0742B2EB074261EB17411F
:103F50004FEA813141EA92414FEA823242EA90428D
:103F60004FEA80304FEA0C7615EB1C1544F1000443
:103F700048EA03434EEA0B484FF0000EB2EB080C40
:103F800071EB030724BF624639464EEB0E0E4FF02D
:103F9000000B0018524149414BEB0B0BB2EB080CE4
:103FA00071EB03077BF1000B24BF624639464EEBF1
:103FB0000E0E4FF0000B0018524149414BEB0B0B1A
:103FC000B2EB080C71EB03077BF1000B24BF6246D8
:103FD00039464EEB0E0E51EA020718BF46F00106B5
:103FE00016EB0E7655F1000254F1000103D5BDE841
:103FF0008901BDE80088BDE88901BDE80048B6191F
:10400000524141EB0101A3F10103704780807F7EA3
:104010007D7C7B7A7978777676757473727171703E
:104020006F6E6E6D6C6C6B6A6A69686867666665F0
:104030006464636362616160605F5F5E5E5D5D5C7E
:104040005C5B5B5A5A5959585857575656555555EF
:104050005454535352525251515050504F4F4F4E4F
:104060004E4D4D4D4C4C4C4B4B4B4A4A4A4949499D
:1040700048484847474747464646454545444444DF
:104080004443434343424242424141419C46002B08
:1040900030D477002BD04FEA37071CB503B44FF06C
:1040A00010004FF01001BAF1000F06D0BCF1000F64
:1040B000DCBF40F0080040F008014FF000000FBCEA
:1040C000BDE810400BF1010BBBF1010F08BF5FEA27
:1040D000170722BF12F1010211F101014FF0004157
:1040E00043F1000300F0004043EA00007047F9D3B9
:1040F0005708D0E746EA06464FEA164613F1400F46
:104100001FDD13F1200FDFBF16430A4600212033C5
:104110005B42BED0C3F1200746EA06464FEA164688
:1041200002FA07F746EA070622FA03F2C3F120076C
:1041300001FA07F742EA070221FA03F14FF0000300
:10414000A7E746EA020646EA06464FEA164646EA68
:104150000106BCBF46EA0646360C4FF000034FF09E
:1041600000024FF0000194E72DE9804C70B49A46AC
:10417000934691E8380007C831EA400C48BF34EA5A
:10418000430C03D5FFF7E6FDFFF780FFF0BCBDE869
:10419000008C2DE9804C70B49A46934691E8380023
:1041A00007C810F0804F08BF13F0804F03D100F014
:1041B00005F8FFF76BFFF0BCBDE8008C20F07F47EF
:1041C00023F07F4C80EA030000F0004007EB0C0373
:1041D000A3F57C53A3F1FE0392F0000F00F0B3802F
:1041E00095F0000F00F077802DE901494FEA11406A
:1041F00021EA00484FEA144624EA064700FB06FC81
:1042000008FB06F607FB08F818EB06484CEB164CC3
:1042100000FB07F718EB07484CEB17404FEA124B2F
:1042200022EA0B4E4FEA154625EA06470BFB06FC31
:104230000EFB06F607FB0EFE1EEB064E4CEB164C75
:104240000BFB07F71EEB074E4CEB174B18EB0B085D
:1042500040F1000018EB0E0B58EB000840F1000095
:104260008F1A4FF000014FF000063CBFC943661B98
:1042700014BFB5EB040C00213CBFC943F61B4FEA49
:10428000174427EA04454FEA1C472CEA074C04FB75
:10429000076205FB07F70CFB05F616EB074642EB3A
:1042A000174204FB0CFC16EB0C4642EB1C421BEBCA
:1042B000060658EB020241414EEA8E0E46EA9E0681
:1042C00001D5BDE80189B619524141EB0101A3F1C5
:1042D0000103BDE801894FEA144524EA05464FEA87
:1042E000114721EA074C05FB07F406FB07F70CFB17
:1042F00006F111EB074144EB174405FB0CFC11EBF5
:104300000C4144EB1C444FEA124722EA074C05FBE0
:1043100007F206FB07F70CFB06F616EB074642EB27
:10432000174205FB0CFC16EB0C4642EB1C456A18C9
:1043300054F1000148BF7047B619524141EB0101E9
:10434000A3F10103704795F0000F37D04FEA1142F7
:1043500021EA02464FEA144724EA074C02FB07F120
:1043600006FB07F70CFB06F414EB074441EB17417F
:1043700002FB0CFC14EB0C4441EB1C414FEA1547CB
:1043800025EA074C02FB07F506FB07F70CFB06F6D0
:1043900016EB074645EB174502FB0CFC16EB0C46EB
:1043A00045EB1C42121951F1000148BF7047B61984
:1043B000524141EB0101A3F1010370474FEA14455B
:1043C00024EA05464FEA114721EA074C05FB07F1AD
:1043D00006FB07F70CFB06F212EB074241EB174115
:1043E00005FB0CFC12EB0C4251EB1C414FF000069C
:1043F00048BF7047921841EB0101A3F101037047D8
:1044000003B401984100009850EAC12018BF04206D
:104410004A0D18BF40F0010040F2FF72B2EB515F4D
:1044200008BF40F00200012808BF052002B0704715
:1044300030380A2801D20120704700207047000060
:1044400010B500290AD00878002807D0054878441C
:10445000FCF73AFD002801D0002010BD0248784446
:1044600010BD0000920A00008A0A000010B5002961
:104470000AD00878002807D005487844FCF724FDC6
:10448000002801D0002010BD0248784410BD000073
:10449000820A00007A0A000021F0004201F0004385
:1044A000A2F16052B2F5801F28BFD2F17F6C0BD908
:1044B0005FEA001C43EAC20242EB507018BF70472B
:1044C00028BF20F001007047B2F5801FBCBF18461E
:1044D00070474FEA410C1CF5001F02D2084600F05D
:1044E00091BC70B500F0CEFA00000089FFF7F6BF6E
:1044F0004FF00040A0F580007047000010B591EA31
:10450000030F48BF83F0004300F11883841A71EB56
:10451000030C05D2121943EB0C03001B61EB0C01D9
:104520004FEA1154A4EB135CDFF81CE11EEA430FC1
:1045300018BF9EEA445F00F0748021EA045123EA28
:104540000E0343F48013DCF1200E32D322FA0CFE6A
:1045500010EB0E0023FA0CFE41EB0E01CCF1200E05
:1045600003FA0EFE10EB0E00CCF1200E51F100010B
:10457000B1F5801F32D201EB045112FA0EF2BDE800
:10458000104058BF7047401C38BF5FEA420218BF56
:104590007047002814BF20F0010041F100014FEAEC
:1045A000410313F5001F38BF7047A1F1C04100F06F
:1045B000B7BA012A43EB0302ACF1200CDCF11F0E69
:1045C00032BF4FF0000E23FA0CF310EB030041EB67
:1045D0000451B4EB115FD0D0A1EB045101F580116F
:1045E000490801EB04515FEA30000ED350F100009E
:1045F00038BF12FA0EFE08D1BDE81040C9E7401CD2
:1046000038BF5FEA4202CAD1C3E7BDE810404FEAB3
:10461000410313F5001F38BF7047A1F1C04100F0FE
:104620007FBA9EEA445F08D011EA5E0FBDE81040F1
:1046300004BF01F0004100207047BDE8104070B594
:1046400000F020FA64FBBE3E0000E0FF2DE9C0410F
:1046500030B4DFF8A4C23CEA111418BF3CEA1314CA
:1046600000F0ED801CEA111481EA030544EAD574D8
:1046700018BF1CEA131500F0C880A4EB050404F170
:104680007F7404F500344FF0004545EAC12145EA46
:10469000C32341EA505143EA52534FEAC0204FEA44
:1046A000C222994208BF904200F09D804FEA1365F4
:1046B0000FF24416765D4FEA134506FB05F7C7F186
:1046C000807706FB07F74FEAD737A7FB03687642E8
:1046D000A7FB06CEC8F5803838BFA8F1010807FB54
:1046E00008E6A6FB028C4FF0000EE6FB03CEDCF1E1
:1046F000000CCEF1004E38BFAEF1010EA6FB0C58F7
:104700004FF00007E6FB0E87A1FB08C6A0FB07CE13
:1047100016EB0E064FF0000545F10005E1FB0765BD
:1047200015F1E04E7EBFA4F580345FEA46066D4188
:1047300016F1800745F100054FEA172747EA05679C
:104740004FEA15254FEA0666A6F1DE46B6F1805F10
:1047500020D9384605EBC47124F0010C01EB0C1193
:10476000BCF1FE6F02D8F0BCBDE8008124425CBF02
:1047700001F5801E9EEAC47F02D4F0BCBDE8008132
:10478000244200F13980A1F1C041F0BCBDE80041F4
:1047900000F0C6B94FEAD02040EA41504FEAD1219B
:1047A0004FEAD22242EA43524FEAD323A7FB0286C2
:1047B00007FB036605FB02661EEA0E0F58BFA6EB59
:1047C0000056B6EB00564FEA520E4EEAC37E18EB87
:1047D0000E0E56EB530EBCD518EB02085E417F1C43
:1047E00055F10005B5E74FF480154FF000074FF085
:1047F00000064FF00008ACE701F1C04101F00041B4
:104800004FF00000F0BCBDE800810CEA131511EA7E
:104810000C1F00D00CE013EA0C1F00F026804FF0B4
:10482000000081EA030101F00041F0BCBDE8008115
:10483000F0BCBDE8004181EA030100F071B9F0BCB1
:10484000BDE8004170B500F01DF900BF097EFC3ED7
:1048500000F007B84FF0000081EA030101F00041C9
:10486000704781EA030100F05BB9F0BCBDE800418C
:1048700022494FF000007047FFFDFBF9F7F5F4F215
:10488000F0EEEDEBE9E8E6E4E3E1E0DEDDDBDAD8EB
:10489000D7D5D4D3D1D0CFCDCCCBCAC8C7C6C5C449
:1048A000C2C1C0BFBEBDBCBBBAB9B8B7B6B5B4B360
:1048B000B2B1B0AFAEADACABAAA9A8A8A7A6A5A44B
:1048C000A3A3A2A1A09F9F9E9D9C9C9B9A9999980F
:1048D0009797969595949393929191908F8F8E8EB2
:1048E0008D8C8C8B8B8A898988888787868585843F
:1048F00084838382828181800000FF070000F87F2B
:1049000010F0004248BF4042B0FA80F310FA03F1C1
:104910000AD0C3F11D0303F5806302EB03524FEA93
:10492000415002EBD12170474FF00000704700006A
:1049300070B5DFF848C11CEA111E1EBF1CEA131532
:104940009EEA0C0F95EA0C0F00F06F8081EA0304D9
:104950004EEAD47EAE4421EA4C1123EA4C1341F4D2
:10496000801143F48013AEF17F7EA1FB024CA0FBCB
:104970000365361955EB0C05A1FB034C4CF1000304
:10498000A0FB021C16EB0C06654153F10003094223
:1049900018BF46F0010613F4007F0BD14FEA033134
:1049A0004FEA053041EA155140EA165034036FF0E2
:1049B00003020AE04FEAC3214FEAC52041EA5551FC
:1049C00040EA5650F4026FF0020202EB2E4201EB75
:1049D000025585EACE710AD05FEA440C18BF24F074
:1049E000004450F1000041F1000120EAD47040F28F
:1049F000FE7C624500D270BDA84214BF4FF08044D7
:104A00004FF04044002E08BF0024BEF1806FA8BFC5
:104A1000A1F1C041BDE8704080F2828001F1C04147
:104A200001F000414FF0000070470CEA13159EEAB8
:104A30000C0F18BF95EA0C0F06D081EA030E4FF059
:104A400000000EF0004170BD00F01CF88900013E2E
:104A500000F007B800F009B84FEA430C5FEA5C5C6D
:104A600008D081EA030100F05BB84FEA410C5FEA2D
:104A70005C5CF6D102494FF0000070470000FF0770
:104A80000000F87F0EF1020E2EF0030E5EF8046BAC
:104A9000364205D4012A43EB030515F5001F12D851
:104AA000012841EB010C1CF5001F0CD80ED14FEA78
:104AB000D17C0CEB4C0C0CF1020C15F5001F08BF5F
:104AC0004CEBD37C04E04FF0080C01E04FEAD37CC0
:104AD0000CEB4C0526FA05F606F00706B6F1040CB9
:104AE00006D20EEB860CBDE870404CF0010C60471E
:104AF000DFE80CF0090B02024FF00041A1F50021A4
:104B00004FF0000070BD19461046012851EB01041A
:104B100018BFD4F5001484BF002001F0004170BD1F
:104B20000808A0F500114FEA3101704710B591EA6D
:104B3000030F48BF83F000433FF5E8AC841A71EBE4
:104B4000030C07D28CF0004C121943EB0C03001B32
:104B500061EB0C014FEA1154A4EB135CDFF8A4E104
:104B60001EEA430F18BF9EEA445F00F0B48021EABA
:104B7000045123EA6E035242C3EB6E0338BF5B1E3F
:104B8000DCF1200E25D322FA0CFE10EB0E0043FAC6
:104B90000CFE41EB0E01CCF1200E03FA0EFE10EBE1
:104BA0000E00CCF1200E51F1000129D401EB04518B
:104BB00012FA0EF2BDE8104058BF7047401C1CBFEF
:104BC000B2F1004F704700280CBF491C20F00100D3
:104BD000704712EB020E43EB030218BF4FF0010EB9
:104BE0004EEA4202ACF1200CDCF11E0E56D943FA1B
:104BF0000CFE10EB0E00CCF11E0E51F1FF31D5D59D
:104C00000EF1010E12FA0EFE404141EB010101EBE3
:104C1000445C5FEA5C5C10D901EB045110EBDE7080
:104C200038BFBEF1004FBDE8104018BF70470028E4
:104C30000CBF491C20F00100704734D24FEAD42C3D
:104C400024F4006411F500111BD0B1FA81F20B3A83
:104C5000A41AA41ED2F12003914030FA03F31943A1
:104C6000904001EBCC7101EB0451002CBDE81040E9
:104C7000A8BF704701F1C04101F000414FF00000B2
:104C80007047B0FA80F310FA03F102D1BDE810408A
:104C90007047E41A173C4805C90AE2E701EB0451E2
:104CA000BDE81040704749104FEA300001EB045155
:104CB000BDE8104002E04FF0000170474A0008BF15
:104CC0000042F8D0B2F5001F28BF704701F0004144
:104CD0004FF0000070479EEA445F07D011EA5E0F74
:104CE000BDE8104004BF002100207047BDE810401F
:104CF00070B5FFF7C7FE00BF40DFF63E104683F0F9
:104D0000004170470000E0FF43004FEAD30C4FEA38
:104D10003C0C43401FBF40070CF1605113F0FE4FA5
:104D200070471CF0006F03D10CF000410020704769
:104D30000CF0004343EA507040EACC0010B500F09C
:104D40000EF800BF000000924FEA0001FFF7E8BE36
:104D50004FF00041A1F500214FF0000070470EF127
:104D6000020E2EF0030E5EF8044B244204D44FEAE8
:104D70004102B2F17F4F11D84FEA4003B3F17F4FA8
:104D80000CD80ED14FEAD07C0CEB4C0C0CF1020C81
:104D9000B2F17F4F08BF4CEBD17C04E04FF0080C20
:104DA00001E04FEAD17C0CEB4C0324FA03F404F04D
:104DB0000704B4F1040C06D20EEB840CBDE81040DD
:104DC0004CF0010C6047DFE80CF0070802024FF0DE
:104DD0000040A0F5800010BD0846420018BFD2F187
:104DE000807288BF00F0004010BDF1EE100A4FF64F
:104DF000FF71C0F2C03120EA010040F04070E1EEE6
:104E0000100A7047FF2141EAD050C0057047FBF7F8
:104E1000F7BC000002400000000000A000000000FD
:104E200005400000000000C8000000000C40000029
:104E30000000409C00000000194000000020BCBEA3
:104E40000000000034400000BFC91B8E00000004B9
:104E5000B5400000504BCFD06607E2CF0100000004
:104E60006C4100003E8251AADFEEA7340100000031
:104E7000D9420000DCB5A0E23A301F97FFFFFFFFE8
:104E8000B4450000FD25A0C8E9A3C14FFFFFFFFF07
:104E9000FF3F00000000008000000000FF3F000016
:104EA0000000008000000000000000000000000082
:104EB00001020304060708090000000001020304C0
:104EC000105000080000002010000000D001000871
:104ED000205000081000002058140000EC010008C9
:104EE0001C00000043000000F8FFFFFF0C00000062
:104EF0000E0000000F0000002E0000001001000056
:104F000043000000F8FFFFFF0040404040404040A9
:104F1000404041414141414040404040404040408C
:104F20004040404040404040400502020202020230
:104F3000020202020202020202202020202020207F
:104F40002020200202020202020290909090909093
:104F50001010101010101010101010101010101051
:104F600010101010020202020202888888888888C5
:104F700008080808080808080808080808080808B1
:104F800008080808020202024000000000000000B9
:104F90000000000000000000000000000000000011
:104FA0000000000000000000000000000000000001
:104FB00000000000000000000000000000000000F1
:104FC00000000000000000000000000000000000E1
:104FD00000000000000000000000000000000000D1
:104FE00000000000000000000000000000000000C1
:104FF00000000000000000000000000000000000B1
:1050000000000000000000000000000000000000A0
:1050100001000000100000000024F4000100000066
:040000050800019559
:00000001FF
