:020000040800F2
:10000000E0070024AD020008532F0008012A000871
:10001000512F0008E5030008513E000800000000D1
:1000200000000000000000000000000099310008FE
:100030002504000800000000552F0008ED310008DD
:10004000C7020008C7020008C7020008C70200086C
:10005000C7020008C7020008C7020008C70200085C
:10006000C7020008C7020008C7020008C70200084C
:10007000C7020008C7020008C7020008C70200083C
:10008000C7020008C7020008C7020008C70200082C
:10009000C7020008C7020008C7020008C70200081C
:1000A000C7020008C7020008C7020008C70200080C
:1000B000C7020008C7020008C7020008C7020008FC
:1000C000C7020008C7020008C7020008C7020008EC
:1000D000C7020008C7020008C7020008C7020008DC
:1000E00029040008C702000800000000C702000839
:1000F000C7020008C7020008C7020008C7020008BC
:10010000C7020008C7020008C7020008C7020008AB
:10011000C7020008C7020008C7020008C70200089B
:10012000C7020008C7020008C7020008C70200088B
:10013000C7020008C7020008C7020008C70200087B
:1001400000000000000000000000000000000000AF
:10015000C7020008C7020008C7020008C70200085B
:10016000C7020008C7020008C7020008C70200084B
:10017000C7020008C7020008C7020008C70200083B
:10018000C7020008C7020008C7020008C70200082B
:10019000C7020008C7020008C7020008C70200081B
:1001A000C7020008C7020008C7020008C70200080B
:1001B000C7020008C7020008C7020008C7020008FB
:1001C000C7020008C7020008C7020008C7020008EB
:1001D000C7020008C7020008C7020008C7020008DB
:1001E000C7020008C7020008C7020008C7020008CB
:1001F000C7020008C7020008C7020008C7020008BB
:10020000C7020008C7020008C7020008C7020008AA
:10021000C7020008C7020008C7020008C70200089A
:10022000C7020008C7020008C7020008000000005B
:10023000C7020008C702000800000000C70200084B
:10024000C7020008C7020008C7020008C70200086A
:10025000C7020008C7020008C7020008C70200085A
:10026000C7020008C7020008C7020008C70200084A
:10027000C7020008C7020008C7020008000000000B
:10028000C7020008C7020008C702000800000000FB
:1002900000000000C7020008DFF80CD000F090F862
:1002A0000048004725430008E0070024064880472F
:1002B00006480047FEE7FEE7FEE7FEE7FEE7FEE74B
:1002C000FEE7FEE7FEE7FEE79D3200089902000820
:1002D0002DE9F05F0546002092469B46884606467B
:1002E000814640241BE0284641464746224600F00E
:1002F00057F853465A46C01A914110D31146184632
:10030000224600F03EF82D1A67EB01084F462246C0
:100310000120002100F035F817EB00094E41201EA6
:10032000A4F10104DFDC484631462A464346BDE8D5
:10033000F09FD2B201E000F8012B491EFBD27047BA
:100340000022F6E710B513460A4604461946FFF7A1
:10035000F0FF204610BD30B50B460146002020229C
:10036000012409E021FA02F59D4205D303FA02F5C2
:10037000491B04FA02F52844151EA2F10102F1DC22
:1003800030BD202A04DB203A00FA02F10020704739
:100390009140C2F1200320FA03F3194390407047C3
:1003A000202A04DB203A21FA02F00021704721FACA
:1003B00002F3D040C2F12002914008431946704731
:1003C000064C074D06E0E06840F0010394E80700A2
:1003D00098471034AC42F6D3FFF762FFF0470008AD
:1003E00010480008FEE7000010B50D4C94ED000B1E
:1003F00003F06EFE94ED020B03F0E4FE94ED040BAB
:1004000003F0B8FE94ED060B03F038FE94ED080BF4
:1004100003F00AFE94ED0A0BBDE8104003F080BE25
:10042000100000247047000010B500F08FF9054956
:10043000086000F08BF9BDE810404FF4006000F058
:1004400052B80000440000242DE9FF414FF0000E97
:100450004FF0FD0CDDE90B460A9FCDF800E08DF86A
:100460000010210E8DF801C04FEA144CCDF804E0C5
:10047000CDF808E08DF80220220A0D9D8DF8043099
:100480008DF808200D22CDF80CE04FEA132E8DF8E0
:1004900005708DF809408DF803E04FF06B0E8DF874
:1004A000061069468DF80A608DF807C08DF80B506C
:1004B0008DF80CE004F07CF9BDE8FF8172B6FEE730
:1004C00070B5044600F042F90546601C02D00448AD
:1004D0000078044400F03AF9401BA042FAD370BD02
:1004E0004800002470474FF0B04110B5D1F8882083
:1004F000024203D0C1F88800FFF7F4FF10BD0000EE
:100500002DE9F84F03247D4D00234FF001094FF0F2
:10051000B04B4FF00F0AE9E009FA03F73A4076D002
:100520000E7906F00306012E01D0022E18D1D0F864
:1005300008C04FEA430ECE6804FA0EF82CEA080C05
:1005400006FA0EF646EA0C068660D0F804C00E796C
:100550002CEA070CC6F300169E4046EA0C064660DD
:100560000E79F643B6070BD0C6684FEA43088F688A
:1005700004FA08FC26EA0C0607FA08F73743C760B6
:100580000E7906F00306022E12D1DE080F694FEA3B
:10059000437C00EB8606B646366A4FEADC6C0AFA04
:1005A0000CF807FA0CF726EA08063743CEF8207055
:1005B0000F7906684FEA430807F0030704FA08FCBE
:1005C00007FA08F726EA0C06374307604E6816F468
:1005D000403F1CD04A4E376847F002073760366804
:1005E0009F0706F00206009623F0030606F1B046C8
:1005F000B6463F0FD6F80864DFF808810AFA07FC10
:10060000404526EA0C0603D14FF0000C41E06CE0B7
:10061000DFF8F4C0604502D14FF0010C39E0DFF89B
:10062000ECC0604502D14FF0020C32E0DFF8E0C0D0
:10063000604502D14FF0030C2BE0DFF8D8C06045D5
:1006400002D14FF0040C24E0DFF8CCC0604502D1A9
:100650004FF0050C1DE0DFF8C4C0604502D14FF03B
:10066000060C16E0DFF8B8C0604502D14FF0070C69
:100670000FE0DFF8B0C0604502D14FF0080C08E091
:10068000DFF8A4C0604502D14FF0090C01E04FF043
:100690000A0C0CFA07FC4CEA060CCEF808C44F68AA
:1006A000DBF80060FF0226EA020600D516435F462B
:1006B000CBF80060D1F804C0DBF804605FEA8C2C52
:1006C00026EA020600D516437E606E684F6826EA69
:1006D0000206BF0300D516436E602E684F6826EAF7
:1006E0000206FF0300D516432E605B1C0A6832FA2F
:1006F00003F67FF411AFBDE8F88F000080000058CA
:10070000F44402580000025800040258000802583D
:10071000000C025800100258001402580018025829
:10072000001C0258002002580024025800690840AA
:1007300000D0012070470AB1816170470904FBE7CE
:1007400001480068000C70470010005C0148806898
:100750007047000048000024024881680278114474
:100760008160704748000024032010B500F0D4F8E1
:1007700001F0AEF80F4A104914681368C4F303225D
:1007800003F00F038A5CC95C02F01F0201F01F0135
:10079000D0400A4A20FA01F11160094908600F208F
:1007A00000F010F808B1012010BD00F079F8002029
:1007B00010BD000018440258E0470008580000240B
:1007C0005400002470B50D4D04462878A0B14FF4B4
:1007D0007A71B1FBF0F00A490968B1FBF0F001F061
:1007E000D4FB48B9102C07D200222146501E00F03D
:1007F00073F800206C6070BD012070BD48000024BB
:1008000054000024154BF0B5083B427813491A6098
:100810000B680A1F23F001030B6043681360057B1C
:10082000C67A827A437B2D07847B45EA0665C77BBF
:1008300090F809C0067A90F800E045EAC24040EA24
:10084000834040EA444040EA074040EA0C2040EA46
:10085000460040EA0E000860F0BD0000A0ED00E098
:10086000BFF35F8F044800210368034A23F48033F9
:10087000036070321160704724ED00E0074A40F0D9
:100880000100064970321060086840F4803008604A
:10089000BFF34F8FBFF36F8F7047000024ED00E070
:1008A000054808B5016841F002010160006800F0E8
:1008B0000200009008BD0000F4440258002809DB43
:1008C000410900F01F028900012001F1E021904060
:1008D000C1F80001704700000E4BF0B41B680D46D4
:1008E000C3F30223C3F10706042E00D90426191D01
:1008F000072901D2002300E0DB1E012404FA06F1DF
:100900009C40491E2940641E994014402143F0BC7C
:1009100003F0B0BA0CED00E0064900F0070210B594
:100920004FF6FF040868044B204040EA02201843B9
:10093000086010BD0CED00E00000FA05134970B529
:100940000A68D243520705D5096801F007018142C0
:1009500013D118E00A6822F0070202430A60FFF789
:10096000F5FE0A4D4FF47A760446083D07E000BFD5
:10097000FFF7ECFE001BB04201D9012070BD2868D2
:10098000C0438004F4D4002070BD00000C4802581D
:1009900010B500F057FF05490968054AC1F3021177
:1009A000515C01F01F01C84010BD000020440258F6
:1009B000E0470008494930B5484C0B1D0A6814341B
:1009C00009681D68246802F00303C5F30012C1F32F
:1009D0000531C4F3CC04002914FB02F200EE102A06
:1009E000F8EE400A75D03F4A9FED3D1AB7EE000A77
:1009F0006BB1DFED3D1A012B01D0022B64D002EE6A
:100A0000101A1168F8EE422A81EEA22A21E0334C36
:100A1000283C23689B0612D5344B246801EE901ABB
:100A20001168C4F3C104F8EE612AE34001EE903A84
:100A3000C1F30801F8EE611A81EEA22A0BE001EE83
:100A4000901ADFED2B2A00BFF8EE611A116882EED2
:100A5000A12AC1F3080101EE901A1168F8EE611A9B
:100A600040EE811A71EE800A62EE200AC1F346213F
:100A700001EE101AB8EE411A31EE001AC0EE811ADA
:100A8000BCEEE11A80ED001A1168C1F3064101EED7
:100A9000101AB8EE411A31EE001AC0EE811ABCEEFF
:100AA000E11A80ED011A1168C1F3066101EE101A16
:100AB000B8EE411A31EE000A80EE801ABCEEC10A8F
:100AC00080ED020A30BD04E001EE901ADFED092A44
:100AD000BAE70021016041608160F3E728440258D1
:100AE00000000039384402580024744A0090D003B2
:100AF0000024744C20BCBE4B494930B5484C0B1DFA
:100B00000A681C3409681D68246802F00303C5F3F1
:100B10000022C1F30551C4F3CC04002914FB02F2F6
:100B200000EE102AF8EE400A75D03F4A9FED3D1ABC
:100B3000B7EE000A6BB1DFED3D1A012B01D0022B9D
:100B400064D002EE101A1168F8EE422A81EEA22A51
:100B500021E0334C283C23689B0612D5344B246893
:100B600001EE901A1168C4F3C104F8EE612AE34063
:100B700001EE903AC1F30801F8EE611A81EEA22A63
:100B80000BE001EE901ADFED2B2A00BFF8EE611AA0
:100B9000116882EEA12AC1F3080101EE901A1168D2
:100BA000F8EE611A40EE811A71EE800A62EE200AB8
:100BB000C1F3462101EE101AB8EE411A31EE001AC7
:100BC000C0EE811ABCEEE11A80ED001A1168C1F383
:100BD000064101EE101AB8EE411A31EE001AC0EECD
:100BE000811ABCEEE11A80ED011A1168C1F30661A9
:100BF00001EE101AB8EE411A31EE000A80EE801AAA
:100C0000BCEEC10A80ED020A30BD04E001EE901A8C
:100C1000DFED092ABAE70021016041608160F3E756
:100C20002844025800000039404402580024744A05
:100C30000090D0030024744C20BCBE4B2DE9FE4F25
:100C40000546DFF8E48350F8081B0024F64FC9433B
:100C5000019005F12800264608F1240800900801BB
:100C60001DD4A86E50B1B0F5801F0CD0B0F5001F98
:100C70000ED0B0F5401F1ED001240FE0386840F4BC
:100C80000030386017E00198022102F065F903E0B6
:100C90000098022102F0F0F904000CD026462888C2
:100CA000C043C00523D4A86D05281ED2DFE800F09C
:100CB0000C11161B1B00AA6ED8F8001021F440116D
:100CC0001143C8F80010EAE7386840F40030386093
:100CD00009E00198002102F03FF903E000980021AB
:100CE00002F0CAF9044674B100E0012426462888BF
:100CF000C043800528D4E86D80281ED00CDC90B15C
:100D000040280ED114E0AA6DD8F8001021F0070198
:100D10001143C8F80010EAE7C02813D0B0F5807F6F
:100D200010D001240FE0386840F40030386009E04A
:100D30000198002102F010F903E00098002102F070
:100D40009BF904469CB126462888DFF8DC92C04314
:100D500009F12C0940052CD4D5F8A800B0F5800F76
:100D600020D00DDCA0B1B0F5001F0FD115E0EA6D69
:100D7000D8F8001021F4E0711143C8F80010E3E73F
:100D8000B0F5C00F13D0B0F5000F10D001240FE064
:100D9000386840F40030386009E00198002102F022
:100DA000DBF803E00098002102F066F904467CB10C
:100DB00026462888C04300052DD4D5F8AC00B0F1F4
:100DC000007F21D00EDCA8B1B0F1807F10D116E0F9
:100DD000D5F8A820D9F8001021F460011143C9F812
:100DE0000010E6E7B0F1407F13D0B0F1806F10D073
:100DF00001240FE0386840F40030386009E00198C1
:100E0000002102F0A9F803E00098002102F034F973
:100E1000044674B126462868C04380011FD4E86C9C
:100E2000D8B110280FD0202812D0302815D0012496
:100E300014E0D5F8AC20D9F8001021F0E06111439E
:100E4000C9F80010E7E7386840F40030386004E083
:100E50000198022102F080F8044674B126462888E1
:100E6000C043C0042BD4286EB0F5005F20D00DDC49
:100E7000A0B1B0F5805F0FD115E06B48EA6C20306F
:100E8000016821F0300111430160E8E7B0F5405FEF
:100E900013D0B0F5804F10D001240FE0386840F433
:100EA0000030386009E00198002102F055F803E0B5
:100EB0000098002102F0E0F804468CB1264628880C
:100EC000C043800429D4686EB0F5403F23D010DCC5
:100ED00008B3B0F5803F14D0B0F5003F0FD115E056
:100EE0002A6ED8F8001021F4E0411143C8F8001030
:100EF000E5E7B0F5802F0ED0B0F5A02F0BD0012480
:100F00000AE00198012102F027F803E0009801218E
:100F100002F0B2F8044694B126462888C043400443
:100F20002AD4D5F8B000B0F1405F23D010DC08B36C
:100F3000B0F1805F14D0B0F1005F0FD115E06A6EA0
:100F4000D8F8001021F4E0211143C8F80010E4E7BC
:100F5000B0F1804F0ED0B0F1A04F0BD001240AE0C9
:100F60000198012101F0F8FF03E00098012102F04F
:100F700083F8044674B126462888C04300041FD471
:100F8000286FD8B1B0F1805F0ED0B0F1005F10D003
:100F9000012414E0D5F8B020D9F8001021F0E04188
:100FA0001143C9F80010E7E7386840F400303860B2
:100FB00004E00198012101F0CFFF044674B12646F8
:100FC0002868C043C0011ED4A86CD0B101280ED03F
:100FD000022811D0032814D0012413E02A6FD8F876
:100FE000001021F040511143C8F80010E8E73868BC
:100FF00040F40030386004E00198022101F0ACFFB9
:101000000446ACB126462868DFF81CB0C043ABF1FB
:101010001C0B400252D40548016841F48071016004
:10102000FFF794FB824611E02C4402580048025816
:10103000FA48AA6C016821F0030111430160E2E75C
:10104000FFF784FBA0EB0A00642835D8F448006859
:10105000C005F5D58CBBDFF8C4A3B5F8B4100AF110
:10106000240ADAF8000001F4407100F4407088426C
:1010700011D0DAF80010DAF8002021F4407142F4BF
:101080008032CAF80020DAF8002022F48032CAF850
:101090000020CAF80010D5F8B400B0F5807F1AD14E
:1010A000FFF754FB029012E0FFF750FB0299411A40
:1010B00041F2883081420AD9032426462878DFF895
:1010C0005CA3C0430AF1080AC00721D03CE0DAF86B
:1010D00000008007E8D5D5F8B410C1F3012003283B
:1010E00058460DD0016821F47C510160B5F8B42058
:1010F000DAF80010C2F30B021143CAF80010DDE762
:10110000C84A036802EA111223F47C511143ECE748
:10111000E86F182816D005DCA0B1082808D01028E0
:1011200004D10AE020280DD028280BD001240AE0A1
:101130000198012101F010FF03E00098012101F066
:101140009BFF044664B126462878C04380071ED41E
:10115000A86F062819D2DFE800F0160C1116161633
:10116000EA6FDAF8001021F038011143CAF80010D4
:10117000EAE70198012101F0EFFE03E00098012168
:1011800001F07AFF04467CB100E00124264628786D
:10119000C04340071FD4D5F89400062819D2DFE8D1
:1011A00000F0160C11161616AA6FDAF8001021F0CE
:1011B00007011143CAF80010E9E70198012101F085
:1011C000CBFE03E00098012101F056FF0446A4B1D4
:1011D00000E0012426462878C04380062BD4D5F8A9
:1011E0009000B0F1405F24D011DC10B3B0F1805F0B
:1011F00015D0B0F1005F10D116E0D5F89420D9F8E1
:10120000001021F007011143C9F80010E3E7B0F125
:10121000804F0ED0B0F1A04F0BD001240AE001980E
:10122000002101F099FE03E00098022101F024FF63
:10123000044694B126462878C04340062BD4D5F8FE
:101240009C00B0F5406F24D011DC10B3B0F5806F76
:1012500015D0B0F5006F10D116E0D5F89020DAF86F
:10126000001021F0E0411143CAF80010E3E7B0F5A7
:10127000805F0ED0B0F5A05F0BD001240AE001988A
:10128000002101F069FE03E00098022101F0F4FE64
:10129000044694B126462878C04300062BD4D5F8DE
:1012A000A000B0F5C04F24D011DC10B3B0F5005F42
:1012B00015D0B0F5804F10D116E0D5F89C20D9F8A4
:1012C000001021F4E0511143C9F80010E3E7B0F534
:1012D000004F0ED0B0F5204F0BD001240AE001984A
:1012E000002101F039FE03E00098022101F0C4FE64
:1012F000044654B126462878C04300071ED4D5F8CA
:101300008400B0F5805F0AD00FE0D5F8A020D9F8AE
:10131000001021F460411143C9F80010EBE7009878
:10132000022101F0A9FE00B10126D5F88420DAF8E7
:10133000001021F440511143CAF800102878C0432E
:10134000C00613D4D5F89800B0F5807F05D1009879
:10135000022101F091FE00B10126D5F89820D9F8BC
:10136000001021F440711143C9F800102868C043EF
:10137000000316D4D5F8A40038B1B0F5803F09D0E9
:10138000B0F5003F0BD001240AE00198002101F0E4
:10139000E3FD03E00098022101F06EFE04468CB1EB
:1013A00026462868C043400322D4D5F88800B0F50B
:1013B000801F11D0B0F5001F13D0B0F5401F15D01D
:1013C000012414E0D5F8A420D9F8001021F440310C
:1013D0001143C9F80010E4E7386840F40030386081
:1013E00004E00098012101F047FE04465CB1264666
:1013F0002868C043C00323D4286DA8B1B0F5803F4E
:1014000017D001241BE0D5F88820DAF8001021F469
:1014100040111143CAF80010EAE700004C4402589A
:1014200000480258CFFFFF00386840F400303860B1
:1014300004E00198022101F08FFD0446E4B1264644
:101440002868C043800005D40098022101F014FEF2
:1014500000B101262868C04380031BD4D5F8800062
:10146000B0B1B0F5807F0FD0B0F5007F10D0B0F5EF
:10147000407F0DD001240CE05A482A6D016821F408
:10148000803111430160DBE7386840F40030386098
:10149000ECB326462868C043C00207D46A6FD8F868
:1014A000001021F000411143C8F800102868C04323
:1014B000C00008D4D5F8B820DBF8001021F4804132
:1014C0001143CBF800102868C043800207D4EA6EAD
:1014D000D8F8001021F080711143C8F80010286876
:1014E000C04340000CD4DBF8001021F40041CBF8DD
:1014F0000010DBF80010D5F8BC201143CBF8001029
:101500002868C04308D437486A6D016800E018E0D5
:1015100021F04051114301602868C043000208D403
:10152000D5F88C20DAF8001021F440011143CAF8F4
:10153000001028790024C04300F0010020430AD0A5
:101540000FE0D5F88020DAF8001021F44071114343
:10155000CAF800109EE70198002101F0FDFC00B1DF
:1015600006462879C04300F00200204305D10198C7
:10157000012101F0F1FC00B106462879C04300F0DA
:101580000400204305D10198022101F0E5FC00B1DF
:1015900006462879C04300F00800204305D1009892
:1015A000002101F069FD00B106462879C04300F032
:1015B0001000204305D10098012101F05DFD00B12C
:1015C00006462879C04300F02000044304D1009867
:1015D000022101F051FD00B916B10120BDE8FE8FD6
:1015E0000020FBE74C4402582DE9F05F04000F4651
:1015F0007ED0DFF83882D8F8000000F00F00B84243
:101600000CD2D8F8001021F00F013943C8F80010AF
:10161000D8F8000000F00F00B84269D12078844D5E
:1016200040070AD52069296801F07001884204D971
:10163000296821F070010143296020787C4E361D15
:1016400000070AD56069316801F07001884204D949
:10165000316821F07001014331602078C0060AD55D
:10166000A069316801F4E061884204D9316821F44D
:10167000E061014331602078DFF8B4B180060BF1FE
:10168000080B0CD5E1695846DBF8002002F0700227
:10169000914204D9026822F070020A430260207865
:1016A00080070AD5E068296801F00F01884204D953
:1016B000296821F00F01014329602078C0073ED03E
:1016C0005B49A2682868183920F4706010432860CC
:1016D0006068022818D0032819D00968012819D099
:1016E000490700294ADADFF848A1AAF1080A00E010
:1016F00044E0DAF8002022F007020243CAF8002092
:10170000FFF724F8814612E009688903E9E70968D0
:101710008901E6E7C905E4E7FFF718F8A0EB09013E
:1017200041F28830814202D90320BDE8F09F616810
:10173000DAF8000000F03800B0EBC10FECD12078EF
:1017400080070AD5E068296801F00F01884204D2B9
:10175000296821F00F0101432960D8F800104046A4
:1017600001F00F01B9420BD9016821F00F01394393
:101770000160006800F00F00B84201D00120D4E7FA
:10178000207840070AD52069296801F07001884255
:1017900004D2296821F070010143296020780007F4
:1017A0000AD56069316801F07001884204D231685D
:1017B00021F07001014331602078C0060AD5A0698C
:1017C000316801F4E061884204D2316821F4E061BB
:1017D00001433160207880060CD5E1695846DBF87A
:1017E000002002F07002914204D2026822F07002DE
:1017F0000A43026000F06CF80E492A682B68C2F3B5
:10180000032203F00F038A5CC95C02F01F0201F09F
:101810001F01D040084A20FA01F111600749086011
:1018200007480068BDE8F05FFEF7CCBF002000521B
:1018300018440258E04700085800002454000024CF
:101840004C00002430B500F043F80B4A0B490C4B18
:1018500015681468C5F3032204F00F048A5C095D5F
:1018600002F01F0201F01F01D040064A20FA01F1E8
:1018700019601060084630BD18440258E04700085F
:10188000580000245400002400B5FFF7DBFF054991
:101890000968054AC1F30211515C01F01F01C840FB
:1018A00000BD00001C440258E047000800B5FFF7E7
:1018B000C9FF05490968054AC1F30221515C01F0DD
:1018C0001F01C84000BD00001C440258E04700084A
:1018D000454970B545480968434B103B11F0380243
:1018E00008D00111082A03D0102A0BD0182A0BD0D7
:1018F000084670BD19688906FBD51968C1F3C10196
:10190000C84070BD3A4870BD3749374D18310C1D7D
:1019100024350A68096826682D6802F0030406F079
:101920000102C1F30511C5F3CC0515FB02F200EE6F
:10193000102AB8EE400AE9B32F4ADFED2E0AB7EEBF
:10194000001A6CB1DFED2D1A012C01D0022C43D00E
:1019500002EE101A1068F8EE422A81EEA22A1EE06A
:101960001C68A40611D51B6801EE901A1168C3F318
:10197000C103F8EE612AD84001EE900AC1F30800D5
:10198000F8EE611A81EEA22A0BE001EE901ADFED6B
:101990001C2A00BFF8EE611A106882EEA12AC0F37B
:1019A000080001EE900AF8EE611A40EE201A31EEBE
:1019B000810A00E015E022EE000A1068C0F346201C
:1019C000401C00EE900AF8EE600A80EE201ABCEE91
:1019D000C10A10EE100A70BD01EE901ADFED092A5F
:1019E000D8E7002070BD0000104402580090D003DA
:1019F00040787D0100000039304402580024744AC8
:101A00000024744C20BCBE4B2DE9F05F04007DD057
:101A1000FF4F2078FE4D1837DFF8F493103DC007D4
:101A200048D0D9F80000396800F03800102815D0E7
:101A3000182803D101F0030002280FD06068B0F528
:101A4000803F12D010B1B0F5A02F18D0286820F434
:101A500080302860286820F4802009E0286880030E
:101A600028D560680028D2D024E0286840F480306F
:101A70002860606888B1FEF769FE064609E02868BC
:101A800040F480202860F0E7FEF760FE801B6428A9
:101A90006FD828688003F7D50CE0FEF757FE06469E
:101AA00005E000BFFEF752FE801B6428F0D82868CE
:101AB0008003F7D4207841F20308D54E0C3E80070E
:101AC00069D5D9F80000396810F038000ED0182810
:101AD00001D188070AD0E06890B3296821F0190184
:101AE00001432960FEF732FE824631E02868400754
:101AF00002D5E06800288AD0E168286820F0190043
:101B000008432860FEF722FE824607E0DFE000BFC0
:101B1000FEF71CFEA0EB0A000228B9D8286840078F
:101B2000F6D500BFFEF70CFE40451BD820694028C3
:101B300012D0316821F47C3141EA003030602AE073
:101B400018E000BFFEF702FEA0EB0A0002289FD8B3
:101B500028684007F6D5E5E7306820F47C3040F48B
:101B60000030EBE7207C316821F0FE4141EA006063
:101B7000E4E70DE1286820F001002860FEF7E6FDAB
:101B8000824605E0FEF7E2FDA0EB0A0002288DD8B0
:101B900028684007F6D42078C0065DD5D9F8000043
:101BA000DFF86CB2396800F03800ABF1040B08289C
:101BB00010D0182803D101F0030001280AD0E069F1
:101BC0000028286838D040F080002860FEF7BEFD6D
:101BD000824623E02868C00523D5E069802876D1B5
:101BE0001FE0206A202821D0316821F0F84141EA25
:101BF0008060306030E000BF94F82010DBF80020F7
:101C000022F07C5242EA0161CBF8001024E000BFD0
:101C1000FEF79CFDA0EB0A00022898D82868C005B2
:101C2000F6D5FEF78DFD4045E6D8DAE7306820F0BE
:101C3000F84040F08040DCE720F080002860FEF7AC
:101C400085FD064605E000BFFEF780FD801B0228EB
:101C50009DD82868C005F7D42078000729D56C489E
:101C60006169643000298046016811D041F00101AA
:101C70000160FEF76BFD064605E000BFFEF766FD5E
:101C8000801B0228C9D8D8F800008007F6D510E0DC
:101C900021F001010160FEF759FD064605E000BF95
:101CA000FEF754FD801B022872D8D8F80000800788
:101CB000F6D42078800623D5A0690028286810D0A3
:101CC00040F480502860FEF741FD064605E036E10D
:101CD000FEF73CFD801B02285AD828688004F7D5FF
:101CE0000EE020F480502860FEF730FD064604E048
:101CF000FEF72CFD801B02284AD828688004F7D400
:101D0000207840074FD5DFF80C81D8F8001041F457
:101D10008071C8F80010FEF719FD064605E000BF07
:101D2000FEF714FD801B642832D8D8F80000C005E7
:101D3000F6D5374EA068603601280AD008B10528CC
:101D400013D0306820F001003060306820F00400CB
:101D500002E0306840F001003060A06841F2883A4B
:101D600090B1FEF7F3FC80460AE0306840F00400D2
:101D70003060EEE7FEF7EAFCA0EB0801514507D81A
:101D800030688007F6D50EE0FEF7E0FC804607E0FD
:101D900084E000BFFEF7DAFCA0EB080151457DD8D6
:101DA00030688007F6D4606AB0B3DFF86480D9F891
:101DB000001008F120084FF6F87B08F10409C1F380
:101DC000C2010329A8F1040A69D00228286820F07A
:101DD0008070286003D0FEF7B9FC044684E0FEF76B
:101DE000B5FC064605E000BFFEF7B0FC801B0228EC
:101DF00077D828688001F7D4E26A40F2F331386876
:101E000054F8283F884340EA02101843386004E041
:101E10001044025800480258B5E0217B434622890D
:101E20004FF4FE0C208A4FF0FE474902267D521ED9
:101E3000401EA1F50071C2F308088AB2761E0CEAB2
:101E4000004042EA08020243504607EA06610A439C
:101E50001A60DAF8002022F00102CAF80020D9F84E
:101E60000020266A22EA0B0242EAC602C9F80020D4
:101E7000DAF80010A26921F00C011143CAF8001031
:101E80000168E26921F0020111430160016841F437
:101E900080310160016841F4003101E021E027E078
:101EA0000160016841F480210160016841F0010195
:101EB0000160286840F080702860FEF747FC044607
:101EC00005E000BFFEF742FC001B022809D8286885
:101ED0008001F7D557E000BFFEF738FC001B022851
:101EE00002D90320BDE8F09F28688001F4D44AE0BD
:101EF00039680128D8F8000021D0A26A01F0030354
:101F000093421CD1E26AC1F305118A4217D1216BB9
:101F1000C0F30802491E8A4211D1616BC0F3462208
:101F2000491E91420BD1A16BC0F30642491E91425A
:101F300005D1E16BC0F30660491E814201D001204A
:101F4000D0E7A16C4E46D9F80000C0F3CC00814226
:101F500019D0DAF80000554620F00100CAF8000058
:101F6000FEF7F4FB4FEA0007FEF7F0FBB842FBD0A8
:101F7000A26C306820EA0B0040EAC200306028689A
:101F800040F0010028600020ACE7401EB0F1807FE7
:101F900010B501D3012010BD4FF0E02460610F2186
:101FA000601701F067FF0020A0610721216110BDCB
:101FB0002DE9F04390F83C20012A42D0012280F81C
:101FC0003C2051F80C4BDFF880804FF0000991E87D
:101FD000680051E9022723F44073B1F80CC03B4379
:101FE000CF6923F480631343026823F4006323431F
:101FF00023F4805343EA050323F4005343EA060322
:1020000023F4804343EA07030C3923F47023424549
:1020100043EA0C4302D00D4CA2420CD18D8C23F428
:102020007006D1E9073446EA055121F08071194361
:1020300021F000732343536480F83C900020BDE8F6
:10204000F0830220FBE70000000001400004014093
:10205000F0B590F83C20012A3BD01F4E012480F8B7
:102060003C40022280F83D2002681C4D5368B24279
:10207000D2F808C001D0AA4203D14F6823F47003FC
:102080003B430F6823F070031F4357600268B2425E
:1020900013D0B2F1804F10D0114B9A420DD0114B9A
:1020A0009A420AD0104B9A4207D0AA4205D00F4B51
:1020B0009A4202D00E4B9A4204D189682CF08003D8
:1020C00019439160002180F83D4080F83C1008469B
:1020D000F0BD0220F0BD00000000014000040140FE
:1020E0000004004000080040000C004000180040C0
:1020F0000040014010B5040003D094F83D0010B139
:1021000007E0012010BD002084F83C00204600F0CC
:1021100023F8022084F83D002068211D01F02CF9ED
:10212000012084F8480084F83E0084F83F0084F8D9
:10213000400084F8410084F8420084F8430084F8A9
:10214000440084F8450084F8460084F8470084F889
:102150003D00002010BD000008B501681348814211
:1021600001D113480FE01348B1F1804F0BD0124A50
:10217000914210D1016841F002010160006800F055
:102180000200009008BD016841F001010160006893
:1021900000F00100F5E7094A9142F3D1016841F0EE
:1021A00004010160006800F00400EAE7000001405B
:1021B000F0440258E844025800040040000800407F
:1021C00070B5044690F83C000025012814D03A4B25
:1021D000012684F83C60022084F83D002268906863
:1021E000184020F47F409060086870282FD010DCE1
:1021F00010F00F0F03D022E04FF0020070BD4FEA45
:102200002012072A1BD2DFE802F0535353534B39F5
:102210004100B0F1101F4BD009DCB0F5805F0FD04A
:10222000B0F5005F1ED0B0F5801F08D140E0A0F5EA
:10223000801120393CD010293AD0202938D00125EE
:1022400084F83D60002084F83C00284670BD4A6850
:102250002068D1E9021301F004F92068816841F097
:10226000770109E04A682068D1E9021301F0F9F822
:102270002068816841F480418160E1E7CA6849686B
:10228000206801F09BFA2068502106E0CA6849687E
:10229000206801F0A4FA2068602101F0EBF8CFE794
:1022A000CA684968206801F089FA20684021F4E78B
:1022B000226801461046F0E788FFCEFFF0B587B0F0
:1022C000054614216846FEF73BF82A6800243C487E
:1022D00002253A49012682420FD1086840F01000D9
:1022E00008600868694600F0100005904FF420600F
:1022F00000903448CDE9015445E03348B2F1804FB5
:10230000324F21D0324B9A4244D10A6842F0010246
:102310000A600A6802F0010205920A6842F00202AD
:102320000A60096801F002010591C0210091CDE920
:102330000154CDE903456946FEF7E2F80096694687
:10234000CDE90154384636E00A6842F001020A60DD
:102350000A6802F0010205920A6842F002020A606D
:10236000096801F00201059124210091CDE9015491
:10237000CDE903466946FEF7C3F808200090CDE991
:10238000015469463846CDE9034600BFFEF7B8F868
:1023900007B0F0BD0F488242FAD1086840F008004B
:1023A00008600868694600F00800059090140090E5
:1023B0000948CDE90154CDE90345E7E7E044025877
:1023C00000000140001002580000025800040258AA
:1023D0000004004000080040000C025870B504469C
:1023E00090F83C0000260D4601280BD0012084F80F
:1023F0003C000C2A4AD007DC82B1042A20D0082AEB
:1024000006D131E0022070BD102A53D0142A63D0C7
:102410000126002084F83C00304670BD206801F0A1
:1024200033F82068816941F0080181612068816981
:1024300021F00401816120682A698169114311E05A
:10244000206801F073F82068816941F400618161BE
:102450002068816921F4806181612068296982692D
:1024600042EA01218161D4E7206801F0ABF82068DD
:10247000C16941F00801C1612068C16921F004010E
:10248000C16120682A69C169114311E0206801F027
:10249000E5F82068C16941F40061C1612068C16943
:1024A00021F48061C16120682969C26942EA012181
:1024B000C161AEE7206801F00DF92068416D41F07F
:1024C000080141652068416D21F0040141652068E3
:1024D0002A69416D114311E0206801F035F9206847
:1024E000416D41F4006141652068416D21F48061D6
:1024F000416520682969426D42EA0121416588E70A
:1025000010B5040003D094F83D0010B107E001209D
:1025100010BD002084F83C00204600F022F8022084
:1025200084F83D002068211D00F026FF012084F87A
:10253000480084F83E0084F83F0084F8400084F8A6
:10254000410084F8420084F8430084F8440084F891
:10255000450084F8460084F8470084F83D000020D8
:1025600010BD704730B504464FF0020269B104292E
:1025700012D0082917D00C291CD0102921D094F88A
:102580004300012824D0012030BD94F83E000128EA
:10259000F9D184F83E201DE094F83F000128F2D1E3
:1025A00084F83F2016E094F840000128EBD184F82D
:1025B00040200FE094F841000128E4D184F8412044
:1025C00008E094F842000128DDD184F8422001E0BF
:1025D00084F843200122206800F036FF1B4B20685E
:1025E0001B491C4A984209D0884207D0904205D026
:1025F000194DA84202D0194DA84203D1456C45F4AB
:10260000004545642068984212D0B0F1804F0FD049
:10261000134B98420CD0134B984209D0124B98425E
:1026200006D0884204D01149884201D0904207D197
:1026300081680F4A1140062906D0B1F5803F03D0CA
:10264000016841F001010160002030BD000001403F
:1026500000040140004001400044014000480140A6
:102660000004004000080040000C0040001800403A
:102670000700010030B590F88410012918D001221C
:1026800080F884202421C0F88810002220240168CA
:102690000B680D6823F0005325F001050D604266BC
:1026A00001680B60C0F8884080F88420104630BD77
:1026B000022030BD70B5044690F8840001281DD07A
:1026C000012284F884202420C4F88800206805684A
:1026D000026822F0010202602068826822F06062D3
:1026E0000A438260204601F08DF8226820210020F4
:1026F0001560C4F8881084F8840070BD022070BD95
:1027000070B5044690F8840001281DD0012284F899
:1027100084202420C4F8880020680568026822F01C
:10272000010202602068826822F060420A438260EF
:10273000204601F067F82268202100201560C4F8C7
:10274000881084F8840070BD022070BD10B50400AC
:1027500003D0D4F8880010B107E0012010BD00209C
:1027600084F88400204600F027F82420C4F888006C
:102770002068016821F001010160A06A10B12046C3
:1027800001F062F8204601F043F90128E6D0206804
:10279000416821F4904141602068816821F02A015C
:1027A00081602068016841F0010101602046BDE8B8
:1027B000104001F0ADB800002DE9F047B6B0044676
:1027C000142130A8FDF7BCFDC0216846FDF7B8FD17
:1027D000574E022757494FF003082068083E544DD2
:1027E000002488424FF0080923D100211E940220C2
:1027F000CDE900016846FEF721FA08B1FDF75EFE5B
:10280000286840F400202860286800F400203590F3
:10281000306840F001003060306830A9CDF8C080E9
:1028200000F00100CDE931743394CDE93490424891
:1028300027E04249884229D100201E940221CDE997
:1028400000106846FEF7FAF908B1FDF737FE286870
:1028500040F480102860286800F4801035903068BB
:1028600040F00200306030680E2100F00200359028
:102870004FF440503090CDE93174CDE933413048C8
:1028800030A9FDF73DFE36B0BDE8F0872D49DFF8F1
:10289000B8A0884224D100211E940220CDE9000175
:1028A0006846FEF7CBF908B1FDF708FE286840F04E
:1028B00080402860286800F080403590306840F003
:1028C000100030603068072100F0100035904FF4A0
:1028D000C0703090CDE93174CDE9334130A924E0A6
:1028E0001A498842CFD100201E940221CDE9001060
:1028F0006846FEF7A3F908B1FDF7E0FD286840F04F
:1029000000402860286800F000403590306840F0B2
:1029100010003060306830A9CDF8C08000F01000A1
:10292000CDE931743394CDE934905046A9E70000E5
:10293000E8440258004C004000000258005000409B
:10294000000402580078004000100258007C00404B
:102950002DE9F8430446D0F88800984616460D46FF
:10296000202802D00220BDE8F883A5B19EB1002145
:10297000C4F890102120C4F888001834FDF7E6FE52
:10298000814654F8100CA687E6872027183CB0F53E
:10299000805F02D003E00120E5E7206910B12E46F8
:1029A000002510E000260EE08021204601F006FA06
:1029B000C0B9DEB116F8010B21688862B4F8560080
:1029C000401EA4F85600B4F856004B464FF00002E3
:1029D000CDF800800028E7D14FF04001204601F0FB
:1029E000EDF948B1C4F888700320BCE735F8020B54
:1029F0002168C0F30800E0E7C4F888700020B2E75F
:102A0000FEE70000F0B587B014216846FDF798FC9A
:102A10002A48016841F080010160016801F08001ED
:102A20000591016841F001010160016801F00101B7
:102A30000591016841F002010160016801F00201A5
:102A40000591016841F010010160016801F0100179
:102A50000591016841F00801016000684FF40056DB
:102A6000174F002200F00800314605903846FDF768
:102A700062FE012569460024A8028DE8310038462F
:102A8000FDF73EFDE8024FF404118DE8230069468E
:102A90003846FDF735FD00966946CDE901543846C4
:102AA0000394FDF72DFD002228201146FDF714FFA9
:102AB0002820FDF703FF07B0F0BD0000E0440258F6
:102AC000000C025810B59AB000241C21009412A8E2
:102AD000019402940394049405940694FDF730FC49
:102AE0002C2107A8FDF72CFC304847222E4944F63C
:102AF0001F6380E81600C0E9033444618461FFF776
:102B0000F9FA08B172B6FEE74FF4805000902748FA
:102B10006946FFF755FB08B172B6FEE72348FFF799
:102B2000EFFC08B172B6FEE7204804A904940594AE
:102B30000694FFF78DFA08B172B6FEE76020149490
:102B4000CDE912041948002212A91594169417947D
:102B50001894FFF743FC08B172B6FEE74FF4167005
:102B600013901248042212A9FFF738FC08B172B67C
:102B7000FEE74FF4005007940894099401030A9467
:102B8000CDE90B40CDE90E41084807A90D941094FA
:102B90001194FFF70DFA08B172B6FEE70348FFF78C
:102BA0008DFB1AB010BD0000000001406000002441
:102BB00010B58EB000241C21009407A80194029443
:102BC0000394049405940694FDF7BAFB254844F653
:102BD0001F6147224FF08043C0E9024104618461D4
:102BE000C0E90032FFF786FA08B172B6FEE74FF48B
:102BF000805000901B486946FFF7E2FA08B172B6B0
:102C0000FEE71848FFF77CFC08B172B6FEE71548EE
:102C100004A904940694FFF71BFA08B172B6FEE704
:102C20006020CDE907040F48002207A909940B94FE
:102C3000FFF7D4FB08B172B6FEE70A48042207A9E1
:102C4000FFF7CCFB08B172B6FEE70648082207A9D9
:102C5000FFF7C4FB08B172B6FEE70248FFF72EFB90
:102C60000EB010BDAC00002410B58EB000241C21A5
:102C7000009407A801940294039404940594069484
:102C8000FDF75EFB264844F61F614722234BC0E94F
:102C9000024104618461C0E90032FFF72BFA08B1F8
:102CA00072B6FEE74FF4805000901D486946FFF76A
:102CB00087FA08B172B6FEE71948FFF721FC08B1A0
:102CC00072B6FEE7164804A904940694FFF7C0F90B
:102CD00008B172B6FEE76020CDE907041048002273
:102CE00007A909940B94FFF779FB08B172B6FEE7C8
:102CF0000B48042207A9FFF771FB08B172B6FEE783
:102D00000748082207A9FFF769FB08B172B6FEE77A
:102D10000348FFF7D3FA0EB010BD000000040040D6
:102D2000F800002410B58EB000241C21009407A8E0
:102D3000019402940394049405940694FDF700FB17
:102D40001E4840F2572117221B4BC0E90241046183
:102D50008461C0E90032FFF7CDF908B172B6FEE731
:102D60004FF48050009015486946FFF729FA08B1E2
:102D700072B6FEE71148FFF7C3FB08B172B6FEE773
:102D80000E4804A904940694FFF762F908B172B6DC
:102D9000FEE76020CDE907040848002207A909944E
:102DA0000B94FFF71BFB08B172B6FEE70348FFF771
:102DB00085FA0EB010BD0000000800404401002458
:102DC0001748002110B5154C0C224FF4E133046074
:102DD000C0E90131C160C0E904128161C1610162D1
:102DE00041628162FFF7B2FC08B172B6FEE70C489F
:102DF0000021FFF785FC08B172B6FEE70848002104
:102E0000FFF758FC08B172B6FEE70548FFF732FC41
:102E1000002801D072B6FEE710BD0000004C004053
:102E2000900100241748002110B5154C0C224FF4D6
:102E3000E1330460C0E90131C160C0E9041281617D
:102E4000C161016241628162FFF780FC08B172B624
:102E5000FEE70C480021FFF753FC08B172B6FEE70D
:102E600008480021FFF726FC08B172B6FEE70548C6
:102E7000FFF700FC002801D072B6FEE710BD00008D
:102E800000500040240200241748002110B5154CC2
:102E90000C224FF4E1330460C0E90131C160C0E9A4
:102EA00004128161C161016241628162FFF74EFCDF
:102EB00008B172B6FEE70C480021FFF721FC08B10B
:102EC00072B6FEE708480021FFF7F4FB08B172B6BE
:102ED000FEE70548FFF7CEFB002801D072B6FEE7FB
:102EE00010BD000000780040B802002417480021FF
:102EF00010B5154C0C224FF4E1330460C0E90131E8
:102F0000C160C0E904128161C161016241628162F4
:102F1000FFF71CFC08B172B6FEE70C480021FFF772
:102F2000EFFB08B172B6FEE708480021FFF7C2FBCD
:102F300008B172B6FEE70548FFF79CFB002801D0F8
:102F400072B6FEE710BD0000007C00404C03002478
:102F5000FEE7FEE7704700002DE9F047454D0446C7
:102F600089464FF0000A2868C04380070AD0414EC6
:102F7000283E306820F080603060FDF7E7FB0746B0
:102F8000B04608E00120BDE8F08700BFFDF7DEFB9A
:102F9000C01B022867D8D8F800000001F6D42068CA
:102FA00029684FF4FE0721F47C313E0241EA0030EB
:102FB0002860207AA389B4F804C040022D4D2D4921
:102FC0005B1E227CACF1010C1035091DA0F50070D0
:102FD00080B2521ECCF3080C07EA034340EA0C000F
:102FE000184306EA0262104328600868626920F00C
:102FF000C000104308600A68A06922F02002024362
:103000000A60281D0A6822F010020A6002684FF662
:10301000F873E4699A4342EAC40202600868B9F1AD
:10302000000F40F010020A6011D00868B9F1010FDA
:1030300011D040F400100860D8F80000444640F079
:103040008060C8F80000FDF781FB05460DE00868C8
:1030500040F40020EFE740F48010ECE7FDF776FB4A
:10306000401B022801D903208DE720680001F5D517
:10307000504688E7284402582DE9F047454D04465C
:1030800089464FF0000A2868C04380070AD0414EA5
:10309000283E306820F080503060FDF757FB07462F
:1030A000B04608E00120BDE8F08700BFFDF74EFB09
:1030B000C01B022867D8D8F800008000F6D420880A
:1030C00029684FF4FE0721F07C713E0241EA00506E
:1030D0002860207AA389B4F804C040022D4D2D4900
:1030E0005B1E227CACF1010C1835091DA0F50070A7
:1030F00080B2521ECCF3080C07EA034340EA0C00EE
:10310000184306EA0262104328600868626920F4E6
:103110004060104308600A68A06922F4007202430C
:103120000A60281D0A6822F480720A6002684FF65D
:10313000F873E4699A4342EAC40202600868B9F18C
:10314000000F40F480720A6011D00868B9F1010FD5
:1031500011D040F080700860D8F80000444640F07C
:103160008050C8F80000FDF7F1FA05460DE0086848
:1031700040F48000EFE740F40000ECE7FDF7E6FAEA
:10318000401B022801D903208DE720688000F5D577
:10319000504688E728440258704700000A489FEDCF
:1031A000080B9FED0A1B9FED0B2B9FED0C3B9FED3A
:1031B0000D5BB7EE004B80EC0C0BFDF715B9000072
:1031C00000000000008066401000002400000000A5
:1031D00000005E400000000000404E400000000083
:1031E00000004E400000000000000000FDF7B4BAEF
:1031F00030B59DB04C216846FDF7A2F8202113A8F8
:10320000FDF79EF80220FDF799FB22490A68224843
:1032100022F001020A600968016821F4404141F48A
:10322000804101600168002401F440411B91016864
:103230008904FCD5022000904025049501210391CA
:1032400004220B921223CDE90904CDE90C300FAB17
:103250000E900C2183E8130068461294FEF7D4FB0D
:1032600008B172B6FEE70DF14C0C4FF400623F203E
:1032700003218CE8370053101A95012113A8CDE9DA
:103280001853FEF7B1F9002801D072B6FEE71DB061
:1032900030BD00002C040058184802582C48F0B5E6
:1032A0002C4A016841F470010160106800F00F00C1
:1032B000072804D2106820F00F00C01D10602649B6
:1032C0000020254C10340B68244D43F001030B60A3
:1032D00020600B682B400B60136803F00F03072B73
:1032E00004D9136823F00F03DB1D13601A4C1C4A2A
:1032F00018341C4B261D371D2060174C1A4D2834DE
:103300003060261D3860371D23603B1D35601C1D55
:103310003A60251D2E1D1860331D22602860326022
:1033200018600A680C4B114C22F4802260330A604A
:10333000186020686FF30F00B0F1005F03D20C49F2
:103340000120C1F8080143F2D2000A490860F0BD2B
:1033500088ED00E000200052004402587FEDF6EABC
:1033600080020101000202020000FF010010005C67
:1033700000800051004000522DE9F0472A4B4FF0E9
:10338000804A2A4D02689842294E2A4F2A4C09D079
:10339000504507D0A84205D0B04203D0B84201D072
:1033A000A04205D1D1F804C022F070024CEA02021A
:1033B000DFF888C0DFF888809842DFF888900FD067
:1033C00050450DD0A8420BD0B04209D0B84207D02A
:1033D000A04205D0604503D0404501D0484503D107
:1033E000CD6822F440722A434D6922F080022A43BC
:1033F000026098428A68C2620A68826207D0A0426C
:1034000005D0604503D0404501D0484501D1096948
:103410000163012141610169C90703D0016921F0FC
:1034200001010161BDE8F087000001400004004097
:1034300000080040000C0040000401400040014032
:10344000004401400048014010B5046A012301F026
:103450001F018B409C4304628A40016A1143016250
:1034600010BD42EA032283680A4323F47F410A43E2
:1034700082607047034B82681A400A4342F007019A
:10348000816070478FFFCFFF2DE9F04FDFF8848018
:10349000214EDFF88890DFF888B0026A036AB042F4
:1034A000DFF880A022F0020C1F4F23F0010202621D
:1034B000426885698B680C6805EA080525F00305F4
:1034C00043EA0C0344EA050407D0484505D05845B3
:1034D00003D0504501D0B84205D1CD6823F0080390
:1034E0001D4325F00403B04207D0484505D0584598
:1034F00003D0504501D0B84205D122F44076D1E93D
:10350000055235432A43426084614968416303623E
:10351000BDE8F08F8FFFFEFF000001400004014076
:10352000004001400044014000480140F0B5DFF890
:103530007CE01F4C1F4D026A036AA04222F0200665
:1035400023F01003036242688369D1F808C00F6852
:1035500003EA0E0323F4407E46EA0C134EEA0726E4
:1035600001D0A84206D1CF6823F0800343EA0713B5
:1035700023F04003A0420AD0A84208D00E4CA0423B
:1035800005D00E4CA04202D00D4CA04207D1D1E98B
:10359000054522F4406242EA840242EA8502426022
:1035A0008661496881630362F0BD0000FF8FFFFE02
:1035B000000001400004014000400140004401407F
:1035C00000480140F0B5DFF87CE01F4D1F4E026A55
:1035D000036AA84222F4007723F4807303624368ED
:1035E000C269D1F808C002EA0E020C6822F0030E8C
:1035F00047EA0C2244EA0E0401D0B04206D1CF685B
:1036000022F4006242EA072222F48062A8420AD031
:10361000B04208D00E4DA84205D00E4DA84202D0AF
:103620000D4DA84207D1D1E9055623F4405343EA92
:10363000051343EA06134360C4614968C16302622B
:10364000F0BD00008FFFFEFF0000014000040140BC
:10365000004001400044014000480140F0B5046AC8
:10366000026A22F4805202624268C36924F4005460
:10367000DFF848C08E680D6803EA0C03104F23F48E
:10368000407344EA0634B84243EA05230BD00D4D9B
:10369000A84208D00C4DA84205D00C4DA84202D03B
:1036A0000B4DA84204D14D6922F4804242EA8512B2
:1036B0004260C361496801640462F0BDFF8FFFFE90
:1036C000000001400004014000400140004401406E
:1036D00000480140F0B5164F164B026A046A984242
:1036E00022F4003524F4803303624268436D0E896E
:1036F0000C6803EA070344EA030445EA06430BD0D7
:103700000D4DA84208D00D4DA84205D00C4DA84241
:1037100002D00C4DA84204D14D6922F4803242EA15
:10372000052242604465496881650362F0BD00007E
:103730008FFFFEFF000001400004014000400140F7
:103740000044014000480140F0B5164F164B026A94
:10375000046A984224F48013036222F4001442683D
:10376000436D0E890D6803EA070344EA065443EAF1
:1037700005230BD00D4DA84208D00D4DA84205D011
:103780000C4DA84202D00C4DA84204D14D6922F440
:10379000802242EA8522426043654968C16504622D
:1037A000F0BD0000FF8FFFFE00000140000401405B
:1037B00000400140004401400048014010B5036A48
:1037C000046A23F00A0324F00104046284690B43B1
:1037D00024F0F00141EA02118161036210BD10B5CD
:1037E000036A046A23F0A00324F0100404628469CD
:1037F00043EA011124F4704343EA02328261016218
:1038000010BD000030B5416EB9B101680D4B03F138
:1038100008048A688968C2F34262490F5D5C615C92
:103820002D01B5FBF1F1A0F86A10995CA25C0901C9
:10383000B1FBF2F1A0F8681030BD0121A0F86A10C8
:10384000F8E70000D047000890F82810090706D5CF
:103850000168836B4A6822F400421A434A6090F878
:103860002810C90706D00168C36A4A6822F40032EA
:103870001A434A6090F82810890706D50168036B3F
:103880004A6822F480321A434A6090F828104907A7
:1038900006D50168436B4A6822F480221A434A60C5
:1038A00090F82810C90606D50168C36B8A6822F40F
:1038B00080521A438A6090F82810890606D501685C
:1038C000036C8A6822F400521A438A6090F8281028
:1038D000490611D50168436C4A6822F480121A43E4
:1038E0004A60416CB1F5801F06D10168836C4A685B
:1038F00022F4C0021A434A6090F82810090606D53F
:103900000168C26C486820F400201043486070478A
:103910002DE9F84300250446C0F89050FCF716FF47
:103920008046206820266FF07E470068000713D588
:103930000022434631042046009700F03FFA58B178
:10394000216851E8000F20F0800041E80002002AC1
:10395000F6D1C4F8886021E020680068400722D5CD
:10396000002243464FF480012046009700F026FADB
:10397000C8B1206850E8001F21F4907140E800129F
:10398000002AF6D12068083050E8001F21F001011C
:1039900040E80012002AF5D1C4F88C60032084F8B6
:1039A0008450BDE8F883C4F88860C4F88C60E5668C
:1039B0002567002084F88450F3E7000010B5026802
:1039C00052E8001F21F4907142E80013002BF6D159
:1039D0000E4B0268083252E8001F194042E80014FA
:1039E000002CF6D1C16E012908D1026852E8001FEF
:1039F00021F0100142E80013002BF6D10021202213
:103A0000C0F88C20C166416710BD0000FEFFFFEFCB
:103A10002DE9F04304468068D84E87B0D84B216822
:103A2000D4E90427D4F81CC010430A68002547EAEB
:103A30000C073843324002430A602068E26841685C
:103A400021F44051114341602268A1699A4201D09A
:103A5000206A01439768DFF82CC3CB4ECB4807EAB6
:103A60000C070F4397602168676ACA6A22F00F0249
:103A70003A43CA622268B2420ED1006800F03800B0
:103A8000182873D047DCB8B3082879D010286FD134
:103A900078E028287ED17BE0BD498A4209D10068C0
:103AA00000F00700062875D2DFE800F0546A6C6E5B
:103AB0007072B8498A4209D1006800F007000628F0
:103AC00068D2DFE800F0475D5F616365B2498A4212
:103AD00009D1006800F0070006285BD2DFE800F09B
:103AE0003A5052545658AD498A420BD1006800F002
:103AF000070006284ED200E010E0DFE800F02B417E
:103B000043454749A6498A420AD1006800F0380077
:103B1000182839D0B7DD2028BBD13CE001203AE09D
:103B2000A0498A4209D1006800F00700062831D276
:103B3000DFE800F01026282A2C2E9B498A420BD160
:103B4000006800F00700062824D2DFE800F003191F
:103B50001B1D1F2100201EE09A421BD18B48001D17
:103B6000006800F00700062814D202E00CE007E02D
:103B700010E0DFE800F0030507090B0D02200AE062
:103B8000042008E0082006E0102004E0202002E0E5
:103B9000402000E080208549DFF814829A42854A5F
:103BA0004FF400434FEA21174FF000064ED1102882
:103BB0001AD006DC022809D004280BD008287CD1B2
:103BC0000DE020283ED0402877D13DE0FCF7E0FE14
:103BD000014610E06846FCF7EDFE01990BE003A8F2
:103BE000FCF78AFF049906E01068800605D5106886
:103BF000C0F3C100C140002970D0606A676838F81E
:103C0000102007EB4703B1FBF2F0834255D8B0EB2D
:103C1000073F52D8002308461946FCF759FB0246D5
:103C20007808130E120243EA012110183A46714136
:103C30000023FCF74DFB604AA0F5407191423CD84F
:103C400021688FE03946D8E71946D6E7D4F81CC07A
:103C50004FF6EF799C4546D1082819D005DC58B1BC
:103C600001280CD0042875D10DE0102815D020288B
:103C700035D040286ED134E0FDF706FE01E0FDF7B7
:103C800015FE014610E06846FCF794FE01990BE032
:103C900003A8FCF731FF049906E01068800604D5FC
:103CA0001068C0F3C100C140C1B1636A606838F8F0
:103CB0001330B1FBF3F1490000E04BE001EB5001A0
:103CC000B1FBF0F0A0F11001494543D84FF6F07375
:103CD0002168C0F342021840104343E043E03946F4
:103CE000E3E71946E1E7082819D005DC58B10128B7
:103CF0000CD004282ED10DE0102815D020282BD070
:103D0000402827D12AE0FDF7BFFD01E0FDF7CEFDF9
:103D1000014610E06846FCF74DFE01990BE003A850
:103D2000FCF7EAFE049906E01068800604D51068E6
:103D3000C0F3C100C140B1B1636A606838F81330A4
:103D4000B1FBF3F101EB5001B1FBF0F0A0F1100178
:103D5000494505D9012506E03946EDE71946EBE767
:103D6000216880B2C8600120A4F86A00A4F8680045
:103D700028466667A66707B0BDE8F083F369FFCF02
:103D8000000C0058FFF4FF11001001405444025889
:103D90000044004000480040004C004000500040FB
:103DA0000014014000780040007C00400090D003E7
:103DB000B847000800440258FFFC0F002DE9F04707
:103DC000994617460D460446089E4FF0000833E01A
:103DD000701C31D0FCF7BAFCA0EB0900B04218D837
:103DE000BEB120680168490726D5802D24D0402D1A
:103DF00022D0C169C94309070DD4082505622046B0
:103E0000FFF7DCFDC4F89050012084F88480BDE801
:103E1000F0870320FBE7C069C04300050CD421688C
:103E20004FF4006008622046FFF7C8FD2021C4F867
:103E3000901084F88480ECE72068C06935EA0000BF
:103E400004D00020B842C3D00020E0E70120F9E709
:103E5000FEE700000FB4054B10B503A9044A029811
:103E600000F028F810BC5DF814FB000015420008B3
:103E70005C000024090700284FEA116104DB00F10F
:103E8000E02080F80014704700F00F0000F1E020FF
:103E900080F8141D704702E008C8121F08C1002AEC
:103EA000FAD170477047002001E001C1121F002ABB
:103EB000FBD170472DE9FF4F89B09B460446002592
:103EC00006E025280BD05A460B999047641C6D1CC0
:103ED00020780028F5D10DB02846BDE8F08F0027E6
:103EE000B8460122474900E0074314F8013F203B50
:103EF00002FA03F00842F7D120782E2819D114F8DD
:103F0000010F47F004072A280ED06FF02F02207807
:103F1000A0F1300109290CD808EB880102EB41011E
:103F200000EB0108641CF2E70A98641C50F8048B4B
:103F30000A9020780028CED0642808D0692806D0BE
:103F400075281ED05A460B9990476D1C58E00A9967
:103F50004FF00A0901C90A91002802DA40422D21D6
:103F600002E0390504D52B218DF82010012103E052
:103F7000F90704D02021F7E78A4608AE0DE00021BA
:103F8000FAE70A994FF00A0901C90A91F7E7494689
:103F9000FCF7E1F9303106F8011D0028F7D1ADEB4F
:103FA000060000F12009780701D44FF00108C84548
:103FB00002DDA8EB090000E000208046002706E0B3
:103FC00008A85A46C05D0B9990476D1C7F1C574549
:103FD000F6DB04E030205A460B9990476D1CB8F18F
:103FE0000001A8F10108F5DC05E016F8010B5A46BE
:103FF0000B9990476D1CB9F10001A9F10109F4DC9E
:10400000641C65E709280100024801684FF49670B6
:104010004863704744010024024801680020486357
:1040200070470000440100249FED0F1BB4EEC10B4C
:10403000F1EE10FA02DDB0EE410B06E0B5EEC00B7A
:10404000F1EE10FA01D29FED0A0B4FF4FA630A4920
:10405000B422BDEEC00B10EE100A584390FBF2F0F4
:1040600000F5FA70086070470000000000806640AC
:104070000000000000000000380400409FED0F1B0E
:10408000B4EEC10BF1EE10FA02DDB0EE410B06E02A
:10409000B5EEC00BF1EE10FA01D29FED0A0B4FF412
:1040A000FA630A49B422BDEEC00B10EE100A584361
:1040B00090FBF2F000F5FA70086070470000000015
:1040C0000080664000000000000000003404004052
:1040D0009FED0F1BB4EEC10BF1EE10FA02DDB0EE56
:1040E000410B06E0B5EEC00BF1EE10FA01D29FEDE8
:1040F0000A0BB4224FF4FA63BDEEC00B110710EEA9
:10410000100A584390FBF2F000F5FA7048637047CC
:104110000000000000806640000000000000000079
:104120009FED0F1BB4EEC10BF1EE10FA02DDB0EE05
:10413000410B06E0B5EEC00BF1EE10FA01D29FED97
:104140000A0B4FF4FA630A49B422BDEEC00B10EE1D
:10415000100A584390FBF2F000F5FA7008607047BF
:104160000000000000806640000000000000000029
:104170003C0400409FED0F1BB4EEC10BF1EE10FAB2
:1041800002DDB0EE410B06E0B5EEC00BF1EE10FA29
:1041900001D29FED0A0BB4224FF4FA63BDEEC00BBF
:1041A000110710EE100A584390FBF2F000F5FA7078
:1041B000C8637047000000000080664000000000F7
:1041C000000000009FED0F1BB4EEC10BF1EE10FAE2
:1041D00002DDB0EE410B06E0B5EEC00BF1EE10FAD9
:1041E00001D29FED0A0BB4224FF4FA63BDEEC00B6F
:1041F000110710EE100A584390FBF2F000F5FA7028
:1042000088637047000000000080664000000000E6
:104210000000000013B5044801224FF0FF33694647
:10422000FEF796FB00981CBD4C03002470B529488E
:104230004FF48061FCF77AFA274C284EA06078B9D9
:10424000FCF784FA2168081A642809D93068401CF0
:104250003060FCF77BFA206021A03168FFF7FAFD9F
:1042600030684FF47A75012817D0022824D003282B
:104270002ED1606803282BD11AA0FFF7EBFDFFF7C2
:10428000CBFE00F091F8FFF7BFFE6068401C606055
:104290002846BDE87040FCF713B96068012817D1C3
:1042A00013A0FFF7D7FDFFF7B7FE00F039F96068FC
:1042B000401C606011A008E06068022808D1FFF788
:1042C000A3FE6068401C606011A0FFF7C3FDDFE73C
:1042D00070BD0000000C02580000002440000024C3
:1042E000256400007061636B207374617274000058
:1042F00062656C742073746F70000000726D5F777C
:104300006F726B2073756363657373210000000027
:1043100062656C745F737461727420616761696E49
:10432000000000001FB5002400940194029403943F
:10433000FCF796FA01208DF80C001F218DF808106B
:1043400087228DF809208DF80D008DF80000684651
:104350008DF80A408DF80E408DF8014001948DF8DB
:104360000B408DF80F40FCF74DFA0420FCF786FA5D
:10437000FCF7FAF9FEF73CFFFEF744FBFEF720FDE1
:10438000FEF750FDFEF780FDFEF79CFBFEF710FCEC
:10439000FEF76AFCFEF7C6FCFEF7A8FD00F098F9F0
:1043A000FFF744FFFCE700002DE9FF4700245848D1
:1043B000C82522464FF47A660095AF00CDE9016426
:1043C00001213B460394FCF73FF80A20FCF778F8FC
:1043D00000950122CDE901644E483B461146039405
:1043E000FCF732F84FF4FA6A5046FCF769F84A4E87
:1043F0004FF416683168C1F838805046FCF760F811
:1044000031684FF41679C1F83890C820FCF758F895
:104410003168C1F834805046FCF752F83168C1F871
:104420003490C820FCF74CF84FF47A760095CDE92B
:1044300001644FF4FA783648002243460121039480
:10444000FCF702F80A20FCF73BF800950122CDE9C1
:1044500001643048434611460394FBF7F5FF40469C
:10446000FCF72EF800950022CDE901742B480121BC
:104470003B460394FBF7E8FF40F6B830FCF720F822
:1044800000950022CDE901642148012143460394AF
:10449000FBF7DAFF0A20FCF713F800950122CDE9BB
:1044A00001641C48434611460394FBF7CDFF304698
:1044B000FCF706F800950122CDE9017417483B4648
:1044C00011460394FBF7C0FF3046FBF7F9FF41F2BA
:1044D0007C56009501220E48CDE901643B46114609
:1044E0000394FBF7B1FF0A20FBF7EAFF00950022D7
:1044F000CDE90164074801213B460394FBF7A4FF83
:1045000004B041F28830BDE8F047FBF7D9BF0000A6
:1045100090010024B802002460000024240200243A
:1045200010B52DED068BFEF739FE9FED3D8B3B4818
:10453000B0EE480B00F0A8F83848B0EE480B083051
:1045400000F0A2F89FED38AB34482030B0EE4A0BB3
:1045500000F09AF89FED369B3048B0EE490B00F022
:1045600093F82E48B0EE4A0B083800F08DF82B482F
:104570009FED310B00F088F89FED31AB27481030EC
:10458000B0EE4A0B00F080F82448B0EE4A0B083039
:1045900000F07AF89FED2CAB20482030B0EE4A0BAB
:1045A00000F072F81D489FED2A0B103000F06CF8F7
:1045B0001A489FED290B00F067F818489FED280B6B
:1045C000083800F061F815489FED270B00F05CF803
:1045D0001248B0EE490B103000F056F80F489FED2E
:1045E000240B00F051F80D48B0EE480B203000F0DD
:1045F0004BF80A489FED200B00F046F807489FED66
:10460000200B083800F040F8B0EE4A0BBDEC068BEA
:104610000248BDE81040203000F036B818000024F1
:104620000000000000004E400000000000805640E6
:104630000000000000005E40000000000000594043
:1046400000000000000054400000000000000000D6
:1046500000000000000055400000000000C0624063
:1046600000000000000049400000000000805740AA
:1046700000000000000050400000000000406040CA
:10468000000000000080554070B59FED0F1B5FF0EB
:10469000000405462DED028B90ED002B30EE420B11
:1046A00080EE018B95ED000B30EE080B85ED000BD5
:1046B000FBF79AFE0A20FBF703FF641C642CF1DB76
:1046C000BDEC028B70BD00000000000000005940EE
:1046D0002DE9FF412B480021FDF744FF01222A4824
:1046E0005103FCF728F829480021FDF73BFF274834
:1046F0000421FDF737FF26480021FDF733FF24484A
:104700000421FDF72FFF22480821FDF72BFF214848
:104710000021FDF727FF1F480421FDF723FF1D4857
:104720000821FDF71FFF41F28830FBF7C9FE002486
:1047300041F65835C826009601221748CDE90154A4
:104740004FF47A7711463B460394FBF77DFE0A202F
:10475000FBF7B6FE00960022CDE901540F48012177
:104760003B460394FBF770FE3846FBF7A9FEFFF7C4
:104770004BFC7800FBF7A4FE04B009A0BDE8F041B3
:10478000FFF768BB44010024000C025860000024BD
:10479000AC000024F800002490010024B80200249A
:1047A000696E697420636F6D706C657465210000BB
:1047B0004FF0FF33FEF7CCB8010002000400060002
:1047C00008000A000C0010002000400080000001DA
:1047D00001010103070100000804020408010101AE
:1047E0000000000001020304010203040607080997
:1047F000104800080000002460000000963E0008F9
:10480000704800086000002480070000A63E0008F1
:104810000000000001000000000000000000000097
:104820000000000000000000000000000000000088
:104830000000000000000000000000000000000078
:104840000000000000000000000000000000000068
:104850000000000000000000010000001000000047
:10486000000000000090D0030090D0030000000082
:040000050800029954
:00000001FF
